:020000040800F2
:1000000050C400209D0100088B220008C320000876
:1000100089220008E5050008B92E0008000000004C
:10002000000000000000000000000000A52D0008F6
:10003000AD06000800000000AD220008A72D000852
:10004000B7010008B7010008B7010008B7010008B0
:10005000B7010008B7010008B7010008B7010008A0
:1000600065090008B7010008B7010008B7010008DA
:10007000B7010008B7010008B7010008B701000880
:10008000B7010008B7010008B7010008B701000870
:10009000B7010008B7010008B7010008B701000860
:1000A000B7010008B7010008B7010008B701000850
:1000B000B7010008B7010008B7010008B701000840
:1000C000B7010008B7010008B7010008B701000830
:1000D000B7010008B7010008B7010008B701000820
:1000E00025090008B7010008B7010008B70100089A
:1000F000B7010008B7010008B7010008B701000800
:10010000B7010008B7010008B7010008B7010008EF
:10011000B7010008B7010008B7010008B7010008DF
:10012000B7010008B7010008B7010008B7010008CF
:10013000B7010008B7010008B7010008B7010008BF
:10014000B7010008B7010008B7010008B7010008AF
:10015000B7010008B7010008B7010008B70100089F
:10016000B7010008B7010008B7010008B70100088F
:10017000B7010008B7010008B7010008000000003F
:10018000B7010008B7010008DFF80CD000F054F9FF
:10019000004800477191000850C40020064880477D
:1001A00006480047FEE7FEE7FEE7FEE7FEE7FEE75C
:1001B000FEE7FEE7FEE7FEE7652E0008890100087E
:1001C0002DE9F05F0546002092469B46884606468C
:1001D000814640241BE0284641464746224600F01F
:1001E000E2F853465A46C01A914110D311461846B8
:1001F000224600F0C9F82D1A67EB01084F46224647
:100200000120002100F0C0F817EB00094E41201E2C
:10021000A4F10104DFDC484631462A464346BDE8E6
:10022000F09F00000649074A0868504343F239022C
:10023000104408604008704701490860704700009A
:10024000300100206D4EC64140EA01039B0703D0F8
:1002500009E008C9121F08C0042AFAD203E011F805
:10026000013B00F8013B521EF9D27047D2B201E0C7
:1002700000F8012B491EFBD270470022F6E710B5AB
:1002800013460A4604461946FFF7F0FF204610BD04
:1002900030B505462A460B4612F8010B13F8014B00
:1002A00008B1A042F8D01CB1002802D06D1CF1E7C3
:1002B000284630BD10B5044604E00B7800F8013B39
:1002C00003B1491C521EF8D2204610BDCAB2401ECE
:1002D00010F8011F8A4202D00029F9D1002070478E
:1002E000421C10F8011B0029FBD1801A704710B581
:1002F000002200E0521C835C8C5CA34201D1002BE5
:10030000F8D1D8B2E1B2401A10BD30B50446002091
:10031000034600E05B1C934203D2E05CCD5C401BD3
:10032000F8D030BD30B505460020034600E05B1C28
:10033000934205D2EC5CC85C201A01D1002CF6D1A6
:1003400030BD70B5064602F0FBFD046805460A2282
:100350000021304600F037F82C6070BD30B50B46F8
:10036000014600202022012409E021FA02F59D42E5
:1003700005D303FA02F5491B04FA02F52844151EB9
:10038000A2F10102F1DC30BD202A04DB203A00FAA0
:1003900002F1002070479140C2F1200320FA03F3DC
:1003A000194390407047202A04DB203A21FA02F0DA
:1003B0000021704721FA02F3D040C2F1200291409F
:1003C0000843194670472DE9F04791460F4680468D
:1003D0000446002614F8015B2DB100F03FF80068D8
:1003E000405DC007F6D12B2D02D02D2D18D0641EF4
:1003F0004A463946204600F035F827B13968A1420F
:1004000001D1C7F8008071054FF002040BD54042BE
:10041000002803DD02F094FD0460A007BDE8F0872A
:1004200046F48066E4E70028F8DA02F089FD04600B
:100430006FF00040F2E70000064C074D06E0E06870
:1004400040F0010394E8070098471034AC42F6D31B
:10045000FFF79EFEBC140108DC1401080048704739
:10046000981201082DE9F05F8246007800271546B2
:100470008B460AF10104B946302801D09DB113E042
:1004800014F8010B0127782803D0582801D045B172
:100490000AE00DB1102D07D10027102514F8010B2B
:1004A00002E0082500E00A250026B0460EE005FB24
:1004B000080005FB06F1012701EB10461FFA80F842
:1004C000B6F5803F00D3B94614F8010B294600F079
:1004D00018F80028EBDABBF1000F05D00FB1641E4D
:1004E00000E05446CBF80040B9F1000F06D002F00E
:1004F00027FD02210160C81EBDE8F09F48EA0640C2
:10050000FAE73A2800D2303820F02002412A01D3FD
:10051000A2F13700884201D34FF0FF30704730B569
:100520008C1810F8012B12F00F0301D110F8013BC9
:10053000120906D110F8012B03E010F8015B01F855
:10054000015B5B1EF9D101E001F8013B521EFBD1BA
:10055000A142E6D3002030BD0146014801F001BBB5
:100560005832002010B5044801F00DFB042801D0DA
:10057000012010BD002010BD5832002010B500F041
:100580000BF8012801D0012010BDBDE81040014842
:1005900001F009BB5832002008B5012000909DF8F9
:1005A000000008BD38B50024009313460A460146F2
:1005B000034801F081FB00B10124204638BD000052
:1005C0005832002038B50024009313460A460146ED
:1005D000034801F06BFC00B10124204638BD000047
:1005E00058320020FEE700000549044806C9C0E96A
:1005F00004120121103007F07DB800001001002026
:100600000C12010870B5054600F04CFE074C21683D
:10061000401AB0F5FA7F07D300F044FE2060284668
:10062000BDE8704000F004B870BD00000800002074
:10063000FEB504461A4D28780026012808D0022865
:100640000FD0052803D1204604F0CCFB2E70FEBD50
:100650006660A660E66002202870204604F006FB73
:10066000FEBD204604F02AFC10B103202870FEBD18
:10067000206A807A0428FAD904202870204604F0E1
:10068000B1FB084802906FF07F400190064800904F
:100690006B4601AA02A9204609F07EF9FEBD0000C2
:1006A00004010020C0A8010BC0A801017047006828
:1006B00000F58050816941F0020181617047006856
:1006C00000F58050816941F400518161704700005C
:1006D00008B507494FF4FA520968B1FBF2F14143FA
:1006E000009100BF0098411E0091FAD208BD0000A1
:1006F0002800002038B50446206800F58050816944
:1007000041F480118161206800F58050806900907B
:100710000120FFF7DDFF2068009900F5805081611E
:1007200038BD00001079537940EA03230748084494
:1007300003641178D37841EA0361937852781B04FB
:1007400043EA0222114341647047000000800240E6
:100750002DE9F041AEB00446002904D04FF400600A
:10076000E060C000A06000251195129513951495C6
:1007700015951695E06900287DD017954FF4007007
:10078000189019951A951B951C951D9540271E9735
:100790001F9520952195229523952495259526959D
:1007A00080262796289529952A952B952C952D9569
:1007B0002068026845490A40D4E902131943179B8F
:1007C000194341F40071114301602068D0F80080A2
:1007D000012000F015F92068C0F80080206847600B
:1007E00020684768012000F00BF920684760206806
:1007F00085602068C560206881694FF641721140AC
:1008000041F08001816120688769012000F0F8F8DB
:10081000206887612068C5612068C769012000F0F1
:10082000EFF82068C7610195B004029003950111AB
:1008300004910595069507950895042109910A905C
:1008400040120B9080010C9040120D900E960F9567
:100850001095206800F5805081691D4A11401D4A9D
:100860000A438261206800F580508569012000F00C
:10087000C7F8206800E016E000F580508561206828
:10088000154900F580500160206800F5805005682A
:10089000012000F0B5F8206800F580500560A069DF
:1008A000012804D00AE04FF48060179066E72068C2
:1008B00000F58050C169094A1143C16162692EB0D7
:1008C0002046BDE8F0410021FFF72CBF0F8120FF3B
:1008D000233FDEF8040020028020C1024000010016
:1008E00038B504462068016841F0040101602068C1
:1008F000006800900120FFF7EBFE21680098086077
:1009000038BD38B504462068016841F0080101602F
:100910002068006800900120FFF7DAFE2168009847
:10092000086038BD10B50C480168090403D501689A
:1009300041F020010160094801F025F9084C082820
:1009400004D1064801F01FF9FF2802D00120608081
:1009500010BD0020608010BD143C014058320020C2
:100960001800002008B511480168490703D501683F
:1009700041F004010160002000906A4612210C48F9
:1009800000F07CFA009880040BD56A4610210848D4
:1009900000F074FA0098C107064803D042F2010142
:1009A000018008BD4FF40051018008BD143C014096
:1009B0001032002018000020002200F001B80000D2
:1009C00030B5044601200D4B5D7A002D14D1587AC4
:1009D0001D54587A03EB800044605C7A03F10800F0
:1009E0002254587A421C5A72303008703A204870AB
:1009F0002F208870CD70002030BD0000FC32002018
:100A000070B5044600F04EFC0546601C02D0044858
:100A10000078044400F046FC401BA042FAD370BDAD
:100A20001C000020F0B5002490F84550012D09D09D
:100A3000012780F84570022580F84450816244F215
:100A4000F45C19E00220F0BD01EB44154FF00046C4
:100A50002E60C5F804C0C4EBC41606EB460602EBD4
:100A60008606AE6086695E1EB44203D205F120069A
:100A7000EE6000E0E960641C9C42E5D3026802F588
:100A80008052D16080F84470002180F84510002029
:100A9000F0BD2DE9F043002590F84540012C0BD026
:100AA0004FF0010C80F845C0022480F84440C16238
:100AB0004FF480185F1E1CE00220BDE8F08301EBBC
:100AC0004514C4F80080C5EBC51606EB460602EBDC
:100AD0008606A660C66926B9266846F44009C4F8A9
:100AE0000090BD4203D204F12006E66000E0E16020
:100AF0006D1C9D42E3D3026802F58052116180F8BB
:100B000044C0002180F845100020D6E710B590F8C9
:100B10004510012913D0012380F84530022180F8C7
:100B20004410816A0A680024002A29DB0A68D20579
:100B300018D5826B521C8263012A02D002E0022087
:100B400010BD01632830C1600A68C2F30D42121F54
:100B50004261826892688261C96801600377447764
:100B6000002010BD0A68920505D5016344638363C4
:100B7000C968816204E0826B521C8263C968816229
:100B800000F8443F4470012010BD00002DE9FC47EF
:100B900004464FF00008CDF80480C146002C03D075
:100BA00094F8440018B107E00120BDE8FC8784F800
:100BB0004580204600F008F97948016841F48041F9
:100BC0000160006800F4804000907648016821F4DC
:100BD000000101600168226A11430160206800F58C
:100BE0008050016841F00101016000F05BFB0546A7
:100BF0004FF4FA760AE000F055FB401BB04205D9ED
:100C0000032084F8440084F84580CEE7206800F58E
:100C100080500068C007EED12068006920F01C05F4
:100C200000F0ACFC6049614A0144914202D245F0B7
:100C3000080516E05E495F4A0144914202D245F040
:100C40000C050EE05C495D4A0144914209D35C49C0
:100C500008445C49884202D245F0040501E045F0B1
:100C60001005206805614FF400420021204600F085
:100C7000F1F9012538B101212046FFF769FD84F81B
:100C80004450012091E7FF20FFF7BAFE6068E0B30F
:100C900000F008FB074641F2883601AA01212046F0
:100CA00000F0ECF800F0FEFAC01BB04209D90121B7
:100CB0002046FFF74DFD84F8445084F8458003201A
:100CC00073E701984007E8D54FF480520021204691
:100CD00000F0C0F938B101212046FFF739FD84F852
:100CE0004450012061E700F0DDFA074601AA012126
:100CF000204600F0C3F800F0D5FAC01BB0420BD973
:100D000001212046FFF724FD00E028E084F844504C
:100D100084F84580032048E701988006E6D501AABB
:100D20001021204600F0AAF838B101212046FFF733
:100D30000FFD84F84450012037E70198410703D59F
:100D40004FF40061E16001E0C4F80C80800702D537
:100D5000C4F808801BE04FF48040A06017E0E06812
:100D60000021C0F3CF02A068C0F34F000243204629
:100D700000F070F938B101212046FFF7E9FC84F852
:100D80004450012011E740F6FF70FFF739FE494655
:100D90002046FFF7DDFC84F84450002005E7000002
:100DA000443802400438014000D3CEFEC0E1E400E4
:100DB00040F1E9FD40787D0100796CFC005A620247
:100DC000001F0AFA80F0FA02F0B587B000682549E2
:100DD000884245D100242448016841F00071016037
:100DE000016801F000710191016841F080610160CA
:100DF000016801F080610191016841F000610160CA
:100E0000006800F000600190042002900225039524
:100E10000494032605960B27069702A9134800F0B1
:100E200057F93E200290039504940596069702A96F
:100E30000F4800F04DF98F20029003950494059619
:100E4000069702A90B4800F043F943F603400290CD
:100E5000039504940596069702A9074800F038F90F
:100E600007B0F0BD00800240303802400010024060
:100E70000008024000000240000402402DE9F04753
:100E80000446914694F8440082281DD0822084F8BC
:100E900044002068026902F01C03228A4FF6FF75A5
:100EA00005EAC2221A434FF4F86303EA81111143A1
:100EB00021F0020141F00105056100F0F3F9064659
:100EC00001274FF480380FE00220BDE8F08700F0E2
:100ED000E9F9801B404505D304F8447F0020607089
:100EE0000320F2E720680569E807F0D1206840692F
:100EF00080B2C9F8000084F844700020E5E770B5BE
:100F0000044694F84500012819D0012584F845507D
:100F1000022084F844002046FFF7F3FC2046FFF748
:100F2000DFFC2046FFF7E6FB2046FFF7C8FB204624
:100F3000FFF7BDFB04F8445F0020607070BD022025
:100F400070BDF0B5002390F84520012A11D001278B
:100F500080F84570022280F84420002659B1C46A06
:100F60002268002A0CDA122100F8441F4670012082
:100F7000F0BD0220F0BD00F8447F46700120F0BDB6
:100F800040F2F455A9420AD9B1FBF5F2B1FBF5FCE8
:100F900005FB1C1CBCF1000F02D0521C00E001221A
:100FA000012A44D1226842F040522260C26AC1F351
:100FB0000C015160C16A0A6842F000420A60C16ACD
:100FC000C968C16235E0C46AD4F800C02CF0405C46
:100FD000C4F800C033B9C46AD4F800C04CF0805CD7
:100FE000C4F800C0C46A6560541EA34214D1C46A28
:100FF000D4F800C04CF0005CC4F800C0C2F1010499
:10100000C4EBC41404EB440401EB8404D0F82CC0FA
:10101000C4F30C04CCF80440C46AD4F800C04CF00B
:10102000004CC4F800C0C46AE468C4625B1C93420C
:10103000C9D3016801F580514A69520705D50422D8
:101040004A61016801F580514E6000F8447F4670A6
:101050000020F0BD2DE9F041044694F844004228F8
:1010600020D0422084F844002068036903F01C0368
:10107000258A4FF6FF7606EAC5251D434FF4F8632F
:1010800003EA8111294341F0020141F0010591B2C7
:1010900041612068056100F005F9064601274FF41B
:1010A00080380FE00220BDE8F08100F0FBF8801BE3
:1010B000404505D304F8447F002060700320F2E728
:1010C00020680569E807F0D184F84470EBE7000078
:1010D0002DE9F84F0022DFF89091DFF88C8109F1BB
:1010E00008094FF0010E4FF00F0C09F1040A0EFA37
:1010F00002F60B683340B34271D14C68022C01D028
:10110000122C11D1D40800EB84073D6A5407E40E79
:101110000CFA04FB25EA0B05D1F810B00BFA04FB1E
:101120004BEA050BC7F820B0076854000325A5401B
:10113000AF4391F804B00BF0030B0BFA04FB4BEA3E
:10114000070BC0F800B04F68012F05D0022F03D065
:10115000112F01D0122F11D18768AF43D1F80CB0F5
:101160000BFA04FB4BEA070BC0F808B04768B7431B
:101170000E79C6F3001696403E434660C668AE43FD
:101180008D68A5403543C5604C68E40065D5374C93
:10119000256845F480452560246804F48044009463
:1011A000334C22F003052544D5F808789407260F20
:1011B0000CFA06F4A7432F4CA04201D1002424E0EE
:1011C0002D4CA04201D101241FE02C4CA04201D1A2
:1011D00002241AE02A4CA04202D1032415E03CE08C
:1011E000284CA04201D104240FE0274CA04201D199
:1011F00005240AE0254CA04201D1062405E0244C38
:10120000A04201D1072400E00824B4403C43C5F8C3
:101210000848D8F800409C434D68ED0300D51C43B6
:10122000C8F80040104D2D1D2C689C434E68B60335
:1012300000D51C432C60D9F800409C434D68ED025A
:1012400000D51C43C9F80040DAF800409C434D68C3
:10125000AD0200D51C43CAF80040521C102AFFF40E
:1012600046AFBDE8F88F0000003C01404438024022
:10127000003001400000024000040240000802402B
:10128000000C02400010024000140240001802400E
:10129000001C0240002A01D081617047090481616D
:1012A0007047000001488068704700001C00002063
:1012B0000248816802781144816070471C00002058
:1012C00010B50B48016841F400710160016841F4F8
:1012D00080610160016841F480710160032000F0C9
:1012E00099F8002000F006F800F026F8002010BD64
:1012F000003C024070B504460D4D4FF47A712878D9
:10130000B1FBF0F00B490968B1FBF0F000F0C1FE51
:1013100008B1012070BD102C07D200222146501EBA
:1013200000F058F86C60002070BD012070BD000016
:101330001C0000202800002008B51F48016841F467
:1013400080410160006800F4804000901A48001F4E
:10135000016841F080510160006800F08050009009
:10136000032000F057F8002211466FF00B0000F048
:1013700031F8002211466FF00A0000F02BF800222D
:1013800011466FF0090000F025F800221146501FA9
:1013900000F020F800221146101F00F01BF8002278
:1013A0001146901E00F016F80022BDE808401146D4
:1013B000501E00F00FB800004438024000F01F0239
:1013C000012191404009800000F1E020C0F80011A7
:1013D00070470000F0B40D460D4B1B68C3F30223A9
:1013E000C3F10704042C00D90424191D072901D2D4
:1013F000002300E0DB1E012606FA04F1491E294005
:1014000099409E40761E16403143F0BC00F03EBF2E
:101410000CED00E000F00701054A10684FF6FF03ED
:10142000184040EA0120034908431060704700005B
:101430000CED00E00000FA052DE9F04704460D46EA
:10144000002C13D0DFF82491D9F80000EFB200F09F
:101450000F00A8420CD289F80070D9F8000000F003
:101460000F00A84204D00120BDE8F0870120FBE76F
:1014700020683F4E810712D5400703D5306840F4FD
:10148000E05030602078000703D5306840F46040B9
:1014900030603068A16820F0F000084330602078A8
:1014A000C00731D0324960680839012808D00228C5
:1014B0000BD0032809D0096889070BD40120D3E792
:1014C0000968890306D40120CEE70968890101D49F
:1014D0000120C9E7316821F0030101433160FFF7C2
:1014E000E1FE804641F2883A07E0FFF7DBFEA0EB21
:1014F0000800504501D90320B6E73068616800F064
:101500000C00B0EB810FF0D1D9F8000000F00F0013
:10151000A84209D989F80070D9F8000000F00F003E
:10152000A84201D001209FE72078400705D5306808
:10153000E16820F4E050084330602078000706D5C9
:101540003068216920F4604040EAC100306000F05A
:101550001BF83168074AC1F30311515CC8400649C2
:1015600008600020FFF7C6FE00207DE7003C024037
:1015700008380240D4FA000828000020014800681A
:10158000704700002800002010B51748006810F0D0
:101590000C01164816D0164B042912D0082911D177
:1015A000114C241F216801F03F02216849020AD52D
:1015B0002068C0F38810A0FB03010023FEF700FEA3
:1015C00009E0184610BD21680023C1F38811A1FB72
:1015D0000001FEF7F5FD2168C1F30141491C4900F6
:1015E000B0FBF1F010BD0000083802400024F40008
:1015F00040787D012DE9F84F0446002C10D020786A
:10160000DC4DC00757D0DB4808300168C1F38101C9
:1016100001290DD00068C0F38100022803D00EE03C
:101620000120BDE8F88FD348001D0068400206D5B0
:10163000286880033FD5606870BB0120F1E76068CF
:10164000B0F5803F10D0B0F5A02F12D0286820F45C
:1016500080302860286820F4802028606068E0B12D
:10166000FFF720FE064614E0286840F4803028602A
:10167000F4E7286840F480202860286840F480302F
:101680002860EBE7FFF70EFE801B642801D90320DA
:10169000C7E728688003F5D50DE0FFF703FE06468F
:1016A00006E0FFF7FFFD801B642801D90320B8E79F
:1016B00028688003F5D42078AF4F80074FF00008EA
:1016C00049D5AC480830016811F00C0F09D000680A
:1016D000C0F38100022814D1A648001D0068400212
:1016E0000FD42868800704D5E068012801D00120C4
:1016F00097E72868216920F0F80040EAC1002860D7
:1017000029E0E068B8B101203860FFF7CBFD06465C
:1017100006E0FFF7C7FD801B022801D9032080E700
:1017200028688007F5D52868216920F0F80040EA8C
:10173000C10028600FE0C7F80080FFF7B3FD064640
:1017400006E0FFF7AFFD801B022801D9032068E700
:1017500028688007F5D42078000729D5DFF814928F
:101760008648616909F1740989B101210160FFF7B7
:1017700099FD064606E0FFF795FD801B022801D97A
:1017800003204EE7D9F800008007F4D510E0C0F838
:101790000080FFF787FD064606E0FFF783FD801B0C
:1017A000022801D903203CE7D9F800008007F4D4CF
:1017B0002078400772D50026DFF8B8A10AF1400A68
:1017C000DAF80000C0000BD4DAF8000040F08050D6
:1017D000CAF80000DAF8000000F0805000900126FE
:1017E000DFF89CB1DBF80000C00515D4DBF8000081
:1017F00040F48070CBF80000FFF754FD814607E00D
:10180000FFF750FDA0EB0900022801D9032008E7EB
:10181000DBF80000C005F3D5DFF858B1A0680BF184
:10182000700B012813D0052818D0DBF8000020F039
:101830000100CBF80000DBF8000020F00400CBF83A
:101840000000A06830B3FFF72DFD81461DE0DBF8F6
:10185000000040F00100CBF80000F2E7DBF80000E8
:1018600040F00400CBF80000DBF8000040F001007D
:10187000CBF80000E5E7FFF715FDA0EB090141F209
:101880008830814201D90320CBE6DBF800008007D5
:10189000F1D512E0FFF706FD81460AE015E0FFF7FB
:1018A00001FDA0EB090141F28830814201D90320FA
:1018B000B7E6DBF800008007F1D4012E05D1DAF895
:1018C000000020F08050CAF80000A069C0B3294988
:1018D00008310968C1F38101022949D0022805D0E5
:1018E000C7F86080FFF7DEFC04463CE0C7F8608084
:1018F000FFF7D8FC064606E0FFF7D4FC801B022861
:1019000001D903208DE628688001F5D4D4E90701C8
:101910000843616AA26A4FF0FF33890103EB520268
:1019200041EA0241084394F82C1040EA0161114851
:10193000001D016001203866FFF7B4FC044607E093
:1019400014E0FFF7AFFC001B022801D9032068E672
:1019500028688001F5D509E0FFF7A4FC001B0228E8
:1019600001D903205DE628688001F5D4002058E6FF
:10197000012056E60038024000004742800E4742F0
:1019800000700040F0B5426E120E93090B70C2F366
:1019900083034B7002F003028A70426E120CCA700D
:1019A000B0F86420120A0A7190F864204A71826EBD
:1019B000120E4FF6FF7303EA0212CA80826EC2F360
:1019C0000742CB8843EA1213CB8002F00F020A725F
:1019D000B0F86820C2F30722D3094B72C2F3801318
:1019E0008B72C2F34013CB72C2F300130B73002649
:1019F0004E73436C01254FF40077002B0DD0012B63
:101A000044D0026840F2FF519163816B41F08051F4
:101A1000816380F834500120F0BD9207120D0A61F5
:101A200090F868200B6943EA82020A61C26E120EC6
:101A30000B6943EA92130B61C2F3C2030B7502F008
:101A400007024A75C26EC2F3074253098B75C2F38F
:101A50008203CB759207520F0A76B0F86C20C2F35E
:101A600007220B7E43EAD2130B760C69641C446593
:101A70000B7E9B1C9C40446591F808C005FA0CF352
:101A800083655B0A5C43C46507661CE090F86820C8
:101A90009206920A0A61C26E120E0B6943EA022292
:101AA0000A61C26EC2F307420B6913430B61B0F8BF
:101AB0006C20C2F307220B695B1C4FEA832343654A
:101AC000C36587650766C2F3801301F8193F4FEAC3
:101AD00082624FEA52624A7010F86C2F4B7843EAE8
:101AE000D2134B7002F07F028A7042684FEA126292
:101AF0004FEAD213CB70C2F341130B71C2F38203CE
:101B00004B714FEA82724FEA12728A714268C2F3D5
:101B100007428B7943EA92138B71C2F34013CB7166
:101B20000E7202F001024A728288C2F307224FEA63
:101B3000D2138B72C2F38013CB72C2F340130B73B8
:101B4000C2F300134B73C2F381038B7302F00302E1
:101B5000CA7300794FEA500008744D744FF00000CA
:101B6000F0BD426C0A60826C4A60C26C8A60026D91
:101B7000CA60426D0A61826D4A61C26D8A61006EFF
:101B8000C8610020704738B50446002000906946BF
:101B9000204600F08EFF10B1A16B0143A1630098B5
:101BA000C0F3432038BD70B50446002C04D094F82F
:101BB0003400002510B105E0012070BD25772046D6
:101BC00000F048F8032084F83400204600F008F8BC
:101BD000A5632563012084F83400002070BD000057
:101BE00070B58AB0044600250495059506950795BD
:101BF0000895762009900095CDE901502B462A469C
:101C00002946206800F073FB114E3560206800F013
:101C100083FB012535600220FEF7F2FE204600F02E
:101C2000E6FE38B184F83450A16B0143A163012072
:101C30000AB070BD204600F069FE30B184F834501F
:101C4000A16B0143A1630120F2E70020F0E700004F
:101C5000A0802542F0B587B000681349884221D1A1
:101C600000271248016841F400610160006800F437
:101C7000006001904FF4885002900224039404976E
:101C8000032505950C26069602A90948FFF720FAB8
:101C900004200290039404970595069602A905482E
:101CA000FFF716FA07B0F0BD002C0140443802409F
:101CB00000080240000C02402DE9F04F87B00446B6
:101CC0000D4693469A46109EFFF7ECFA80465DB1AA
:101CD00094F8340001280DD0A06B40F00050A063B0
:101CE000012007B0BDE8F08FA06B40F00060A0635A
:101CF0000120F6E70027A763E16D0BEB0A0088429D
:101D000005D9A06B40F00070A0630120E9E7032033
:101D100084F834002068C762606C012801D04FEA63
:101D20004B2B4FF40071206800F046FB40F2FF5946
:101D3000012148B12268C2F83890A26B0243A26325
:101D400084F834100120CCE74FF0FF3001904FEAC7
:101D50004A200290902003900220049005970F469D
:101D6000069101A9206800F0A2FABAF1010F06D984
:101D7000022020635946206800F063FB04E02763DB
:101D80005946206800F076FB58B32168C1F83890B6
:101D9000A16B0143A16384F834700120A1E7406B7B
:101DA00000040CD54FF0000B206800F0B9FA45F89C
:101DB0002B000BF1010BBBF1080FF5D320352EB131
:101DC000FFF770FAA0EB0800B0420AD32068C0F811
:101DD0003890A06B40F00040A06384F8347003207A
:101DE0007FE72068416B40F22A321142D7D0216848
:101DF000496BC90512D5BAF1010F0FD9616C0329DE
:101E00000CD000F0C7FB48B12168C1F83890A16B35
:101E10000143A16384F83470012062E72068416BBC
:101E2000090709D5C0F83890A06B40F00800A063FE
:101E300084F83470012054E7416B890709D5C0F854
:101E40003890A06B40F00200A06384F83470012049
:101E500047E7416B89061ED5C0F83890A06B40F06B
:101E60002000A06384F8347001203AE700F058FAAB
:101E700001C52EB1FFF716FAA0EB0800B0420AD355
:101E80002068C0F83890A06B40F00040A06384F850
:101E90003470012025E72068416B8902E6D4206870
:101EA000C0F8389084F8347000201AE72DE9F04F1C
:101EB00087B004460E4615469A46DDF840B0FFF757
:101EC000F1F900905EB194F8340001280DD0A06BB8
:101ED00040F00050A063012007B0BDE8F08FA06B78
:101EE00040F00060A0630120F6E70020A063E26DEF
:101EF00005EB0A01914205D9A06B40F00070A06388
:101F00000120E9E7032184F8341021680020C86229
:101F1000606C012800D06D024FF40071206800F061
:101F20004BFA40F2FF584FF0010948B12168C1F85F
:101F30003880A16B0143A16384F834900120CBE782
:101F4000BAF1010F07D9202020632946206800F04C
:101F50003BFB074606E0102020632946206800F07E
:101F60004CFB07464FB12068C0F83880A06B38435F
:101F7000A06384F834900120AEE74FF0FF30019069
:101F80004FEA4A2002909020039000200490059090
:101F9000CDF8189001A9206800F089F91FE0406B86
:101FA000400409D5002506EB8501206800F0CBF937
:101FB0006D1C082DF7D32036BBF1000F05D0FFF7BD
:101FC00071F90099401A584509D32068C0F8388043
:101FD000A06B3843A06384F8349003207CE720682A
:101FE000416B40F21A321142D9D02168496BC905C0
:101FF00012D5BAF1010F0FD9616C03290CD000F092
:10200000C9FA48B12168C1F83880A16B0143A163C6
:1020100084F8349001205FE72068416B090709D5F7
:10202000C0F83880A06B40F00800A06384F83490BA
:10203000012051E7416B890709D5C0F83880A06BB2
:1020400040F00200A06384F83490012044E7416B23
:10205000C90609D5C0F83880A06B40F01000A06315
:1020600084F83490012037E7C0F8388084F8349041
:10207000002031E74FF0E021042804D0086920F067
:10208000040008617047086940F004000861704767
:10209000704710B5401EB0F1807F01D3012010BD04
:1020A0004FF0E02460610F21601700F0EFF800208E
:1020B000A06107202061002010BD10B5FFF7E8FFE8
:1020C00010BDFEE72DE9F0410D4616461F460028DB
:1020D00012D10024DFF828800CE056F8240009A172
:1020E000FEF705F928B957F82400FEF72AF9A8F8F1
:1020F0000000641CAC42F0D304A0BDE8F0810000F5
:102100001001002056617231000000002F73656ECF
:10211000642E68746D6C000010B504490448FEF725
:102120004BFC0249491E087010BD0000020000204F
:10213000C0FA000870B586B000242E48016841F04E
:1021400010010160016801F010010091016841F087
:1021500004010160016801F004010091016841F08F
:1021600080010160016801F080010091016841F087
:1021700001010160016801F001010091016841F075
:1021800002010160016801F002010091016841F063
:1021900008010160006800F008000090164E4FF43E
:1021A000E055002229463046FFF774F8F2130192F9
:1021B000124A0292039401A91148FEF789FF019582
:1021C000012002900394049401A93046FEF780FF99
:1021D000002211460820FFF7FDF80820FFF7EEF86F
:1021E000002211462820FFF7F5F82820FFF7E6F82F
:1021F00006B070BD30380240000C024000003110C3
:10220000000402400EB506F068FF13490020086084
:10221000091D0860091D08601049114ACDE9012116
:102220000D4B009008331A1F111F0E4807F030FBAA
:102230000C4807F0D7FB0B4890F82F00400703D558
:10224000084807F014FC02E0064807F0D1FBBDE89F
:102250000E40044802F00ABD0C000020B55F0008E3
:102260004D6100083C01002006480549016000213D
:1022700041608160C160016141618161704700001E
:10228000002C014058320020FEE770470907090E74
:10229000002806DA00F00F0000F1E02080F8141D9D
:1022A000704700F1E02080F80014704770470A681A
:1022B00042624A688262D1E902231A43D1E90431B9
:1022C0000B431A43C16A21F0F7011143C162002098
:1022D00070470069C0B27047006800F003007047A3
:1022E00008B50844143000900098006808BD0FB489
:1022F000DDE901121143DDE903231A431143059A75
:102300001143069A1143426847F6FF639A430A4312
:102310004260002004B07047032101600020704734
:10232000D0F8800070470A688260D1E901231A431F
:10233000D1E903310B431A43C1686FF30B01114319
:10234000C160002070470968C0F880100020704705
:1023500010B586B0044601913721029140210391C6
:10236000002104914FF48061059101A92046FFF7F7
:10237000DAFF41F288323721204600F071F906B0C9
:1023800010BD000010B586B004460A4A1143019101
:10239000292102914021039100210491510D0591C1
:1023A00001A92046FFF7BFFF204600F013FA06B050
:1023B00010BD00000000108010B586B004460191E9
:1023C0001021029140210391002104914FF480617A
:1023D000059101A92046FFF7A6FF41F2883210219E
:1023E000204600F03DF906B010BD10B586B0044699
:1023F000002101910291039104914FF480610591B4
:1024000001A92046FFF78FFF204600F00FF906B024
:1024100010BD10B586B004464FF4D5710191082166
:10242000029140210391002104914FF480610591B4
:1024300001A92046FFF777FF204600F033FA06B0E7
:1024400010BD10B586B004460191122102914021C1
:102450000391002104914FF48061059101A9204668
:10246000FFF761FF41F288321221204600F0F8F8B0
:1024700006B010BD10B586B004460191112102913D
:1024800040210391002104914FF48061059101A93D
:102490002046FFF748FF41F288321121204600F024
:1024A000DFF806B010BD10B586B0044601920721D2
:1024B000029140210391002104914FF48060059026
:1024C00001A92046FFF72FFF41F28832072120465D
:1024D00000F0C6F806B010BD10B586B00446002165
:1024E000019102220292C022039204914FF4806172
:1024F000059101A92046FFF716FF204600F042F99A
:1025000006B010BD10B586B00446019109210291B4
:10251000C0210391002104914FF48061059101A92C
:102520002046FFF700FF204600F02CF906B010BD52
:1025300010B586B0044601910D210291402103910E
:10254000002104914FF48061059101A92046FFF715
:10255000EAFE41F288320D21204600F081F806B0F3
:1025600010BD70B586B006460D46002301930324C6
:1025700002944024039404932301059301A9304657
:10258000FFF7D1FE2A460321304600F045F906B098
:1025900070BD000010B586B00446002101910C22E8
:1025A00002924022039204911101059101A9204653
:1025B000FFF7B9FE034A0C21204600F051F806B09F
:1025C00010BD000000E1F50510B586B0044601918C
:1025D0001921029140210391002104914FF480615F
:1025E000059101A92046FFF79EFE41F2883219218C
:1025F000204600F035F806B010BD10B586B0044690
:1026000001911821029140210391002104914FF47E
:102610008061059101A92046FFF785FE41F28832CD
:102620001821204600F01CF806B010BD0B494FF4ED
:10263000FA520968B1FBF2F141F288325143491E66
:102640004A1C07D0426B1206F9D540F2FF51816354
:10265000002070474FF00040704700002800002025
:1026600010B5034645484FF4FA540068B0FBF4F047
:102670005043401E421C09D05A6B12F0450FF8D04F
:10268000586B400705D50420986310BD4FF00040FB
:1026900010BD586BC00702D00120986310BD1846CA
:1026A000FFF717FE884201D0012010BD40F2FF5015
:1026B000986300211846FFF713FE3149084201D103
:1026C000002010BD002802DA4FF0007010BD41005C
:1026D00001D5402010BD810001D5802010BDC10072
:1026E00002D54FF4807010BD010102D54FF4007087
:1026F00010BD410102D54FF4806010BDC10102D56B
:102700004FF4006010BD010202D54FF4805010BD9F
:10271000410202D54FF4005010BD810202D54FF4A2
:10272000804010BDC10202D54FF4004010BD4103EE
:1027300002D54FF4003010BD810302D54FF4802044
:1027400010BDC10302D54FF4002010BD010402D515
:102750004FF4801010BD410402D54FF4001010BD9D
:10276000810402D54FF4800010BD000702D54FF45C
:10277000000010BD4FF4803010BD00002800002084
:1027800008E0FFFD12494FF4FA520968B1FBF2F17B
:1027900041F288325143491E4A1C0AD0426B12F062
:1027A000450FF8D0416B490706D504218163042009
:1027B00070474FF000407047416BC90703D00121BB
:1027C00081630120704740F2FF5181630020704710
:1027D000280000200F494FF4FA520968B1FBF2F1CA
:1027E00041F288325143491E4A1C0AD0426B12F012
:1027F000450FF8D0416B490706D5042181630420B9
:1028000070474FF00040704740F2FF518163002055
:10281000704700002800002010B5034620484FF400
:10282000FA540068B0FBF4F041F288346043401E73
:10283000441C09D05C6B14F0450FF8D0586B40076E
:1028400005D50420986310BD4FF0004010BD586BB3
:10285000C00702D00120986310BD1846FFF739FD6C
:10286000884201D0012010BD40F2FF509863002142
:102870001846FFF735FD10F4604F04D0410406D52B
:102880004FF4005010BD000C1080002010BD00045B
:1028900002D54FF4805010BD4FF4803010BD0000C1
:1028A0002800002010494FF4FA520968B1FBF2F1F8
:1028B00041F288325143491E4A1C0BD0426B12F040
:1028C000450FF8D0416B4A074FF0400105D58163B1
:1028D000042070474FF000407047426B520600D50D
:1028E00081630020704700002800002010B5064CCE
:1028F00001202070FDF736FE18B9207820F0010085
:102900002070207810BD00000000002010B590B0AD
:102910000446012004902068FFF7DEFC002863D005
:10292000606C032819D02068FFF7D6FD002859D124
:1029300000212068FFF7D4FC606704212068FFF7BE
:10294000CFFCA06708212068FFF7CAFCE0670C21D4
:102950002068FFF7C5FCC4F88000606C032805D030
:1029600004A92068FFF7FDFD00283BD1606C032817
:102970001CD0BDF81000206501042068FFF7C2FDDF
:1029800000282FD100212068FFF7AAFC60660421EF
:102990002068FFF7A5FCA06608212068FFF7A0FCCF
:1029A000E0660C212068FFF79BFC2067042120686B
:1029B000FFF796FC000DE06405A92046FEF7E2FF54
:1029C000B4F85000002302042068FFF76CFD0028D3
:1029D00008D1D4E9051220698DE807000FCCFFF774
:1029E00086FC002010B010BD4FF08060FAE72DE9A2
:1029F000F84F044600270097BA4600252068FFF7E5
:102A0000F4FC002811D12068FFF703FD4FF0807817
:102A10004FF6FF7610B3A7644FF080591AE0009884
:102A2000411C0091B04202D14046BDE8F88F002120
:102A30002068FFF78DFC08B14846F6E700212068C2
:102A4000FFF7A0FC08B14846EFE700212068FFF738
:102A500047FCC50F002DE2D0676428E04FF0010964
:102A6000C4F848901AE00098411C0091B04201D18E
:102A70004046DAE700212068FFF76AFC0028D4D13D
:102A80004FF080412068FFF77DFC0028CDD1002168
:102A90002068FFF725FC82464FEADA75002DE2D068
:102AA0005FEA4A0002D5C4F8449000E06764002061
:102AB000BBE770B504460D46002D0ED0B4F85000AB
:102AC00001042068FFF734FD002805D100212068AB
:102AD000FFF706FC2860002070BD4FF0006070BD5D
:102AE0002DE9F04F8DB0054689469246294601A84A
:102AF00003F0FAFB0446200030D1DFF88880224F33
:102B000008F1090B1F4901A803F031FC044614BB6E
:102B100098F80900F8B198F80800C00625D52846AD
:102B2000FDF7DEFB0646A8195A4618A100F0F4F995
:102B3000B8685A4600EB801009EB800013A100F042
:102B4000EBF9B868401CB860524649462846FFF782
:102B5000C7FF044634B101A803F083FB0DB0204643
:102B6000BDE8F08F0020A855CCE7F8685A4600EB86
:102B700080100AEB800005A100F0CEF9F868401C37
:102B8000F860BFE778690020100100202F2573004E
:102B900070B50546054C01202070FDF7EFFC18B913
:102BA0002846FFF7A3FE2070207870BD00000020AB
:102BB00010B588B0144614480078C00702D003202E
:102BC00008B010BD39B1012907D002290CD0032962
:102BD00011D00420F4E70020F2E76846FDF7BCFCC2
:102BE000069820600020EBE76846FDF7B5FC0798E3
:102BF00020800020E4E76846FDF7AEFC0798400A15
:102C000020600020DCE7000000000020084610B52E
:102C100011461A460124A31EFDF7C4FC20B9FDF796
:102C2000A1FC0028FBD10024204610BDFFF75EBEAA
:102C3000084610B511461A460124A31EFDF7C2FC32
:102C400020B9FDF78FFC0028FBD10024204610BDE1
:102C500070B5ADF5027D04460D464FF480763146E1
:102C600042A8FDF70AFB314602A8FDF706FB25A0A6
:102C70000088ADF808010020019000906A4601A983
:102C800042A807F06DFF1FA00088ADF808001E4A9B
:102C900002A8A2F54371FFF723FF18B1FCB1012C84
:102CA00003D125E02CB1012C0ED000200DF5027DC2
:102CB00070BDBDF8042015A1284600F02DF9284666
:102CC000FDF70EFB80B2F1E7BDF800200FA128460A
:102CD00000F022F92846FDF703FB80B2E6E70CA1DD
:102CE000284600F019F92846FDF7FAFA80B2DDE728
:102CF0000DA1284600F010F92846FDF7F1FA80B240
:102D0000D4E700002F000000D07C002025750000D3
:102D10004E6F206469726563746F726965732066B3
:102D20006F756E64656400004E6F2066696C657334
:102D300020666F756E6465640000000010B50022A7
:102D40000C490D4803F0A0FA28B1BDE81040192144
:102D50000AA000F0CFB800224FF480510E48FEF7D1
:102D600099FA0E4802224168BDE810400C4804F070
:102D700023BD000002000020906900202E2E5C413F
:102D800070704E65745C5372635C6170705F6874E0
:102D900074702E6300000000000C0240100100203F
:102DA000512C0008704710B5FEF782FABDE81040BC
:102DB000FFF783B970B592B000242448016841F050
:102DC00080510160006800F0805000902048016848
:102DD00041F480410160006800F4804000900125CA
:102DE00006952804079002200C9041050D910F26AE
:102DF0000E9690210F9110900520119006A8FEF7D5
:102E0000F9FB18B1AD2113A000F074F801960295FA
:102E1000039404940594002101A8FEF70DFB18B15A
:102E2000BB210CA000F066F8FEF7A8FB4FF47A7106
:102E3000B0FBF1F0FFF72DF90420FFF71BF900229A
:102E40001146501EFEF7C6FA12B070BD403802405F
:102E5000007000402E2E2F5372632F6D61696E2E0D
:102E6000630000001048016841F4700101600F48E0
:102E7000016841F0010101600C4A00210832116033
:102E800002680B4B1A400260031D0A4A1A6002686E
:102E900022F48022026005480C3001600249580685
:102EA000803908607047000088ED00E0003802407B
:102EB000FFFFF6FE10300024FEE7000090F82F0020
:102EC000C1070B4810D0017811B10178052901D153
:102ED000012101700178032904D00078042801D071
:102EE00000207047012070470521017000207047C5
:102EF00004010020FEE700000FB4054B10B503A944
:102F0000044A029800F030F810BC5DF814FB000091
:102F1000EF660008340100200FB4084B10B504A977
:102F200002AA039800F020F8044602A9002000F04D
:102F3000F7F8204610BC5DF814FB000021310008B2
:102F4000004870473801002002E008C8121F08C17D
:102F5000002AFAD170477047002001E001C1121F1A
:102F6000002AFBD1704700002DE9FF4F8BB09A4635
:102F70000F460546002606E025280BD052460D993F
:102F800090476D1C761C28780028F5D10FB030468C
:102F9000BDE8F08F0024A0460122604900E0044310
:102FA00015F8013F203B02FA03F00842F7D12878D8
:102FB0002E2817D115F8010F44F004042A280ED04A
:102FC0006FF02F022878A0F1300109290AD808EB08
:102FD000880102EB410100EB01086D1CF2E757F894
:102FE000048B6D1C287869283ED006DC0028CDD0E3
:102FF00063280BD0642804D136E0732810D07528DC
:103000004BD052460D999047761C85E017F8040B7B
:103010008DF8000000208DF80100E946012003E052
:1030200057F8049B4FF0FF3061074FF0000401D4C4
:103030000AE0641C44450DDA8442FADB19F80410F6
:103040000029F6D106E0641C8442FCDB19F8041068
:103050000029F8D1264404E019F8010B52460D99D5
:103060009047641EF8D257E001CF4FF00A0B0028BA
:1030700002DA40422D2102E0210504D52B218DF8F2
:103080002410012103E0E10705D02021F7E70DF12D
:10309000200908910CE00021F9E701CF4FF00A0B5D
:1030A000F9E75946FDF75AF901F1300209F8012D07
:1030B0000028F6D1ADEB090000F1200B600701D428
:1030C0004FF00108D84502DDA8EB0B0000E000201E
:1030D0008046002406E009A85246005D0D999047FD
:1030E000641C761C08988442F5DB04E030205246CC
:1030F0000D999047761CB8F10001A8F10108F5DCA4
:1031000005E019F8010B52460D999047761CBBF16A
:103110000001ABF1010BF4DC6D1C34E70928010060
:103120000A68531C0B6010707047000010B504460D
:103130000020E070401E2063204606F08FFB08B19F
:10314000042010BD04F2322005F07EFEA0F52A41D5
:10315000553901D0032010BD94F83400E92805D07A
:10316000EB2816D194F83600902812D104F16A00A9
:1031700005F05FFE0849B1EB002F01D1002010BD22
:1031800004F1860005F055FE0449884201D1002073
:1031900010BD022010BD000000464154464154338A
:1031A00000E0401C02780AB18A42FAD100787047E8
:1031B00030B50021054B002403EB01121568854250
:1031C00000D11460491C0229F6D330BDDC32002046
:1031D000891E8269921E8A4201D800207047C26A05
:1031E000408901FB002070472DE9F04180460F46E1
:1031F000D8F80050002F08D03946404603F0AAFA0C
:10320000022809D20120BDE8F0812E6916B1A86913
:10321000B04207D8012605E0411CF4D0A9698142DB
:10322000F1D83E463446641CA869A04204D8022462
:10323000022E01D20020E6E72146404603F08AFA3A
:1032400038B10128DFD0411CDDD0B442EBD10020E1
:10325000D9E74FF0FF3632462146284607F0E6FB15
:1032600028B927B122463946284607F0DFFB20B1AE
:1032700001280FD001242046C5E72C61D5E90501BE
:10328000891E884201D8401E6861287940F00100FB
:103290002871F0E73446EEE72DE9F0478A46DAF880
:1032A000009000F124080B222021404606F040F94E
:1032B00000252E46082728466D1C19F80040202CB2
:1032C00015D92F2C0DD05C2C0BD02E2C01D0BE424A
:1032D0001AD30B2F01D02E2C13D00620BDE8F08777
:1032E0006D1C19F805002F28FAD05C28F8D009EBDE
:1032F0000500CAF80000FEB198F80000E5281DD0CE
:103300001FE008260B27D6E7802C03D31148204462
:1033100010F8804C10A02146FFF742FF08B10620AC
:10332000DCE7A4F16100192801D8203CE4B2304662
:10333000761C08F80040BEE70620CFE7052088F895
:103340000000202C01D8042000E0002088F80B00A9
:103350000020C3E7E4FA0008222A2B2C3A3B3C3D2C
:103360003E3F5B5D7C7F000010B50446606880478F
:1033700022462068BDE81040014907F09DBC0000CE
:1033800069330008401E022810D2094901EB0011E0
:103390008889B0F5807F00D1002008B1401E80B23E
:1033A000888108B90020086000207047022070471B
:1033B000DC32002000280BD0026A002A0FD0537A9A
:1033C000082B0CD10968926A914208D100F016BB13
:1033D00003A340F27B3210A113A0FFF78DBD70470D
:1033E0002E2E2F4D6964646C6577617265732F545E
:1033F000686972645F50617274792F4C7749502FFD
:103400007372632F636F72652F697076342F6468EF
:1034100063702E63000000006E6574696620213DB4
:10342000204E554C4C000000417373657274696FF7
:103430006E2022257322206661696C6564206174A8
:10344000206C696E6520256420696E2025730A0052
:103450002DE9FC410546002D1AD02C6A002C20D005
:1034600000272784636B4FF03C02581C4FF48038D0
:103470004FF0010C4FF6FF761DD01E33B3FBF2F078
:10348000404500D3304683B26384002B11D012E054
:1034900030A340F2FE323DA143A0FFF72DFDBDE871
:1034A000FC812CA34FF4806249A13FA0FFF724FDCB
:1034B000F5E7A4F822C0A36B581C0CD01E33B3FB55
:1034C000F2F1414500D331468BB223830BB9A4F806
:1034D00018C0208BA083E36B581C0CD01E33B3FBA9
:1034E000F2F2424500D3324693B263830BB9A4F89B
:1034F0001AC0608BE083208B638B984201D303B1A9
:103500002783E07A10B1E06A01900DE094F828304A
:103510007F2B02D8FF20019006E0C02B03D36FF071
:103520007F40019000E00196206B009028B9A06ACE
:103530000199084040F0807000900A21204601F077
:103540008DFB6B4601AA04F12801284606F024FAF7
:10355000A5E700002E2E2F4D6964646C65776172BB
:1035600065732F54686972645F50617274792F4C6F
:103570007749502F7372632F636F72652F6970766E
:10358000342F646863702E63000000006468637009
:103590005F62696E643A206E6574696620213D2021
:1035A0004E554C4C00000000417373657274696F96
:1035B0006E2022257322206661696C656420617427
:1035C000206C696E6520256420696E2025730A00D1
:1035D000646863705F62696E643A20646863702037
:1035E000213D204E554C4C0070B505462C6A0821F3
:1035F000204601F033FB002204F12801284602F0A6
:1036000057FAA07AFF2801D2401CA0724FF4FA703A
:1036100040F2E731B1FBF0F0E08270BD10B5174821
:10362000046828E0216A09B3487AF8B1488C68B187
:10363000088C401C80B208844A8C904206D12046F7
:1036400001F0DEF9204600F0B1FA13E0C88B18B1A2
:10365000421ECA83012806D0888B38B1421E8A8355
:10366000012804D006E0204601F04EFC02E020468E
:1036700001F035FC2468002CD4D110BD800000205E
:103680002DE9F04105460C461646002D2CD0002CA5
:1036900035D0E068002806D05CA340F21F7269A113
:1036A00072A0FFF729FC2069002806D057A34FF429
:1036B000E46278A16DA0FFF71FFC00224FF49A7717
:1036C0003946104606F0E2F9E060002821D0408932
:1036D000B84206D24DA340F2277278A163A0FFF74B
:1036E0000BFC032E1BD117E048A340F21D7283A1EF
:1036F0005EA0FFF701FC6FF00F00BDE8F08143A36F
:1037000040F21E7285A159A0FFF7F6FB6FF005008D
:10371000F3E74FF0FF30F0E7607A032807D1A07A93
:10372000864F10B9FCF77EFD786078682060E0680D
:10373000406820610121017020694170216995F87C
:103740002800887020690027C770206805F0B4FC45
:103750002169486020690781206947812069C76025
:10376000082E0AD0042E08D0072E06D0032E07D12B
:10377000607A052801D0042802D121696868C860F0
:10378000206907612069476120698761002095F8F9
:103790002810814205D9062803D2291891F829104A
:1037A00000E00021236900F11C029954401C80B202
:1037B0001028ECD30020226900F12C015754401C42
:1037C00080B24028F7D30020226900F16C015754E1
:1037D000401C80B28028F7D321695948C1F8EC0019
:1037E000A7820020226900F1F0015054401C80B2F1
:1037F0004428F7D301223521204600F035FB31461D
:10380000204600F081FB002077E700002E2E2F4D90
:103810006964646C6577617265732F54686972645A
:103820005F50617274792F4C7749502F7372632FF8
:10383000636F72652F697076342F646863702E63CE
:1038400000000000646863705F6372656174655FA7
:103850006D73673A20646863702D3E705F6F757496
:10386000203D3D204E554C4C0000000041737365D7
:103870007274696F6E2022257322206661696C65FF
:1038800064206174206C696E6520256420696E2057
:1038900025730A00646863705F6372656174655FB5
:1038A0006D73673A20646863702D3E6D73675F6F58
:1038B0007574203D3D204E554C4C0000646863708B
:1038C0005F6372656174655F6D73673A20636865F5
:1038D000636B20746861742066697273742070620F
:1038E00075662063616E20686F6C642073747275F6
:1038F000637420646863705F6D73670064686370ED
:103900005F6372656174655F6D73673A206E65749D
:10391000696620213D204E554C4C00006468637060
:103920005F6372656174655F6D73673A2064686395
:103930007020213D204E554C4C000000E40000203A
:103940006382536310B50B4C2078002805D10AA37D
:10395000F32217A11FA0FFF7CFFA2078401EC0B2B4
:103960002070002804D1A0680BF0BAFF0020A060EE
:1039700010BD0000E40000202E2E2F4D6964646C01
:103980006577617265732F54686972645F50617204
:1039900074792F4C7749502F7372632F636F726560
:1039A0002F697076342F646863702E630000000006
:1039B000646863705F7063625F726566636F756E83
:1039C0007428293A20726566636F756E742065727B
:1039D000726F7200417373657274696F6E20222575
:1039E0007322206661696C6564206174206C696E65
:1039F0006520256420696E2025730A007CB5064683
:103A0000346A0C21204601F029F90422214630466F
:103A1000FFF736FE0546280021D104223221204638
:103A200000F022FAA06A05F047FB0146204600F0AC
:103A3000CDFA204600F092FBA08AF03081B2E06817
:103A400006F022FE0D484323CDE900600D480C4AE4
:103A5000E16880680BF078FF204600F015F8A07A46
:103A6000FF2801D2401CA07242F603104FF4FA71F5
:103A7000B0FBF1F0E08228467CBD00000412010892
:103A800008120108E400002010B50446002C03D001
:103A9000E068002809D00FE0BDE810400FA340F215
:103AA0006D721CA123A0FFF727BA0CA340F26E721F
:103AB0002AA120A0FFF720FA2069002806D107A339
:103AC00040F26F722FA11BA0FFF716FAE06808B151
:103AD00006F060FC0020E060206110BD2E2E2F4D0E
:103AE0006964646C6577617265732F546869726488
:103AF0005F50617274792F4C7749502F7372632F26
:103B0000636F72652F697076342F646863702E63FB
:103B100000000000646863705F64656C6574655FD5
:103B20006D73673A206468637020213D204E554CC8
:103B30004C000000417373657274696F6E2022251A
:103B40007322206661696C6564206174206C696E03
:103B50006520256420696E2025730A0064686370FF
:103B60005F64656C6574655F6D73673A2064686354
:103B7000702D3E705F6F757420213D204E554C4C6A
:103B800000000000646863705F64656C6574655F65
:103B90006D73673A20646863702D3E6D73675F6F65
:103BA000757420213D204E554C4C00002DE9FC4100
:103BB0008046D8F820400020A0620621204601F06F
:103BC0004DF8012221464046FFF75AFD07463800CE
:103BD0002FD102223921204600F046F9B8F82610EC
:103BE000204600F06DFA03223721204600F03CF910
:103BF00000251F4E2046715D00F086F96D1CEDB268
:103C0000032DF7D3204600F0A9FAA08AF03081B244
:103C1000E06806F039FD17484323CDE900801448D9
:103C2000154A401EE16880680BF08EFE2046FFF7C3
:103C30002BFFA07AFF2801D2401CA072A17A06298E
:103C400002D20120884000E03C2000EB4001C1EBA3
:103C5000C0104FF6FF7101EAC00000F2F3104FF4FC
:103C6000FA71B0FBF1F0E0823846BDE8FC8100005B
:103C7000E5000020041201080812010870B50B4885
:103C8000046800250EE0216A59B1C88A012803D9C9
:103C9000A0F10100C88204E003D1CD82204601F0EA
:103CA0004AF92468002CEED170BD0000800000208D
:103CB00070B5046A0021E1622163174E174DF07858
:103CC000002801D0E8686063307910B12869A063EA
:103CD00002E0606B4008A063707910B16869E0632E
:103CE00004E0606BC0EBC000C008E063606800697E
:103CF000A062B07930B1A86905F0DEF9E062012078
:103D0000E07200E0E172F079002803D0E86905F084
:103D1000D3F9206370BD0000F0000020506800203F
:103D200010B50446206A0C2100F098FF054B204690
:103D30001A46114605F030FE2046BDE81040FFF758
:103D400035BF00000412010870B505462C6A094809
:103D5000807800280CD00848806805F0ADF96062D2
:103D600060680069A0622846BDE8704000F0F8BEB7
:103D700070BD0000F00000205068002010B5154C08
:103D8000207800281ED1A068002805D012A3D922CF
:103D90001FA129A0FFF7B0F80BF06CFDA060B0B137
:103DA000017A41F02001017244222D490BF0E2FB1F
:103DB00043222B49A0680BF01FFC00222949A06870
:103DC0000BF08AFD2078401C2070002010BD4FF0C1
:103DD000FF3010BDE40000202E2E2F4D6964646C6E
:103DE0006577617265732F54686972645F506172A0
:103DF00074792F4C7749502F7372632F636F7265FC
:103E00002F697076342F646863702E6300000000A1
:103E1000646863705F696E635F7063625F7265663A
:103E2000636F756E7428293A206D656D6F72792005
:103E30006C65616B00000000417373657274696F9B
:103E40006E2022257322206661696C65642061748E
:103E5000206C696E6520256420696E2025730A0038
:103E6000041201087948000870B504460E4615464C
:103E7000A28AA81C1044442806D90AA34FF4AE62B3
:103E8000164917A0FFF738F8A08A411CA1822169C2
:103E9000F0300E54A08A411CA1822169F0300D54EB
:103EA00070BD00002E2E2F4D6964646C65776172C1
:103EB00065732F54686972645F50617274792F4C16
:103EC0007749502F7372632F636F72652F69707615
:103ED000342F646863702E63000000001C14010816
:103EE000417373657274696F6E2022257322206698
:103EF00061696C6564206174206C696E652025645D
:103F000020696E2025730A0070B504460D46A08A0C
:103F1000442806D306A340F27B5213A121A0FEF74A
:103F2000EBFFA08A411CA1822169F0300D5470BDC5
:103F30002E2E2F4D6964646C6577617265732F5402
:103F4000686972645F50617274792F4C7749502FA1
:103F50007372632F636F72652F697076342F646894
:103F600063702E6300000000646863705F6F70749C
:103F7000696F6E5F627974653A20646863702D3E84
:103F80006F7074696F6E735F6F75745F6C656E20B0
:103F90003C20444843505F4F5054494F4E535F4C70
:103FA000454E0000417373657274696F6E2022255F
:103FB0007322206661696C6564206174206C696E8F
:103FC0006520256420696E2025730A0070B50446BB
:103FD0000D46A08A001D442806D911A340F28A523A
:103FE0001DA12DA0FEF788FFA08A2A0E411CA182E8
:103FF0002169F0300A54A08A2A0C411CA18221694F
:10400000F0300A54A08A2A0A411CA1822169F030AA
:104010000A54A08A411CA1822169F0300D5470BD60
:104020002E2E2F4D6964646C6577617265732F5411
:10403000686972645F50617274792F4C7749502FB0
:104040007372632F636F72652F697076342F6468A3
:1040500063702E6300000000646863705F6F7074AB
:10406000696F6E5F6C6F6E673A20646863702D3E97
:104070006F7074696F6E735F6F75745F6C656E20BF
:104080002B2034203C3D20444843505F4F5054493E
:104090004F4E535F4C454E00417373657274696FA8
:1040A0006E2022257322206661696C65642061742C
:1040B000206C696E6520256420696E2025730A00D6
:1040C00070B504460D46A08A801C442806D90AA370
:1040D00040F28252164917A0FEF70EFFA08A2A0A64
:1040E000411CA1822169F0300A54A08A411CA1829E
:1040F0002169F0300D5470BD2E2E2F4D6964646C13
:104100006577617265732F54686972645F5061727C
:1041100074792F4C7749502F7372632F636F7265D8
:104120002F697076342F646863702E63000000007E
:10413000D8130108417373657274696F6E2022256C
:104140007322206661696C6564206174206C696EFD
:104150006520256420696E2025730A0010B5044689
:10416000002C03D02069002809D00FE0BDE81040E2
:1041700016A340F2827223A12BA0FEF7BDBE13A3AB
:1041800040F2837232A128A0FEF7B6FEA08A44282E
:1041900006D30EA340F2847238A123A0FEF7ACFE32
:1041A000A08AFF22411CA1822169F0300A5400221A
:1041B00004E0411CA1822169F0300A54A08A4428FD
:1041C00001D3810701D04428F3D310BD2E2E2F4DEB
:1041D0006964646C6577617265732F546869726491
:1041E0005F50617274792F4C7749502F7372632F2F
:1041F000636F72652F697076342F646863702E6305
:1042000000000000646863705F6F7074696F6E5FB8
:10421000747261696C65723A206468637020213D34
:10422000204E554C4C000000417373657274696FE9
:104230006E2022257322206661696C65642061749A
:10424000206C696E6520256420696E2025730A0044
:10425000646863705F6F7074696F6E5F74726169B8
:104260006C65723A20646863702D3E6D73675F6F92
:10427000757420213D204E554C4C0A0064686370D3
:104280005F6F7074696F6E5F747261696C65723AAA
:1042900020646863702D3E6F7074696F6E735F6F1A
:1042A00075745F6C656E203C20444843505F4F50EE
:1042B00054494F4E535F4C454E0A00002DE9F34FD1
:1042C00085B0002104910391C94AD160116106991A
:1042D00049892C2904D26FF0010007B0BDE8F08FA6
:1042E0000699496841604FF0F0080698B0F80890C8
:1042F000069E08E0A8EB00011FFA81F8A9EB000078
:104300001FFA80F9366816B170894045F2D91EB19E
:104310004746D6F804B02CE16FF00100DDE74FF01E
:10432000FF34B81C1FFA80FA7289781C824203D9C4
:104330000BEB0700407805E0306810B1406800786A
:1043400000E000200546342958D008DC002925D09B
:10435000012928D0032934D0332908D140E0352958
:1043600067D0362976D03A2970D03B296FD0002506
:104370003844801C87B2002D0FD000200290082CFA
:1043800006D39CA340F23662A8A1ADA0FEF7B4FD0F
:1043900097480C30005D002876D0D8E00020054614
:1043A0007F1EBFB2E4E7042809D092A340F2F65280
:1043B000ADA1A3A0FEF7A0FD6FF005008DE70624D8
:1043C000D6E70425042809D28AA340F2FB52A9A10A
:1043D0009BA0FEF791FD6FF005007EE70724C7E77D
:1043E000042809D083A340F209629FA194A0FEF79C
:1043F00083FD6FF0050070E70324B9E7012809D0B9
:104400007CA340F21762A0A18DA0FEF775FD6FF0AE
:10441000050062E7B8F1F00F09D076A340F2196207
:104420009CA187A0FEF768FD6FF0050055E700240A
:104430009EE701280CD06FA340F21D6292A180A0DC
:10444000FEF75AFD6FF0050047E703E010E01EE0BD
:1044500001248DE7042809D066A340F2216282A1DD
:1044600077A0FEF749FD6FF0050036E702247FE7ED
:1044700004280AD05FA340F225627BA170A0FEF75A
:104480003BFD6FF0050028E70FE0042470E70428E7
:1044900009D058A340F2296273A169A0FEF72CFD50
:1044A0006FF0050019E7052462E7042D01D22846C4
:1044B00000E004200190534602A93046019A05F01D
:1044C000D7FE01460198814202D06FF0010004E757
:1044D000042D1ED9A80709D046A340F23E6273A15D
:1044E00057A0FEF709FD6FF00500F6E640490120F0
:1044F0000C310855029804F0DFFD0146714840F880
:1045000024102D1FEDB20AF1040A1FFA8AFA641C66
:1045100035E7042D0BD0012D0ED036A34FF4C96220
:1045200069A147A0FEF7E8FC6FF00500D5E6029808
:1045300004F0C2FD029002E09DF8080002902C49B0
:1045400001200C3108555F48029940F82410708909
:10455000B8420ED8391A8FB2A9EB00001FFA80F9C1
:104560004F450ED2B9F1000F0BD03668C6B1D6F860
:1045700004B036B14F4504D21BF80710FF297FF471
:10458000CEAE1B4A0C321078E8B14E4800680021CC
:10459000117001280ED002280FD0032810D012E08D
:1045A00014A340F254624DA125A0FEF7A5FC6FF0C4
:1045B000050092E60120049005E00120039002E04E
:1045C000012003900490049830B1002004904FF033
:1045D0006C084FF0EC098BE6039830B10020039093
:1045E0004FF02C084FF06C0982E6002075E60000C1
:1045F000E40000202E2E2F4D6964646C6577617293
:1046000065732F54686972645F50617274792F4CBE
:104610007749502F7372632F636F72652F697076BD
:10462000342F646863702E63000000006368656364
:104630006B206465636F64655F69647800000000E7
:10464000417373657274696F6E2022257322206630
:1046500061696C6564206174206C696E65202564F5
:1046600020696E2025730A006C656E203D3D203464
:10467000000000006C656E203E3D206465636F6441
:10468000655F6C656E0000006C656E203D3D2031FD
:10469000000000006F7665726C6F616420696E20A7
:1046A00066696C652F736E616D6500006465636F8C
:1046B00064655F6C656E2025252034203D3D2030EB
:1046C0000000000050680020696E76616C6964200B
:1046D0006465636F64655F6C656E00006E65787419
:1046E000207062756620776173206E756C6C0000B7
:1046F0002DE9F84307463D6A0421284600F0AEFA4A
:10470000032229463846FEF7BBFF80465FEA0800D1
:104710002CD1022239212846FFF7A6FBF98C284626
:10472000FFF7CEFC032237212846FFF79DFB00242C
:104730001B4E2846315DFFF7E7FB641CE4B2032CF7
:10474000F7D32846FFF70AFDA88AF03081B2E8685F
:1047500005F09AFF12480097401E4323114AE9686A
:1047600080680BF0D5F82846FFF78EF9A87AFF2865
:1047700001D2401CA872A87A0A2803D24FF47A7199
:10478000484301E042F2107080B200F2F3104FF49F
:10479000FA71B0FBF1F0E8824046BDE8F883000012
:1047A000E5000020081201082DE9F84307463C6A9D
:1047B0000321204600F052FA032221463846FEF734
:1047C0005FFF80465FEA080039D102223921204686
:1047D000FFF74AFB4FF410712046FFF771FC0422EB
:1047E00032212046FFF740FBA06A04F065FC014639
:1047F0002046FFF7EBFB032237212046FFF734FB6F
:1048000000251B4E2046715DFFF77EFB6D1CEDB24F
:10481000032DF7D32046FFF7A1FCA08AF03081B228
:10482000E06805F031FF12480097401E4323114A0B
:10483000E16880680BF06CF82046FFF725F9A07A54
:10484000FF2801D2401CA072A07A0A2803D24FF49C
:104850007A71484301E042F2107080B200F2F31026
:104860004FF4FA71B0FBF1F0E0824046BDE8F88306
:10487000E5000020081201082DE9F04117464048E4
:1048800045682C6A7E684FF00008002C70D0207AB2
:1048900000286DD0606830B13AA34FF4D56247A1CB
:1048A0004BA0FEF729FB78892C2861D330780228A9
:1048B0005ED1002095F8281001E0401CC0B2814272
:1048C00009D9062807D22A18331892F829201B7F05
:1048D0009A424DD1F1E7706804F0EEFB21688842FE
:1048E00046D139462046FFF7E9FC08BB42484078EC
:1048F000F0B142480079052802D0062820D028E0EF
:10490000607A012806D0032813D0042811D0052886
:104910000FD02DE02846FFF7CBF995F82F000007C0
:1049200003D52846FEF760FE22E02846FEF790FDFC
:104930001EE02846FFF7BCF92846FEF789FD17E080
:10494000637A032B08D0012B06D0042B04D0052B4F
:1049500002D0022804D00BE02846FFF7E1F907E077
:10496000607A062804D1A4F816802846FFF7ECF9EF
:104970000CB1C4F804803846BDE8F04105F00ABD2A
:10498000483700202E2E2F4D6964646C6577617264
:1049900065732F54686972645F50617274792F4C2B
:1049A0007749502F7372632F636F72652F6970762A
:1049B000342F646863702E63000000007265706CB1
:1049C00079207761736E27742066726565640000D4
:1049D000417373657274696F6E202225732220669D
:1049E00061696C6564206174206C696E6520256462
:1049F00020696E2025730A00F00000205068002016
:104A00007CB505462C6A002C1ED0606A01902846B1
:104A100000F054FA06460021204600F01FF900205D
:104A20006062A062E0622063E063A0636063608410
:104A30002084E083A08356B1072221462846FEF752
:104A40001FFE06462EB124E06FF00F007CBD002053
:104A50007CBD042236212046FFF706FA019804F0B7
:104A60002BFB01462046FFF7B1FA2046FFF776FB05
:104A7000A08AF03081B2E06805F006FE0948009592
:104A8000432301AAE16880680AF042FF2046FEF74E
:104A9000FBFF054B28461A46114604F07DFF3046C1
:104AA0007CBD0000E4000020041201082DE9F84359
:104AB00007463C6A0521204600F0D0F80322214633
:104AC0003846FEF7DDFD80465FEA08002DD1022260
:104AD00039212046FFF7C8F9F98C2046FFF7F0FA94
:104AE000032237212046FFF7BFF900251B4E204641
:104AF000715DFFF709FA6D1CEDB2032DF7D3204667
:104B0000FFF72CFBA08AF03081B2E06805F0BCFD15
:104B100012480097401E432304F12402E168806894
:104B20000AF0F6FE2046FEF7AFFFA07AFF2801D27A
:104B3000401CA072A07A0A2803D24FF4FA614843BD
:104B400001E044F6206080B200F2F3104FF4FA71F5
:104B5000B0FBF1F0E0824046BDE8F883E5000020BC
:104B60002DE9FC418046D8F820400121204600F084
:104B700075F8032221464046FEF782FD07463800BD
:104B800047D1022239212046FFF76EF9B8F82610E6
:104B90002046FFF795FA042232212046FFF764F9F8
:104BA000A06A04F089FA01462046FFF70FFA0422B2
:104BB00036212046FFF758F9606A04F07DFA014675
:104BC0002046FFF703FA032237212046FFF74CF96E
:104BD00000251F4E2046715DFFF796F96D1CEDB262
:104BE000032DF7D32046FFF7B9FAA08AF03081B23F
:104BF000E06805F049FD17484323CDE900801448DB
:104C0000154A401EE16880680AF09EFE2046FEF7C5
:104C10003BFFA07AFF2801D2401CA072A17A06298E
:104C200002D20120884000E03C2000EB4001C1EBB3
:104C3000C0104FF6FF7101EAC00000F2F3104FF40C
:104C4000FA71B0FBF1F0E0823846BDE8FC8100006B
:104C5000E50000200412010808120108427A8A4285
:104C600003D0417200218172C182704770B5054640
:104C70006FF00F04002D0CD095F82F00C00711D055
:104C80002C6AE88C4FF0FF36B0F5107F13D2304617
:104C900070BD24A340F2D62230A134A0FEF72CF937
:104CA000204670BD1FA340F2D7223AA12FA0FEF7E5
:104CB00023F9204670BD002C1ED0E06830B119A346
:104CC0004FF43C723CA129A0FEF716F9606830B1A0
:104CD00014A340F2F1223EA124A0FEF70DF9207AA0
:104CE00008B1FEF72FFE40212046FBF7C6FAFFF77A
:104CF00045F850B1304670BD402004F017FB044623
:104D00000CB12C62EFE7304670BD012020722846BE
:104D1000FEF74CFF0028F7D0284600F063F8304635
:104D200070BD00002E2E2F4D6964646C6577617232
:104D300065732F54686972645F50617274792F4C87
:104D40007749502F7372632F636F72652F69707686
:104D5000342F646863702E63000000006E65746910
:104D60006620213D204E554C4C0000004173736578
:104D70007274696F6E2022257322206661696C65EA
:104D800064206174206C696E6520256420696E2042
:104D900025730A006E65746966206973206E6F74EE
:104DA0002075702C206F6C64207374796C65207092
:104DB0006F72743F000000007062756620705F6F54
:104DC0007574207761736E27742066726565640060
:104DD0007265706C79207761736E277420667265D6
:104DE0006564000010B5002817D0046A002C13D0A9
:104DF000606830B10DA340F24F521AA11EA0FEF719
:104E00007BF800212046FFF729FF207A002803D0F5
:104E1000FEF798FD0020207210BDBDE8104003A3EE
:104E200040F242521EA114A0FEF766B82E2E2F4D5E
:104E30006964646C6577617265732F546869726424
:104E40005F50617274792F4C7749502F7372632FC2
:104E5000636F72652F697076342F646863702E6398
:104E6000000000007265706C79207761736E2774A2
:104E70002066726565640000417373657274696FC2
:104E80006E2022257322206661696C65642061743E
:104E9000206C696E6520256420696E2025730A00E8
:104EA000646863705F73746F703A206E65746966CE
:104EB00020213D204E554C4C0000000000280CD015
:104EC000006A50B1407A0A2805D0052803D004288A
:104ED00001D000207047012070470020704710B5B6
:104EE000046A617A012903D00A2901D005290AD16F
:104EF000FFF7DCFD608B218C401A022803DB00EBFE
:104F0000D0704008A08310BD10B5046A617A0129F1
:104F100005D00A2903D0052901D004290AD1FFF7B9
:104F2000E7FB608C218C401A022803DB00EBD07079
:104F30004008E08310BD10B50446216A4A7A0C2A65
:104F40000FD0062A0DD0012A10D0082A1ED0032A1D
:104F50002ED1887A022826D22046BDE81040FFF7DD
:104F600023BC2046BDE81040FEF720BE887A052805
:104F700004D82046BDE81040FFF7F2BD2046FFF7F9
:104F80003FFD2046BDE81040FEF710BE887A01289C
:104F900004D82046BDE81040FEF726BB2046BDE8F9
:104FA0001040FEF755BA2046BDE81040FEF7FEBDA2
:104FB00010BD70B5044626680021204600F0DFF8D9
:104FC00000281DD13046E16904F048FC0546B5B91A
:104FD000206A0178A9B1C17A01F03F01A171C17ABB
:104FE000090705D40B2204F1240104F0EBF830B1D9
:104FF0000021204600F007F80546002DE2D02846A3
:1050000070BD0425FBE72DE9F04705460F462C68E7
:10501000D5F8148008F12008E869002802D0B8F516
:10502000001F02D30420BDE8F087A189B8FBF1F28C
:1050300001FB1281002966D1401CE861A9694FF08B
:10504000000971B1A0896289B8FBF0F0521E1042CC
:1050500059D1284601F07EFB0646012E09D80220D0
:10506000E1E72089B0EB581F4DD8C5F81C9004200B
:10507000D9E7701C14D0A069B0423ED897B1284639
:10508000A969FEF7B1F8064630000FD0012E0FD007
:10509000701C0FD0204605F0B3FD68B10120C2E7B7
:1050A0000120C0E7C5F81C900420BCE70720BAE740
:1050B0000220B8E70120B6E7A289002104F13400FC
:1050C00004F036FA002731462046FEF781F82063C7
:1050D0004FF001090BE084F80390204605F090FDA5
:1050E00008B101209FE77F1C206B401C2063608972
:1050F000B842F0D8206BC01B2063AE613146204619
:10510000FEF766F8E861C5F81480A089B8FBF0F1F5
:1051100000FB1180204434302862002083E770B502
:1051200004460D460420266821E0304604F096FB34
:1051300000BB226A1178B1B1D27A02F03F02A271AB
:10514000E5290AD02E2908D00F2A06D022F0200106
:1051500008290AD00021A9420CD000212046FFF7DF
:1051600052FF20B106E0042004E00121F3E7E169E9
:105170000029DAD1002801D00021E16170BD2DE9BC
:10518000F04107460E463D68B6F5001F01D2F00615
:1051900002D00220BDE8F0817E61BC681CB928788D
:1051A000032800D3AC6A2CB1B5F80A80A88908FBA3
:1051B00000F81AE02889B0EB561F01D80220E9E771
:1051C000A86AF86118E02146384601F0C3FA04469F
:1051D000601C06D0022C02D3A869A04203D802208A
:1051E000D8E70120D6E7A6EB08064645EBD22146D4
:1051F0002846FDF7EDFFF861BC61F86970B1A98937
:10520000B6FBF1F10844F861A889B6FBF0F100FBA8
:1052100011602844343038620020BBE70220B9E72F
:1052200010B50021084A135C002B0AD1012111544A
:10523000111802EB8000097A40680268084690471E
:105240000146084610BD0000FC32002030B4054B7A
:105250001C1803EB8000247A40680369204630BCA8
:1052600018470000FC32002030B4054C251804EB30
:1052700080002D7A406884682846A44630BC604788
:10528000FC32002004490A1801EB8000127A4068C1
:105290004168104608470000FC32002030B4054C3D
:1052A000251804EB80002D7A4068C4682846A4467F
:1052B00030BC6047FC32002070B505460C46A007A4
:1052C00006D006A34FF4CE7210A118A0FDF714FE6D
:1052D000A86800682060A868046070BD2E2E2F4D5D
:1052E0006964646C6577617265732F546869726470
:1052F0005F50617274792F4C7749502F7372632F0E
:10530000636F72652F6D656D702E63006D656D70D6
:105310005F667265653A206D656D2070726F7065AD
:10532000726C7920616C69676E65640041737365A6
:105330007274696F6E2022257322206661696C6524
:1053400064206174206C696E6520256420696E207C
:1053500025730A0010B580680468002C0CD0216801
:105360000160A00706D005A34FF4A4720FA118A0F6
:10537000FDF7C2FD204610BD002010BD2E2E2F4D82
:105380006964646C6577617265732F5468697264CF
:105390005F50617274792F4C7749502F7372632F6D
:1053A000636F72652F6D656D702E63006D656D7036
:1053B0005F6D616C6C6F633A206D656D702070720B
:1053C0006F7065726C7920616C69676E656400004E
:1053D000417373657274696F6E2022257322206693
:1053E00061696C6564206174206C696E6520256458
:1053F00020696E2025730A0070B505460024094E09
:1054000004EB440006EBC000017D29B18068A8428E
:1054100002D1204600F03CF9641CE4B20A2CEFD320
:1054200070BD0000706800202DE9F74F84B0804601
:105430000A20029083460A27002401904FF00009B9
:105440004FF0000A00200090524904EB440001EBA9
:10545000C0060390357D0A2F01D1002D18D0002DF4
:1054600023D0012D08D0022D06D24BA340F22512E5
:1054700057A167A0FDF740FDB8F1000F0AD0D8F89A
:1054800000007168884205D160B207B0BDE8F08FB6
:1054900067B20AE0012D14D0022D06D3708A00995C
:1054A000884202D34FFA84FB0090641CE4B20A2CB9
:1054B000CAD305984FF0FF3180071CD40A2F13D0B0
:1054C00015E03448039950F8310030B1708A4845EE
:1054D000EBD361B201918146E7E7708A5045E4D38E
:1054E00061B202918246E0E70598C00703D00A2F17
:1054F00003DAFCB22BE00846C7E7BBF10A0F0FDA6C
:105500000BF0FF04234804EB440150F8310090B144
:1055100021A340F26F1248A13DA0FDF7EDFC0AE087
:1055200002980A2802DA0298C4B204E001980A2814
:105530002EDA0198C4B20A2C06D317A340F28112C6
:1055400043A133A0FDF7D8FC204600F0A1F80A2CB7
:1055500006D311A340F285123DA12DA0FDF7CCFC8E
:105560000C4804EB440100EBC105287D30B10AA3CF
:105570004FF4C3723BA126A0FDF7BEFCB8F1000FAB
:1055800002D0D8F8000068600020688260B27CE732
:1055900008467AE7706800202E2E2F4D6964646CEF
:1055A0006577617265732F54686972645F506172C8
:1055B00074792F4C7749502F7372632F636F726524
:1055C0002F697076342F6574686172702E630000E5
:1055D0007374617465203D3D204554484152505FCD
:1055E00053544154455F50454E44494E47207C7CBE
:1055F000207374617465203E3D20455448415250EB
:105600005F53544154455F535441424C45000000A0
:10561000417373657274696F6E2022257322206650
:1056200061696C6564206174206C696E6520256415
:1056300020696E2025730A006172705F7461626C6C
:10564000655B695D2E71203D3D204E554C4C000040
:1056500069203C204152505F5441424C455F5349C0
:105660005A4500006172705F7461626C655B695DD0
:105670002E7374617465203D3D204554484152505D
:105680005F53544154455F454D505459000000004C
:1056900070B5084D00EB4004002655F83400002892
:1056A00003D004F077FE45F8346005EBC4000675BE
:1056B00070BD0000706800202DE9F04387B00746F8
:1056C0000D46002D09D07C684FF480782088404535
:1056D00013D12079062810D109E026A34FF42272B5
:1056E00032A136A0FDF708FC07B0BDE8F083607971
:1056F000042802D16088082803D0384604F04AFE06
:10570000F2E7D4F80E000690A0690590696819B117
:10571000884203D1012602E0002600E000260EB1F7
:10572000012300E0022304F10802914606A928465D
:1057300000F0B2FBE088404503D0B0F5007F14D103
:105740000FE096B106AACDE901920221281D05F1CC
:1057500029030391009019464A46284600F09EFA14
:1057600003E006A92846FDF725FE384604F012FEA0
:10577000BAE700002E2E2F4D6964646C6577617264
:1057800065732F54686972645F50617274792F4C2D
:105790007749502F7372632F636F72652F6970762C
:1057A000342F6574686172702E6300006E657469D1
:1057B0006620213D204E554C4C000000417373651E
:1057C0007274696F6E2022257322206661696C6590
:1057D00064206174206C696E6520256420696E20E8
:1057E00025730A00FEB505460E461446002D06D167
:1057F00043A340F21B3250A153A0FDF77DFB36B905
:105800003FA34FF447725AA14FA0FDF775FB20004C
:1058100006D13BA340F21D3258A14BA0FDF76CFB13
:105820002946206802F066FB08B1584B3DE020682D
:10583000C0F303110E2923D0A9686B6800EA0102A6
:105840000B409A4208D080B2A0F57E41A93903D01E
:10585000E868A0B305F10C044D4B4E4A187800EBF4
:10586000400102EBC1010F7D022F2CD3276849684C
:105870008F4228D102463146284600F08DF8FEBD01
:1058800001208DF8040000208DF805005E208DF8C1
:105890000600607800F07F008DF80700A0788DF892
:1058A0000800E0788DF8090001AB4FF4006000902B
:1058B00005F129023146284600F0CEFBFEBDFFE788
:1058C0006FF00300FAE7002101EB410002EBC0009A
:1058D000077D022F0AD327684068874206D1CAB2E3
:1058E0001A703146284600F057F8E7E7491C49B2DC
:1058F0000A29E9DB32462146284600F0D9F8DDE7DF
:105900002E2E2F4D6964646C6577617265732F5418
:10591000686972645F50617274792F4C7749502FB7
:105920007372632F636F72652F697076342F65749D
:10593000686172702E6300006E6574696620213D97
:10594000204E554C4C000000417373657274696FB2
:105950006E2022257322206661696C656420617463
:10596000206C696E6520256420696E2025730A000D
:105970007120213D204E554C4C000000697061643F
:10598000647220213D204E554C4C000080FB0008E5
:10599000F8000020706800202DE9F84306460F4605
:1059A00015461E4805EB450100EBC104207D022889
:1059B00006D21BA34FF43B7227A133A0FDF79CFA3C
:1059C000164A05EB4501207D02EBC1050C35022886
:1059D00018D1618A4FF00308B1F58E7F07D9211DD8
:1059E000304600F013FA68B984F814800AE0B1F583
:1059F000877F07D32A46211D304600F00DFA08B9EB
:105A000084F814804FF4006000902B4606F12902C0
:105A10003946304600F020FBBDE8F883706800206E
:105A20002E2E2F4D6964646C6577617265732F54F7
:105A3000686972645F50617274792F4C7749502F96
:105A40007372632F636F72652F697076342F65747C
:105A5000686172702E6300006172705F7461626CC5
:105A6000655B6172705F6964785D2E7374617465E3
:105A7000203E3D204554484152505F5354415445C7
:105A80005F535441424C4500417373657274696FB2
:105A90006E2022257322206661696C656420617422
:105AA000206C696E6520256420696E2025730A00CC
:105AB0002DE9FC5F8246894617460AF129000190CC
:105AC0004FF0FF344FF0000B5146D9F8000002F0C0
:105AD00011FA98B9D9F80000C0F303110E290DD0BE
