:020000040800F2
:1000000090DA00209D010008B1280008832600082E
:10001000AD28000849060008DD380008000000008F
:1000200000000000000000000000000095370008FC
:100030001D07000800000000ED28000897370008A1
:10004000B7010008B7010008B7010008B7010008B0
:10005000B7010008B7010008B7010008B7010008A0
:10006000BD0A0008B7010008B7010008B701000881
:10007000B7010008B7010008B7010008B701000880
:10008000B7010008B7010008B7010008B701000870
:10009000B7010008B7010008B7010008B701000860
:1000A000B7010008B7010008B7010008B701000850
:1000B000B7010008B7010008B7010008B701000840
:1000C000B7010008B7010008B7010008B701000830
:1000D000B7010008B7010008B7010008B701000820
:1000E000750A0008B7010008B7010008B701000849
:1000F000B7010008B7010008B7010008B701000800
:10010000B7010008B7010008B7010008B7010008EF
:10011000B7010008B7010008B7010008B7010008DF
:10012000B7010008B7010008B7010008B7010008CF
:10013000B7010008B7010008B7010008B7010008BF
:10014000B7010008B7010008B7010008B7010008AF
:10015000B7010008B7010008B7010008B70100089F
:10016000B7010008B7010008B7010008B70100088F
:10017000B7010008B7010008B7010008000000003F
:10018000B7010008B7010008DFF80CD000F062F9F1
:1001900000480047D9B5000890DA0020064880479B
:1001A00006480047FEE7FEE7FEE7FEE7FEE7FEE75C
:1001B000FEE7FEE7FEE7FEE7793800088901000860
:1001C0002DE9F05F0546002092469B46884606468C
:1001D000814640241BE0284641464746224600F01F
:1001E000F0F853465A46C01A914110D311461846AA
:1001F000224600F0D7F82D1A67EB01084F46224639
:100200000120002100F0CEF817EB00094E41201E1E
:10021000A4F10104DFDC484631462A464346BDE8E6
:10022000F09F00000649074A0868504343F239022C
:10023000104408604008704701490860704700009A
:10024000280100206D4EC64140EA01039B0703D000
:1002500009E008C9121F08C0042AFAD203E011F805
:10026000013B00F8013B521EF9D27047D2B201E0C7
:1002700000F8012B491EFBD270470022F6E710B5AB
:1002800013460A4604461946FFF7F0FF204610BD04
:1002900030B505462A460B4612F8010B13F8014B00
:1002A00008B1A042F8D01CB1002802D06D1CF1E7C3
:1002B000284630BD10B5044604E00B7800F8013B39
:1002C00003B1491C521EF8D2204610BDCAB2401ECE
:1002D00010F8011F8A4202D00029F9D1002070478E
:1002E000421C10F8011B0029FBD1801A704710B581
:1002F000002200E0521C835C8C5CA34201D1002BE5
:10030000F8D1D8B2E1B2401A10BD30B50446002091
:10031000034600E05B1C934203D2E05CCD5C401BD3
:10032000F8D030BD30B505460020034600E05B1C28
:10033000934205D2EC5CC85C201A01D1002CF6D1A6
:1003400030BD10B5484304460BF072F9002805D0C3
:100350000021002C02D0641E0155FAE710BD70B5D3
:10036000064603F007FB046805460A2200213046D2
:1003700000F037F82C6070BD30B50B460146002008
:100380002022012409E021FA02F59D4205D303FA57
:1003900002F5491B04FA02F52844151EA2F10102D8
:1003A000F1DC30BD202A04DB203A00FA02F1002003
:1003B00070479140C2F1200320FA03F319439040A3
:1003C0007047202A04DB203A21FA02F0002170470E
:1003D00021FA02F3D040C2F12002914008431946AD
:1003E00070472DE9F04791460F46804604460026A7
:1003F00014F8015B2DB100F03FF80068405DC007C4
:10040000F6D12B2D02D02D2D18D0641E4A46394628
:10041000204600F035F827B13968A14201D1C7F86C
:10042000008071054FF002040BD54042002803DD27
:1004300003F0A0FA0460A007BDE8F08746F48066E8
:10044000E4E70028F8DA03F095FA04606FF0004062
:10045000F2E70000064C074D06E0E06840F00103BB
:1004600094E8070098471034AC42F6D3FFF790FEAB
:1004700098530108B853010800487047D850010844
:100480002DE9F05F82460078002715468B460AF179
:100490000104B946302801D09DB113E014F8010BD6
:1004A0000127782803D0582801D045B10AE00DB1C2
:1004B000102D07D10027102514F8010B02E00825A4
:1004C00000E00A250026B0460EE005FB080005FB0B
:1004D00006F1012701EB10461FFA80F8B6F5803FC0
:1004E00000D3B94614F8010B294600F018F800288B
:1004F000EBDABBF1000F05D00FB1641E00E05446EB
:10050000CBF80040B9F1000F06D003F033FA022116
:100510000160C81EBDE8F09F48EA0640FAE73A28A5
:1005200000D2303820F02002412A01D3A2F1370056
:10053000884201D34FF0FF30704770B58C1810F827
:10054000015B15F0070301D110F8013B2A1106D118
:1005500010F8012B03E010F8016B01F8016B5B1E32
:10056000F9D12B0705D40023521E0DD401F8013B0D
:10057000FAE710F8013BCB1A921C03E013F8015B79
:1005800001F8015B521EF9D5A142D8D3002070BDFD
:1005900010B504462146024801F056FD10BD00008A
:1005A0005832002010B5044801F061FD042801D044
:1005B000012010BD0020FCE75832002010B50024B7
:1005C00000F00CF8012801D0012010BD024801F014
:1005D00062FD04462046F8E75832002008B50120A5
:1005E00000909DF8000008BD2DE9F84304460D4633
:1005F00016461F464FF0000833462A462146054856
:10060000009701F0E3FD08B14FF001084046BDE856
:10061000F8830000583200202DE9F84304460D46C7
:1006200016461F464FF0000833462A462146054825
:10063000009701F0F1FE08B14FF001084046BDE817
:10064000F88300005832002000BFFEE710B50448D0
:10065000044A06CA06C00121083808F0BFFF10BDD1
:10066000100100204C50010810B5044600F0AEFF08
:1006700006490968401AB0F5FA7F06D300F0A6FFD4
:1006800002490860204600F003F810BD0800002071
:100690003EB504461E480078012804D002280DD03B
:1006A000052832D12AE000206060A060E0600220CE
:1006B00017490870204605F03FFA27E0204605F06C
:1006C00091FB18B103201249087016E0256AA87A38
:1006D000042812DD04200E490870204605F00AFBAC
:1006E0000C4802906FF07F4001900B4800906B46E1
:1006F00001AA02A920460BF08AFC07E0204605F07B
:10070000F9FA00200249087000E000BF00BF3EBDBA
:100710000A010020C0A8010BC0A8010170470168B0
:1007200001F58051896941F00202016801F58051AB
:100730008A617047016801F58051896941F400526E
:10074000016801F580518A617047000008B50849C9
:100750000968C9084FF47A72B1FBF2F14143009184
:1007600000BF00BF00994A1E00920029F9D108BDC0
:100770002C00002038B5044600200090206800F5C9
:100780008050806940F48011206800F580508161BC
:10079000206800F58050806900900120FFF7D6FFA7
:1007A0000099206800F58050816138BD30B503465E
:1007B0001479557944EA0520084C0C442064D47817
:1007C0002406957844EA0544557844EA05241578CA
:1007D00044EA0500014C0C44606430BD00800240D6
:1007E00070B5AEB004460E46002526B14FF4006148
:1007F000E160C900A1600020119012901390149044
:1008000015901690E06918B94FF48060179001E0D8
:10081000002017904FF400701890002019901A9043
:100820001B901C901D9040201E9000201F90209037
:10083000219022902390249025902690802027902C
:100840000020289029902A902B902C902D902068A1
:10085000056871480540DDE9110108431399084313
:1008600014990843A1680843159908431699084349
:10087000E1680843179908431899084319990843F0
:100880001A9908431B9908430543206805602068AE
:100890000568012000F076F920680560DDE91C019B
:1008A00008431E9908431F9908432099084321993A
:1008B0000843229908432399084321684860206827
:1008C0004568012000F05EF92068456024982168A1
:1008D000886025982168C860206885694FF6417056
:1008E0000540DDE9261040EA01402899084329998E
:1008F00008432A9908432B990843054320688561DA
:1009000020688569012000F03DF920688561DDE9F6
:100910002C0108432168C8612068C569012000F0E6
:1009200031F92068C561002001904FF000700290FD
:10093000002003904FF400100490002005900690D2
:100940000790089004200990C0050A9040120B906F
:1009500080010C9040120D9080200E9000200F908E
:100960001090206800F5805085692C480540DDE92D
:100970000101084303990843049908430599084372
:1009800006990843079908430899084309990843B9
:100990000543206800F580508561206800F580508F
:1009A0008569012000F0EEF8206800F5805085612F
:1009B000DDE90A0108430C9908430D9908430E9993
:1009C00008430F9940EA81001099084340F4000160
:1009D000206800F580500160206800F580500568AF
:1009E000012000F0CFF8206800F580500560A06974
:1009F000012809D1206800F58050C06908490843E2
:100A0000216801F58051C861002120466269FFF725
:100A1000CDFE2EB070BD00000F8120FF233FDEF819
:100A20004000010038B504460020009020680068AE
:100A300040F00400216808602068006800900120F0
:100A4000FFF784FE00982168086038BD38B5044679
:100A5000002000902068006840F0080021680860CD
:100A60002068006800900120FFF770FE0098216860
:100A7000086038BD10B50E48006800F4004028B189
:100A80000B48006840F0200009490860094801F05F
:100A9000EEFA082804D1074801F0E9FAFF2803D04C
:100AA00001200549088002E000200349088010BDAC
:100AB000143C0140583200201E00002008B51448A4
:100AC000006800F0040028B11148006840F00400FC
:100AD0000F490860002000906A4612210D4800F07E
:100AE00015FB009800F4005088B16A4610210948AF
:100AF00000F00CFB009800F0010020B142F2010070
:100B00000549088003E04FF400500349088008BD00
:100B1000143C0140103200201C00002030B5044677
:100B20000D4600222946204600F002F830BD0000A4
:100B3000F0B50346012500241148407A01281CDA4B
:100B400000200F4E767A0E4FB8553846467A001D73
:100B500040F82630001F467A083082553E46707AAB
:100B6000461C7E72044604F1300008703A2048703A
:100B70002F2088700020C87000252846F0BD000096
:100B8000FC32002070B5044600F020FD06462546E4
:100B9000681C10B104480078054400BF00F016FD41
:100BA000801BA842FAD370BD2800002070B504460F
:100BB0000D461646002200BF94F84500012801D1D9
:100BC000022070BD012084F8450000BF022084F897
:100BD0004400A56200221FE005EB42114FF00040E7
:100BE000086044F2F4504860C2EBC21000EB4000D1
:100BF00006EB80008860A069012803D1486820F0D6
:100C000000404860581E904204D905EB4210203045
:100C1000C86000E0CD60521C9A42DDD3206800F528
:100C20008050C560012084F8440000BF002084F893
:100C3000450000BF00BFC4E770B504460D46164628
:100C4000002200BF94F84500012801D1022070BDA8
:100C5000012084F8450000BF022084F84400E562CA
:100C600000221BE005EB42114FF480100860C2EB3C
:100C7000C21000EB400006EB80008860E06918B904
:100C8000086840F440000860581E904204D905EB03
:100C900042102030C86000E0CD60521C9A42E1D37F
:100CA000206800F580500561012084F8440000BFF1
:100CB000002084F8450000BF00BFC8E701460022BD
:100CC00000BF91F84500012801D1022070470120A2
:100CD00081F8450000BF022081F84400886A00685E
:100CE00000F00040002838D1886A006800F4807065
:100CF000F0B1886B401C8863886B012801D1886A39
:100D000008638B6A4B63886A0068C0F30D40021F5A
:100D1000CA63086B83680B64886AC06888620120B4
:100D200081F8440000BF002081F8450000BFCDE7F6
:100D3000886A006800F4007048B1886A086300237C
:100D40004B6301238B63886AC068886205E0886B07
:100D5000401C8863886AC0688862012081F844006A
:100D600000BF002081F8450000BF0120AEE7000071
:100D70002DE9FC4104460025002001909D4E0027EE
:100D8000804614B90120BDE8FC8194F8440028B9DC
:100D9000002084F84500204600F03AF900BF00200A
:100DA00000909548006840F48040934908600846E8
:100DB000006800F48040009000BF00BF8F480068CA
:100DC00020F400008D49086008460068216A084345
:100DD0008A490860206800F58050006840F00101F1
:100DE000206800F58050016000F0F0FB07460FE03E
:100DF00000F0ECFBC01BB0F5FA7F09D9032084F8A2
:100E0000440000BF002084F8450000BF0320BAE77B
:100E1000206800F58050006800F001000028E7D14C
:100E20002068056925F01C0500F094FD064674480D
:100E3000864205D37348864202D245F008051AE07F
:100E40007048864205D36B48864202D245F00C05B5
:100E500011E06848864203D36B48864200D20AE01C
:100E60006948864205D36948864202D245F00405A6
:100E700001E045F01005206805614FF400420021B3
:100E8000204600F054FA48B14FF001084146204690
:100E9000FFF7A6FC012084F8440074E7FF20FFF769
:100EA00071FE6068002871D000F090FB074600BF1B
:100EB00001AA0121204600F029F900F087FBC01BA0
:100EC00041F2883188420FD94FF00108414620464F
:100ED000FFF786FC012084F8440000BF002084F85E
:100EE000450000BF03204EE7019800F004000428ED
:100EF000DED182020021204600F019FA48B14FF0FD
:100F0000010841462046FFF76BFC012084F84400AD
:100F100039E700F05BFB074600BF01AA012120462C
:100F200000F0F4F800F052FBC01B41F28831884217
:100F30000FD94FF0010841462046FFF751FC012030
:100F400084F8440000BF002084F8450000BF03205F
:100F500019E7019800F020002028DED101AA102115
:100F6000204600F0D3F848B14FF001084146204632
:100F7000FFF736FC012084F8440004E7019800F0F4
:100F8000040020B14FF40061E16002E00DE00021B7
:100F9000E160019800F00200022802D10021A16066
:100FA0001EE04FF48041A1601AE0E068C0F3CF007A
:100FB000A168C1F34F0140EA01020021204600F080
:100FC000B6F948B14FF0010841462046FFF708FC4A
:100FD000012084F84400D6E640F6FF70FFF7D2FD0A
:100FE00041462046FFF7FCFB012084F84400002026
:100FF000C9E60000008793034438024004380140EA
:10100000002D3101C00E160200E1F50580D1F00877
:1010100010B586B0044637492068884268D100BFC1
:1010200000BF002000903448006840F00070324952
:1010300008600846006800F00070009000BF00BF24
:1010400000BF002000900846006840F08060086003
:101050000846006800F08060009000BF00BF00BF3D
:10106000002000900846006840F0006008600846D4
:10107000006800F00060009000BF00BF00BF0420C7
:1010800001900220029000200390032004900B2086
:10109000059001A9194800F093F93E200190022023
:1010A000029000200390032004900B20059001A9DA
:1010B000134800F085F98F20019002200290002053
:1010C0000390032004900B20059001A90D4800F027
:1010D00077F943F60340019002200290002003902C
:1010E000032004900B20059001A9074800F068F93F
:1010F00006B010BD008002403038024000100240AF
:101100000008024000000240000402402DE9F041C6
:1011100004460E4617460025A84694F84400822847
:1011200002D10220BDE8F081822084F844002068CA
:10113000056905F01C05208A4FF4784101EAC020BA
:101140000543481100EA8610054325F0020545F0E5
:1011500001052068056100F039FA804612E000F0D0
:1011600035FAA0EB0800B0F5803F09D3012084F8E0
:10117000440000BF002084F8450000BF0320D1E7F1
:101180002068056905F001000028E8D12068406961
:1011900080B23860012084F844000020C2E710B516
:1011A000044600BF94F84500012801D1022010BD7B
:1011B000012084F8450000BF022084F84400204646
:1011C000FFF744FC2046FFF72DFC2046FFF7D2FA3C
:1011D0002046FFF7AFFA2046FFF7A1FA012084F876
:1011E000440000BF002084F8450000BF00BFDEE7D8
:1011F00070B5024600230025002400BF92F8450088
:10120000012801D1022070BD012082F8450000BFF5
:10121000022082F8440049B9012082F8440000BF4E
:10122000002082F8450000BF0120ECE7D06A00688A
:1012300000F0004048B1122082F8440000BF0020B6
:1012400082F8450000BF0120DDE740F2F450814202
:1012500008D9B1FBF0F3B1FBF0F600FB161010B1AA
:101260005B1C00E00123012B13D1D06A006840F021
:101270004050D66A3060C1F30C00D66A7060D06A04
:10128000006840F00040D66A3060D06AC068D06222
:1012900032E000242EE0D06A006820F04050D66A88
:1012A00030602CB9D06A006840F08050D66A306057
:1012B00040F2F450D66A7060581EA04210D1D06A35
:1012C000006840F00050D66A3060581EC0EBC01075
:1012D00000EB4000A1EB8005C5F30C00D66A7060FE
:1012E000D06A006840F00040D66A3060D06AC068BA
:1012F000D062641C9C42CED3106800F580504069D7
:1013000000F0040048B10426106800F580504661E2
:101310000026106800F580504660012082F84400E5
:1013200000BF002082F8450000BF00BF6BE72DE939
:10133000F04104460E4617460025A84694F844009E
:10134000422802D10220BDE8F081422084F8440006
:101350002068056905F01C05208A4FF4784101EAF0
:10136000C0200543481100EA8610054345F00205F8
:1013700045F00105B8B2216848612068056100F0B8
:1013800025F9804612E000F021F9A0EB0800B0F545
:10139000803F09D3012084F8440000BF002084F876
:1013A000450000BF0320CEE72068056905F0010075
:1013B0000028E8D1012084F844000020C3E70000A1
:1013C000F8B502460B460025002400200021DCE091
:1013D000012606FA01F51E6806EA0504AC4273D13F
:1013E0005E68022E02D05E68122E13D1CF0802F181
:1013F000200656F827004E07F70E0F26BE40B043D2
:101400004F07FF0E1E69BE403043CF0802F1200691
:1014100046F8270010684F000326BE40B0431E79EF
:1014200006F003064F00BE40304310605E68012E98
:1014300008D05E68022E05D05E68112E02D05E686C
:10144000122E13D190684F000326BE40B0434F00C8
:10145000DE68BE4030439060506801268E40B04345
:101460001E79C6F300168E4030435060D0684F009E
:101470000326BE40B0434F009E68BE403043D0605C
:101480005E6806F08056B6F1805F7DD100BF002611
:101490000096404E366846F480463E4F3E603E46DB
:1014A000366806F48046009600BF00BF3A4E8F08AB
:1014B00056F827008E07370F0F26BE40B043374E31
:1014C000B24202D1002624E05EE0354EB24201D1A4
:1014D00001261EE0334EB24201D1022619E0324EFF
:1014E000B24201D1032614E0304EB24201D10426AB
:1014F0000FE02F4EB24201D105260AE02D4EB24236
:1015000001D1062605E02C4EB24201D1072600E0AB
:1015100008268F073F0FBE4030431F4E8F0846F806
:101520002700264E3068A0435E6806F48036B6F584
:10153000803F00D12043214E3060361D3068A043EB
:101540005E6806F40036B6F5003F00D120431B4E1E
:10155000361D3060361D3068A0435E6806F4801684
:10156000B6F5801F00D12043144E08363060361D7A
:101570003068A0435E6806F40016B6F5001F00D17F
:1015800020430E4E0C363060491C1029FFF420AF6A
:10159000F8BD000044380240083801400000024015
:1015A0000004024000080240000C0240001002400B
:1015B0000014024000180240001C0240003C0140A0
:1015C0000AB1816101E00B04836170470148006842
:1015D0007047000020000020034800680349097894
:1015E00008440149086070472000002028000020BE
:1015F00010B50D48006840F400700B4908600846BB
:10160000006840F4806008600846006840F480701C
:101610000860032000F0CAF8002000F007F800F08E
:101620002BF8002010BD0000003C024070B50446BD
:101630000E4800784FF47A71B1FBF0F00C4909685C
:10164000B1FBF0F5284600F0FEFF08B1012070BDA7
:10165000102C07D200222146501E00F068F80548E1
:10166000046001E00120F2E70020F0E728000020FC
:101670002C0000202400002008B500BF00200090AE
:101680002348006840F4804021490860084600680B
:1016900000F48040009000BF00BF00BF0020009019
:1016A000081F006840F08050091F08600846006865
:1016B00000F08050009000BF00BF032000F076F8DB
:1016C000002211466FF00B0000F031F800221146A5
:1016D0006FF00A0000F02BF8002211466FF00900AD
:1016E00000F025F800221146501F00F020F80022DB
:1016F0001146101F00F01BF800221146901E00F04A
:1017000016F800221146501E00F011F808BD000026
:101710004438024000BF00F01F02012191404209FD
:10172000920002F1E022C2F8001100BF70472DE9DB
:10173000F05F80460D461646002701F0BBF80746CD
:1017400039462A46334601F00700C0F1070ABAF1CC
:10175000040F02D94FF0040A01E0C0F1070AD14694
:1017600000F1040ABAF1070F02D24FF0000A01E0BB
:10177000A0F1030AD4464FF0010A0AFA09FAAAF1C5
:10178000010A0AEA020A0AFA0CFA4FF0010B0BFAF4
:101790000CFBABF1010B0BEA030B4AEA0B042146ED
:1017A000404601F08FF8BDE8F09F000000BF00F058
:1017B0000702064B19684FF6FF031940044B0B4311
:1017C00043EA0221014B196000BF70470CED00E0B5
:1017D0000000FA0570B504460D460CB9012070BD35
:1017E0005848006800F00F00A84209D255490D7012
:1017F0000846006800F00F00A84201D00120EEE783
:10180000207800F0020002281DD1207800F00400AA
:10181000042805D14C48006840F4E0504A4908606B
:10182000207800F00800082805D14748006840F4F7
:101830006040454908604448006820F0F000A16815
:10184000084341490860207800F00100A8B36068AF
:10185000012807D13C4808380068C0F34040B8B9B7
:101860000120BCE76068022802D06068032807D125
:10187000354808380068C0F3406048B90120AEE739
:10188000314808380068C0F3400008B90120A6E7D5
:101890002D48006820F00300616808432A49086069
:1018A000FFF794FE064609E0FFF790FE801B41F229
:1018B0008831884202D9032091E707E02248006876
:1018C00000F00C006168B0EB810FEDD11D4800689D
:1018D00000F00F00A84209D91A490D7008460068A7
:1018E00000F00F00A84201D0012078E7207800F036
:1018F0000400042807D11448006820F4E050E1688F
:10190000084311490860207800F00800082808D131
:101910000D48006820F46040216940EAC1000A498E
:10192000086000F01DF808490968C1F30311074A6F
:10193000515CC840064908600020FFF777FE002090
:101940004DE70000003C024008380240A43801087E
:101950002C00002001480068704700002C00002087
:101960002DE9F047002400250026A14625480068FF
:1019700000F00C0020B1042805D008283AD105E079
:10198000DFF8849039E0DFF8849036E01D48001FCE
:10199000006800F03F041B48001F006800F480004E
:1019A00078B11A481749091F0968C1F38811A0FBCB
:1019B00001700146224600233846FEF701FC054629
:1019C0000EE011480F49091F0968C1F38811A0FBF7
:1019D00001700146224600233846FEF7F1FB05461A
:1019E0000848001F0068C0F30140401C4600B5FBDA
:1019F000F6F902E0DFF8109000BF00BF4846BDE8EE
:101A0000F0870000083802400024F40040787D018F
:101A1000F8B504460CB90120F8BD207800F00100AB
:101A2000002874D0F948006800F00C0004280DD09C
:101A3000F648006800F00C00082813D1F348001F96
:101A4000006800F48000B0F5800F0BD1EF48083833
:101A50000068C0F34040002859D06068002856D183
:101A60000120D9E700BF6068B0F5803F08D1E748A2
:101A70000838006840F48030E449083908601EE006
:101A80006068B0F5A02F0DD1E0480838006840F438
:101A90008020DE49083908600846006840F480303C
:101AA00008600CE0D9480838006820F48030D74935
:101AB000083908600846006820F48020086000BFEC
:101AC000606890B1FFF782FD054606E0FFF77EFDF6
:101AD000401B642801D903209EE7CC4808380068E1
:101AE000C0F340400028F1D011E0FFF76FFD05463C
:101AF00006E0FFF76BFD401B642801D903208BE74C
:101B0000C24808380068C0F340400028F1D120786E
:101B100000F0020002285FD1BC48006800F00C0011
:101B200058B1BA48006800F00C0008281CD1B7482A
:101B3000001F006800F48000B0B9B448083800689D
:101B4000C0F3400020B1E068012801D0012063E724
:101B5000AE480838006820F0F800216940EAC1006A
:101B6000AA490839086037E0E06800B30120A849B5
:101B70000860FFF72BFD054606E0FFF727FD401B39
:101B8000022801D9032047E7A04808380068C0F3BD
:101B900040000028F1D09D480838006820F0F80087
:101BA000216940EAC10099490839086014E0002021
:101BB00097490860FFF70AFD054606E0FFF706FDB6
:101BC000401B022801D9032026E790480838006806
:101BD000C0F340000028F1D1207800F00800082868
:101BE0002CD16069A8B101208A490860FFF7EEFC9A
:101BF000054606E0FFF7EAFC401B022801D9032056
:101C00000AE782486C300068C0F340000028F1D039
:101C100014E000207F490860FFF7D8FC054606E085
:101C2000FFF7D4FC401B022801D90320F4E67748D3
:101C30006C300068C0F340000028F1D1207800F03B
:101C40000400042870D1002670483830006800F085
:101C5000805090B900BF002000906C483830006878
:101C600040F080506949383108600846006800F04B
:101C70008050009000BF00BF01266748006800F454
:101C80008070B0B96448006840F4807062490860B0
:101C9000FFF79CFC054606E0FFF798FC401B022876
:101CA00001D90320B8E65C48006800F48070002881
:101CB000F2D000BFA068012808D1544868300068FD
:101CC00040F001005149683108601DE0A068052816
:101CD0000DD14E486830006840F004004B4968312F
:101CE00008600846006840F0010008600CE04748C2
:101CF0006830006820F001004449683108600846F7
:101D0000006820F00400086000BFA068A8B1FFF7D9
:101D10005DFC054609E0FFF759FC401B41F28831A4
:101D2000884202D9032077E626E038486830006808
:101D3000C0F340000028EED013E0FFF747FC054653
:101D400008E0FFF743FC401B41F28831884201D98B
:101D5000032061E62D4868300068C0F34000002889
:101D6000EFD1012E07D129483830006820F080508B
:101D700026493831086000BFA069B8B3234800681D
:101D800000F00C0008285ED0A069022846D100208F
:101D90001F490866FFF71AFC054606E0FFF716FC28
:101DA000401B022801D9032036E61848083800688D
:101DB000C0F340600028F1D1D4E907010843616A0B
:101DC00040EA81110122A06AC2EB500041EA0041C1
:101DD0002C20005D41EA00600C49091F08600120C9
:101DE0000B490866FFF7F2FB054607E02DE0FFF719
:101DF000EDFB401B022801D903200DE603480838FB
:101E00000068C0F340600028F1D01EE008380240AE
:101E100000004742800E47420070004000200C49FD
:101E20000866FFF7D3FB054606E0FFF7CFFB401B34
:101E3000022801D90320EFE506480068C0F340609E
:101E40000028F2D101E00120E6E50020E4E50000F1
:101E5000000047420038024030B503460022586E69
:101E6000020E90090870C2F38300487002F003006C
:101E70008870586EC0F30742CA70B3F86400C0F3AC
:101E800007220A7193F864204A71986E020E4FF689
:101E9000FF7000EA0210C880986EC0F30742C8883D
:101EA00040EA1210C88002F00F0008726820C05A81
:101EB000C0F30722D0094872C2F380108872C2F3BF
:101EC0004010C872C2F30010087300204873586CA9
:101ED00000283ED19007000D08616820C25C0869A7
:101EE00040EA82000861D86E020E086940EA92104A
:101EF0000861C2F3C200087502F007004875D86E89
:101F0000C0F3074250098875C2F38200C875900774
:101F1000400F08766C20C05AC0F30722087E40EAC2
:101F2000D21008760869401C58650C7E586DA41CB8
:101F30000125A540684358650C7A0120A0409865AA
:101F4000D3E91504640A6043D8654FF400741C6635
:101F500030E0586C012821D16820C25C9006800ACC
:101F60000861D86E020E086940EA02200861D86E46
:101F7000C0F307420869104308616C20C05AC0F3DF
:101F800007220869441C4FF48060A4FB00045865D4
:101F9000D8654FF400749C651C660BE040F2FF505E
:101FA0001C68A063986B40F080509863012083F810
:101FB000340030BDC2F3801001F8190F9006400EB6
:101FC00048706C20C25C487840EAD210487002F039
:101FD0007F008870186F020ED009C870C2F34110DC
:101FE0000871C2F3820048719007000F8871186F62
:101FF000C0F30742887940EA92108871C2F340101A
:10200000C8710020087202F0010048727020C05AA6
:10201000C0F30722D0098872C2F38010C872C2F3DD
:1020200040100873C2F300104873C2F38100887334
:1020300002F00300C8737020C25C500808740120CD
:10204000487419390020B4E70246506C0860906C5F
:102050004860D06C8860106DC860506D0861906DEC
:102060004861D06D8861106EC86100207047F8B576
:10207000044604260025002000906946204601F011
:102080001CF9054615B1A06B2843A0630098C0F366
:1020900043263046F8BD10B504460CB9012010BDEA
:1020A00094F8340020B900202077204600F050F842
:1020B000032084F83400204600F008F80020A063D4
:1020C0002063012084F834000020E8E730B589B0AF
:1020D0000446002500200390049005900690079088
:1020E0007620089006A807C88DE80700206803A995
:1020F0000EC900F026FC002014490860206800F09A
:102100003AFC01201149A039C1F8A0000220FEF7D5
:1021100039FD204601F05AF8054645B1012084F802
:102120003400A06B2843A063012009B030BD2046D5
:1021300000F0CEFF05463DB1012084F83400A06BCD
:102140002843A0630120F0E70020EEE7A0802542AD
:1021500010B586B004461949206888422CD100BFCA
:10216000002000901648006840F4006014490860A0
:102170000846006800F40060009000BF00BF4FF404
:1021800088500190022002900020039003200490C8
:102190000C20059001A90B48FFF712F904200190CB
:1021A0000220029000200390032004900C20059050
:1021B00001A90548FFF704F906B010BD002C014045
:1021C0004438024000080240000C02402DE9F04F64
:1021D00087B004468A4690461E46DDF840900025AA
:1021E000FFF7F4F90090AB465746BAF1000F07D15C
:1021F000A06B40F00060A063012007B0BDE8F08F45
:1022000094F8340001287DD10020A06308EB06017A
:10221000E06D814205D9A06B40F00070A063012001
:10222000EBE7032084F8340000202168C862606C6A
:10223000012801D04FEA48284FF40071206800F0CF
:10224000F9FB054655B140F2FF5021688863A06B49
:102250002843A063012084F83400CEE74FF0FF301C
:1022600001907002029090200390022004900020C0
:1022700005900120069001A9206800F038FB012E8E
:1022800007D9022020634146206800F022FC054661
:1022900006E0012020634146206800F037FC054637
:1022A00055B140F2FF5021688863A06B2843A063BA
:1022B000012084F83400A0E72AE02068406B00F495
:1022C000004068B14FF0000B06E0206800F058FBBA
:1022D00047F82B000BF1010BBBF1080FF5D32037AA
:1022E000B9F1000F05D0FFF771F90099401A484580
:1022F0000ED340F2FF5021688863A06B40F000408D
:10230000A06300E082E0012084F83400032074E739
:102310002068406B40F22A3108400028CDD0206868
:10232000406B00F48070A0B1012E12D9606C0328BC
:102330000FD0206800F094FC054655B140F2FF50E4
:1023400021688863A06B2843A063012084F83400CF
:1023500053E72068406B00F0080058B140F2FF508E
:1023600021688863A06B40F00800A063012084F816
:10237000340042E72068406B00F0020058B140F2A0
:10238000FF5021688863A06B40F00200A063012029
:1023900084F8340031E72068406B00F0200058B129
:1023A00040F2FF5021688863A06B40F02000A063DA
:1023B000012084F8340020E719E0206800F0E0FAFA
:1023C00038603F1DB9F1000F05D0FFF7FFF8009905
:1023D000401A48450BD340F2FF5021688863A06B38
:1023E00040F00040A063012084F8340005E7206835
:1023F000406B00F400100028DFD140F2FF5021684C
:102400008863012084F834000020F6E6A06B40F0D9
:102410000050A0630120F0E62DE9F04F87B004469C
:10242000884617461E46DDF840B00025FFF7CEF877
:102430000090A946C246B8F1000F07D1A06B40F04A
:102440000060A063012007B0BDE8F08F94F834006D
:1024500001287DD10020A063B919E06D814205D922
:10246000A06B40F00070A0630120ECE7032084F82B
:10247000340000202168C862606C012800D07F020F
:102480004FF40071206800F0D5FA054655B140F2CE
:10249000FF5021688863A06B2843A063012084F863
:1024A0003400D0E7012E07D9202020633946206868
:1024B00000F0F4FB054606E0102020633946206852
:1024C00000F009FC054655B140F2FF5021688863D1
:1024D000A06B2843A063012084F83400B3E74FF0D9
:1024E000FF30019070020290902003900020049031
:1024F00005900120069001A9206800F0F8F92AE073
:102500002068406B00F4804070B14FF0000906E095
:102510000AEB8901206800F04BFA09F10109B9F1D1
:10252000080FF5D30AF1200ABBF1000F05D0FFF721
:102530004DF80099401A58450DD340F2FF502168DC
:102540008863A06B2843A063012084F8340000E076
:102550005EE0032077E72068406B40F21A310840C4
:102560000028CDD02068406B00F48070A0B1012E0F
:1025700012D9606C03280FD0206800F071FB05466B
:1025800055B140F2FF5021688863A06B2843A063D7
:10259000012084F8340056E72068406B00F0080002
:1025A00058B140F2FF5021688863A06B40F00800EA
:1025B000A063012084F8340045E72068406B00F0F8
:1025C000020058B140F2FF5021688863A06B40F0D0
:1025D0000200A063012084F8340034E72068406BD7
:1025E00000F0100058B140F2FF5021688863A06BE2
:1025F00040F01000A063012084F8340023E740F28B
:10260000FF5021688863012084F8340000201AE715
:10261000A06B40F00050A063012014E7042808D10B
:102620004FF0E021096941F004014FF0E02211610F
:1026300007E04FF0E021096921F004014FF0E022AA
:1026400011617047704770B504462546681EB0F1A9
:10265000807F01D301200FE0681E4FF0E021486128
:102660000F214FF0FF3000F02DF900204FF0E02156
:10267000886107200861002070BD10B5FFF7E2FFF8
:1026800010BD00BFFEE700002DE9F04105460E46F3
:102690001746984685B900240CE057F8240008A195
:1026A000FDF725FE28B958F82400FDF758FE064925
:1026B0000880641CB442F0D304A0BDE8F08100009F
:1026C00056617231000000000C0100202F73656E0E
:1026D000642E68746D6C000010B503490348FEF762
:1026E0001DFA0349087010BD02000020903801084F
:1026F0000100002000B587B000BF002001904348D2
:10270000006840F01000414908600846006800F089
:102710001000019000BF00BF00BF002001900846DC
:10272000006840F0040008600846006800F00400FB
:10273000019000BF00BF00BF002001900846006864
:1027400040F0800008600846006800F080000190BA
:1027500000BF00BF00BF002001900846006840F0A5
:10276000010008600846006800F00100019000BF09
:1027700000BF00BF002001900846006840F0020042
:1027800008600846006800F00200019000BF00BF2A
:1027900000BF002001900846006840F00800086073
:1027A0000846006800F00800019000BF00BF00224A
:1027B0004FF4E0511648FEF703FF48F20400029080
:1027C000144803900020049002A91348FEF7F8FD76
:1027D0004FF4E050029001200390002004900590F7
:1027E00002A90B48FEF7ECFD002211460820FEF777
:1027F0009EFF0820FEF78EFF002211462820FEF7DC
:1028000096FF2820FEF786FF07B000BD3038024053
:10281000000C024000003110000402400EB508F028
:1028200049FE0020124908601249086012490860F8
:10283000124813490022104BCDE9002102900D4AA5
:102840000B49104809F042FB0E4809F005FC0D4801
:1028500090F82F00C0F3800018B10A4809F054FC2A
:1028600002E0084809F000FC064803F065F90EBDD7
:10287000100000201400002018000020FD73000844
:10288000E57500083C010020064807490860002063
:102890004860002104488160C1600161416181613B
:1028A00070470000002C01405832002000BFFEE7B6
:1028B0007047000002480068C0F302207047000023
:1028C0000CED00E010B5002807DA0A07140E054ADF
:1028D00000F00F031B1FD45403E00A07130E024A33
:1028E000135410BD18ED00E000E400E0704710B58F
:1028F000024600230868506248689062D1E90204E9
:1029000020430C6920434C6920430343D06A20F0E4
:10291000F7001843D062002010BD01460869C0B21C
:1029200070470146086800F00300704708B502468A
:102930000020009002F11400084400900098006804
:1029400008BD0FB410B504460021DDE903021043B1
:10295000059A1043069A1043079A1043089A1043A9
:102960000143606847F6FF629043084360600020BF
:1029700010BC5DF814FB014603200860002070477E
:102980000146D1F88000704710B502460023086860
:102990009060D1E901042043CC6820430C692043B6
:1029A0000343D0686FF30B001843D060002010BDC4
:1029B00002460868C2F880000020704770B586B0F3
:1029C00005460C46002601943720029040200390D3
:1029D000002004904FF48060059001A92846FFF77D
:1029E000D3FF41F288323721284600F0B1F906467C
:1029F000304606B070BD000070B586B005460C4686
:102A000000260B482043019029200290402003908B
:102A1000002004904FF48060059001A92846FFF73C
:102A2000B3FF284600F094FA0646304606B070BD63
:102A30000000108070B586B005460C460026019453
:102A40001020029040200390002004904FF48060FA
:102A5000059001A92846FFF797FF41F2883210211F
:102A6000284600F075F90646304606B070BD30B510
:102A700085B004460025002000900190029003904C
:102A80004FF48060049069462046FFF77DFF2046A2
:102A900000F03EF90546284605B030BD30B585B09A
:102AA000044600254FF4D570009008200190402086
:102AB0000290002003904FF4806004906946204605
:102AC000FFF762FF204600F0C3FA0546284605B02E
:102AD00030BD70B586B005460C4600260194122024
:102AE000029040200390002004904FF480600590F5
:102AF00001A92846FFF748FF41F2883212212846F3
:102B000000F026F90646304606B070BD70B586B0B6
:102B100005460C46002601941120029040200390A7
:102B2000002004904FF48060059001A92846FFF72B
:102B30002BFF41F288321121284600F009F90646A0
:102B4000304606B070BDF0B585B0064614461D4649
:102B5000002700940720019040200290002003905D
:102B60004FF48060049069463046FFF70DFF41F254
:102B700088320721304600F0EBF80746384605B0AA
:102B8000F0BD30B585B0044600250020009002203D
:102B90000190C0200290002003904FF480600490C8
:102BA00069462046FFF7F0FE204600F0A3F90546EF
:102BB000284605B030BD70B586B005460C460026E7
:102BC000019409200290C0200390002004904FF44B
:102BD0008060059001A92846FFF7D6FE284600F040
:102BE00089F90646304606B070BD70B586B0054618
:102BF0000C46002601940D200290402003900020F6
:102C000004904FF48060059001A92846FFF7BCFEB0
:102C100041F288320D21284600F09AF806463046E7
:102C200006B070BD70B586B005460C460026002083
:102C300001900320029040200390002004904FF464
:102C40008060059001A92846FFF79EFE22460321D9
:102C5000284600F0A5F90646304606B070BD0000D3
:102C600030B585B004460025002000900C2001906E
:102C700040200290002003904FF480600490694649
:102C80002046FFF781FE044A0C21204600F060F840
:102C90000546284605B030BD00E1F50570B586B0A3
:102CA00005460C460026019419200290402003900E
:102CB000002004904FF48060059001A92846FFF79A
:102CC00063FE41F288321921284600F041F8064699
:102CD000304606B070BD70B586B005460C4600267D
:102CE00001941820029040200390002004904FF49B
:102CF0008060059001A92846FFF746FE41F2883220
:102D00001821284600F024F80646304606B070BD6B
:102D100001460E480068C0084FF47A73B0FBF3F028
:102D200041F2883300FB03F200BF101EA2F1010242
:102D300002D14FF000407047486B00F0800000283F
:102D4000F3D040F2FF5088630020F4E72C0000200D
:102D50002DE9F04105460E46174664480068C00854
:102D60004FF47A71B0FBF1F000FB07F800BFB8F147
:102D70000000A8F1010803D14FF00040BDE8F08148
:102D8000686B00F045000028F1D0686B00F004008B
:102D900010B10420A863F1E7686B00F0010010B1E6
:102DA0000120A863EAE72846FFF7B7FDB04201D04B
:102DB0000120E3E740F2FF50A86300212846FFF717
:102DC000B5FD04464A48204008B90020D6E704F083
:102DD0000040B0F1004F02D14FF00070CEE704F098
:102DE0008040B0F1804F01D14020C7E704F000508F
:102DF000B0F1005F01D18020C0E704F08050B0F155
:102E0000805F02D14FF48070B8E704F00060B0F149
:102E1000006F02D14FF40070B0E704F08060B0F1B1
:102E2000806F02D14FF48060A8E704F08070B0F1A9
:102E3000807F02D14FF40060A0E704F40000B0F5F9
:102E4000000F02D14FF4805098E704F48000B0F5F1
:102E5000800F02D14FF4005090E704F40010B0F559
:102E6000001F02D14FF4804088E704F48010B0F5D1
:102E7000801F02D14FF4004080E704F48020B0F5B9
:102E8000802F02D14FF4003078E704F40030B0F521
:102E9000003F02D14FF4802070E704F48030B0F599
:102EA000803F02D14FF4002068E704F40040B0F501
:102EB000004F02D14FF4801060E704F48040B0F579
:102EC000804F02D14FF4001058E704F40050B0F5E1
:102ED000005F02D14FF4800050E704F0080008289A
:102EE00001D100054AE74FF4803047E72C0000206D
:102EF00008E0FFFD014615480068C0084FF47A73EA
:102F0000B0FBF3F041F2883300FB03F200BF101E68
:102F1000A2F1010202D14FF000407047486B00F06F
:102F200045000028F3D0486B00F0040010B10420E5
:102F30008863F2E7486B00F0010010B1012088635C
:102F4000EBE740F2FF5088630020E6E72C0000200A
:102F5000014612480068C0084FF47A73B0FBF3F0E2
:102F600041F2883300FB03F200BF101EA2F1010200
:102F700002D14FF000407047486B00F04500002838
:102F8000F3D0486B00F0040010B104208863F2E72E
:102F900040F2FF5088630020EDE700002C00002085
:102FA0002DE9F04104460E46174628480068C0083F
:102FB0004FF47A71B0FBF1F041F2883100FB01F877
:102FC00000BFB8F10000A8F1010803D14FF00040A4
:102FD000BDE8F081606B00F045000028F1D0606B27
:102FE00000F0040010B10420A063F1E7606B00F072
:102FF000010010B10120A063EAE72046FFF78DFC35
:10300000B04201D00120E3E740F2FF50A06300216D
:103010002046FFF78BFC054605F4604018B9280CE4
:1030200038800020D4E705F48040B0F5804F02D10D
:103030004FF40050CCE705F40040B0F5004F02D14A
:103040004FF48050C4E74FF48030C1E72C000020DB
:10305000014614480068C0084FF47A73B0FBF3F0DF
:1030600041F2883300FB03F200BF101EA2F10102FF
:1030700002D14FF000407047486B00F04500002837
:10308000F3D0486B00F0040018B14020886304209E
:10309000F1E7486B00F0400008B140208863002051
:1030A000E9E700002C00002010B504460120074984
:1030B0000870FDF777FA28B90448007820F001007D
:1030C000024908700148007810BD0000000000208F
:1030D00030B58FB004460025012003902068FFF72B
:1030E00020FC18B94FF080600FB030BD606C032831
:1030F0001BD02068FFF745FD05460DB12846F3E7D4
:1031000000212068FFF712FC606704212068FFF7A8
:103110000DFCA06708212068FFF708FCE0670C2180
:103120002068FFF703FC80210851606C032807D05A
:1031300003A92068FFF776FD05460DB12846D3E7C1
:10314000606C032820D0BDF80C1021655022125B62
:1031500011042068FFF72FFD05460DB12846C3E78F
:1031600000212068FFF7E2FB606604212068FFF77A
:10317000DDFBA06608212068FFF7D8FBE0660C2184
:103180002068FFF7D3FB206704212068FFF7CEFB00
:10319000010DE16404A92046FEF75EFE5020005BAD
:1031A00001040A4600232068FFF7CDFC05460DB157
:1031B000284699E7D4E90412A069CDE900120290EB
:1031C00094E80F00FFF7BDFB00208DE7F8B504463B
:1031D000002000900026002700252068FFF747FC0C
:1031E00005460DB12846F8BD2068FFF757FC054697
:1031F0006DB30021A16425E00098411C00914FF6B9
:10320000FF71884202D14FF08070ECE70021206806
:10321000FFF7D4FB054615B14FF08050E3E70021DE
:103220002068FFF7E9FB054615B14FF08050DAE75B
:1032300000212068FFF77AFB0646012080EAD6705D
:1032400080F00107002FD7D00020606433E0012117
:10325000A16424E00098411C00914FF6FF71884260
:1032600002D14FF08070BEE700212068FFF7A6FB77
:1032700005460DB12846B6E74FF080412068FFF7BC
:10328000BBFB05460DB12846ADE700212068FFF7DE
:103290004DFB0646012080EAD67080F00107002F22
:1032A000D8D006F08040B0F1804F02D10120606498
:1032B00001E000206064002095E770B504460D46EB
:1032C000002615B94FF0006070BD5022125B11044A
:1032D0002068FFF78AFC06460EB13046F4E700216D
:1032E0002068FFF723FB28600020EDE7F0B58DB0E4
:1032F00005460C460027294601A804F08AFB06462D
:10330000002E68D100BF354901A804F0DFFB064656
:1033100016B93248407A00B959E03048007A00F0D6
:10332000100058B32846FCF7DBFF0746E8192B4A84
:1033300009322BA100F00AFB2A49096801EB81112F
:1033400004EB81002A4628A100F000FB27A02549B4
:10335000096801EB811104EB8101C1F800012148EA
:103360000068401C1F49086021462846FFF7BEFF41
:10337000064606B12BE00020E855C4E72846FCF7D6
:10338000AFFF07461749096801EB811104EB810083
:103390002A4615A100F0DAFA1249096801EB8111F9
:1033A00004EB8101C8190D4A09320DA100F0CEFAD3
:1033B0000FA00C49096801EB811104EB8101C1F8F0
:1033C000000108480068401C064908609BE700BFF0
:1033D00001A804F0BAF930460DB0F0BD107A002013
:1033E0002F257300180100202573000064000000E1
:1033F0006600000010B50446012006490870FDF77C
:10340000DDF820B92046FFF74FFE02490870014859
:10341000007810BD00000020F0B589B007460D46C9
:10342000144601261648007800F0010010B1032070
:1034300009B0F0BD35B1012D06D0022D0BD0032D02
:1034400018D10FE0002617E001A8FDF7A1F80798B2
:103450002060002610E001A8FDF79AF80898208067
:10346000002609E001A8FDF793F80898400A2060BB
:10347000002601E0042600BF00BF3046D8E7000068
:10348000000000202DE9F04180460C4615461E46FE
:103490000127BB1E324629462046FDF7A5F828B96C
:1034A00000BFFDF77FF80028FBD100273846BDE8B4
:1034B000F08110B504462046FFF7F6FD10BD2DE95A
:1034C000F04180460C4615461E460127BB1E32467B
:1034D00029462046FDF7A0F828B900BFFDF762F89D
:1034E0000028FBD100273846BDE8F08170B5ADF566
:1034F000825D05460E460A221AA104A804F068F966
:1035000020B1DF211AA000F00FFA27E000241AE012
:1035100004EB841105EB810004A904F0C1FA401CFE
:1035200018B9E62112A000F0FFF904A917A004F0D1
:10353000B7FA401C20B9E8210DA000F0F5F900E031
:1035400000E000BF641CB442E2DB00224FF40061E3
:103550000F48FEF735F804A804F0E1F80DF5825D98
:1035600070BD00006D7977726974652E747874008F
:103570002E2E5C4170704E65745C5372635C61709A
:10358000705F687474702E63000000000A00000011
:10359000000C02402DE9F043ADF5037D04460D46D5
:1035A00091464FF4807143A8FCF767FE4FF4807199
:1035B00003A8FCF762FE00200290019001AA02A974
:1035C00043A80AF02DF8BDF80810BDF804201144F6
:1035D00001EB8111880008F02BF88046414603A8D2
:1035E000FFF784FE0646002739464046FFF77EFF78
:1035F00036BB14B1012C19D10DE0BDF808201EA175
:10360000284600F0A3F92846FCF76AFE80B20DF5C3
:10361000037DBDE8F083BDF8042017A1284600F023
:1036200095F92846FCF75CFE80B2F0E713A216A1DC
:10363000284600F08BF92846FCF752FE80B2E6E7F8
:1036400014B1012C12D108E010A1284600F07EF937
:103650002846FCF745FE80B2D9E712A1284600F0C3
:1036600075F92846FCF73CFE80B2D0E7404604F0EE
:10367000BDFD0020CBE7000025750000776F726B61
:10368000696E672E2E2E0000257300004E6F206499
:1036900069726563746F7269657320666F756E64B5
:1036A000000000004E6F2066696C657320666F75C0
:1036B0006E640000F0B5C3B04FF4807103A8FCF74E
:1036C000DCFD00200290019000222749274804F0E9
:1036D0004FF820B11D2126A000F026F942E001AAF2
:1036E00002A903A809F09CFF002837D1BDF8080003
:1036F000BDF80410084484B204EB8411880007F07C
:1037000097FF0646314603A8FFF7F0FD08BB0121ED
:103710002046FCF716FE0546002008E000EB80116D
:1037200006EB8101D1F8001145F82010401CA042A1
:10373000F4DB2F4600224FF480511448FDF740FF80
:1037400022463946124805F0B5FF284604F04EFDE2
:1037500003E0322106A000F0E7F803E0352104A0E1
:1037600000F0E2F843B0F0BD02000020C469002080
:103770002E2E5C4170704E65745C5372635C617098
:10378000705F687474702E6300000000000C0240CB
:1037900095350008704710B5FDF71EFFFEF76DFF69
:1037A00010BD000010B592B000BF002000902C4862
:1037B000006840F080502A4908600846006800F020
:1037C0008050009000BF00BF00BF0020009025483F
:1037D000006840F48040234908600846006800F40F
:1037E0008040009000BF00BF0120069000040790B9
:1037F00002200C9041050D910F210E9190210F9107
:10380000022110910521119106A8FEF701F918B1C6
:10381000AD2115A000F088F80F2001900120029042
:103820000020039004900590002101A8FDF7D2FF2D
:1038300018B1BB210CA000F077F8FEF78BF84FF41D
:103840007A71B0FBF1F42046FEF7FDFE0420FEF78E
:10385000E5FE00221146501EFDF769FF12B010BDB3
:1038600040380240007000402E2E2F5372632F6D9F
:1038700061696E2E630000001448006840F4700017
:10388000124908601248006840F0010010490860C1
:1038900000200F49083108600D4800680D490840B4
:1038A0000B4908600C48091D0860081F006820F4D7
:1038B0008020091F0860002005490C3108604FF086
:1038C00000600249803908607047000088ED00E020
:1038D00000380240FFFFF6FE1030002400BFFEE774
:1038E000014691F82F0000F00100A8B10D480078C2
:1038F00018B10C480078052802D10120094A10703F
:1039000008480078032803D006480078042801D12D
:10391000012070470020FCE70520024A10700020BB
:10392000F7E700000A01002000BFFEE70FB4054BD7
:1039300010B503A9044A029800F030F810BC5DF8F5
:1039400014FB0000DB8100082C0100200FB4084BA1
:1039500010B504A902AA039800F020F8044602A9B1
:10396000002000F0F7F8204610BC5DF814FB0000C2
:10397000553B0008004870473801002002E008C8A5
:10398000121F08C1002AFAD170477047002001E0D9
:1039900001C1121F002AFBD1704700002DE9FF4F23
:1039A0008BB09A460F460546002606E025280BD028
:1039B00052460D9990476D1C761C28780028F5D149
:1039C0000FB03046BDE8F08F0024A04601226049C8
:1039D00000E0044315F8013F203B02FA03F00842DF
:1039E000F7D128782E2817D115F8010F44F00404D8
:1039F0002A280ED06FF02F022878A0F13001092973
:103A00000AD808EB880102EB410100EB01086D1CAC
:103A1000F2E757F8048B6D1C287869283ED006DC45
:103A20000028CDD063280BD0642804D136E0732859
:103A300010D075284BD052460D999047761C85E0E2
:103A400017F8040B8DF8000000208DF80100E946FE
:103A5000012003E057F8049B4FF0FF3061074FF05F
:103A6000000401D40AE0641C44450DDA8442FADB08
:103A700019F804100029F6D106E0641C8442FCDB2E
:103A800019F804100029F8D1264404E019F8010BB4
:103A900052460D999047641EF8D257E001CF4FF07F
:103AA0000A0B002802DA40422D2102E0210504D54C
:103AB0002B218DF82410012103E0E10705D02021FE
:103AC000F7E70DF1200908910CE00021F9E701CF9B
:103AD0004FF00A0BF9E75946FCF74EFC01F13002B2
:103AE00009F8012D0028F6D1ADEB090000F1200BFB
:103AF000600701D44FF00108D84502DDA8EB0B00A8
:103B000000E000208046002406E009A85246005D3F
:103B10000D999047641C761C08988442F5DB04E0FC
:103B2000302052460D999047761CB8F10001A8F15B
:103B30000108F5DC05E019F8010B52460D99904794
:103B4000761CBBF10001ABF1010BF4DC6D1C34E71A
:103B5000092801000A68531C0B60107070470000B0
:103B600070B504460D460020E070401E20632946D3
:103B7000204608F091F908B1042070BD04F232200B
:103B800007F0F7FA4AF65521884201D00320F4E7FE
:103B900094F83400E92807D094F83400EB2817D1C2
:103BA0003620005D902813D104F16A0007F0D5FAA1
:103BB00020F07F400749884201D10020DDE704F171
:103BC000860007F0CAFA0449884201D10020D4E7F0
:103BD0000220D2E74641540046415433024600E0F9
:103BE000521C107810B110788842F9D110787047C3
:103BF00030B502460B460020044601461CE01A4838
:103C000000EB01100068A8B1174800EB0110006834
:103C10001568A8420FD1144800EB01104068956860
:103C2000A84208D1104800EB011080685569A842ED
:103C300001D103E00124491C0229E0D300BF02297D
:103C400006D10CB9022B01D1002030BD1220FCE7B7
:103C500033B9054800EB01108089B0F5807F01D1B0
:103C60001020F2E70020F0E7DC32002001460020BF
:103C70000BE0074A02EB001212688A4204D10022CC
:103C8000034B03EB00131A60401C0228F1D370476A
:103C9000DC320020F0B503460D461E68D86A021DCE
:103CA000B089B5FBF0F07789B0FBF7F400BF02CA2A
:103CB00009B90020F0BD8C4200D202E0641A121D46
:103CC000F5E700BF10682044F4E70246891E9069BA
:103CD000801E884201D8002070475389D06A01FBBA
:103CE0000300F9E72DE9F04782468946DAF80040FB
:103CF000B9F1000F06D1276917B1A069B84215D8EC
:103D0000012713E04946504604F0C0FA0646022E49
:103D100002D20120BDE8F087701C08B93046F9E7EF
:103D2000A069B04201D93046F4E74F463D4600BF96
:103D30006D1CA069A84204D80225BD4201D900200B
:103D4000E8E72946504604F0A1FA064606B909E01C
:103D5000012E01D0701C08B93046DBE7BD42E7D127
:103D60000020D7E700BF4FF0FF322946204609F078
:103D7000FFFA8046B8F1000F08D1B9F1000F05D065
:103D80002A464946204609F0F3FA8046B8F1000F6A
:103D90000DD12561D4E90510801E814202D86069E9
:103DA000401E6061207940F00100207107E0B8F109
:103DB000010F02D14FF0FF3000E0012005462846F8
:103DC000A8E700002DE9F05F82468846D8F8007029
:103DD0000AF124050B222021284607F093FE00203B
:103DE000814606464FF0080B00BF3046761C3C5C0F
:103DF000202C00DC36E02F2C01D05C2C08D100E018
:103E0000761CB85D2F28FBD0B85D5C28F8D029E07F
:103E10002E2C01D0D9450CD3BBF10B0F01D02E2C89
:103E200002D00620BDE8F09F4FF008094FF00B0BC1
:103E3000DBE7802C03DBA4F1800015490C5C2146F4
:103E400014A0FFF7CBFE08B10620EBE7612C04DBE2
:103E50007A2C02DCA4F12000C4B2484609F1010921
:103E60002C54C2E700BFB819C8F80000B9F1000F20
:103E700001D10620D6E72878E52801D10520287051
:103E8000202C01DC042000E00020E8720020C9E7BB
:103E9000BC380108222A2B2C3A3B3C3D3E3F5B5D5F
:103EA0007C7F000070B5044625466868804722463E
:103EB0000249286809F0D6FC70BD0000A53E000844
:103EC00010B50246531E1A46022B17D20C4B03EBB9
:103ED00002139989B1F5807F00D10021002901DD0D
:103EE0004B1E99B2064B03EB0213998121B90023B3
:103EF000034C04EB02142360002000E0022010BDFC
:103F0000DC32002070B505460E4600BF002D09D1F9
:103F100000BF0FA340F27B321BA11FA0FFF706FDDD
:103F200000BF70BD00BF2C6A00BF00BF6CB1607ADB
:103F300008280AD100BF00BF3068A16A884204D1B6
:103F400000BF00BF284600F073FB00BFE9E7000098
:103F50002E2E2F4D6964646C6577617265732F54E2
:103F6000686972645F50617274792F4C7749502F81
:103F70007372632F636F72652F697076342F646874
:103F800063702E63000000006E6574696620213D39
:103F9000204E554C4C000000417373657274696F7C
:103FA0006E2022257322206661696C65642061742D
:103FB000206C696E6520256420696E2025730A00D7
:103FC0007CB5064600BF002E09D100BF4FA340F2CA
:103FD000FE325CA162A0FFF7A9FC00BF7CBD00BF60
:103FE000346A00BF002C09D100BF48A34FF480629F
:103FF00065A15BA0FFF79AFC00BFEFE700BF00BF21
:1040000000BF00202084606B401C90B100BF00BF47
:10401000606B1E303C21B0FBF1F5B5F5803F01D35C
:104020004FF6FF756584608C08B90120608400BF7D
:1040300000BFA06B401CA0B100BF00BFA06B1E3032
:104040003C21B0FBF1F5B5F5803F01D34FF6FF758C
:104050002583208B08B90120208300BF00BF208B5F
:10406000A083E06B401CA0B100BF00BFE06B1E301E
:104070003C21B0FBF1F5B5F5803F01D34FF6FF755C
:104080006583608B08B90120608300BF00BF608B2F
:10409000E083208B618B884204DB608B002801DD8C
:1040A00000202083E07A10B1E06A019010E094F8DB
:1040B00028007F2802DCFF21019108E0C02803DBF3
:1040C0006FF07F41019102E04FF6FF71019100BF57
:1040D000206B0090009848B900BFA06A0199084081
:1040E000009000BF009840F08070009000BF00BFBB
:1040F0000A21204601F018FD6B4601AA04F12801AF
:10410000304607F084FF00BF68E700002E2E2F4DD9
:104110006964646C6577617265732F546869726451
:104120005F50617274792F4C7749502F7372632FEF
:10413000636F72652F697076342F646863702E63C5
:1041400000000000646863705F62696E643A206E0C
:104150006574696620213D204E554C4C00000000DE
:10416000417373657274696F6E2022257322206615
:1041700061696C6564206174206C696E65202564DA
:1041800020696E2025730A00646863705F62696E3F
:10419000643A206468637020213D204E554C4C00E9
:1041A0002DE9F0410646346A00BF00BF08212046D1
:1041B00001F0BAFC002204F12801304602F0BEFDF5
:1041C00005460DB100BF00BFA07AFF2802DAA07A31
:1041D000401CA0724FF4FA7707F2F310394690FBB7
:1041E000F1F0E08200BF00BFBDE8F08170B51C486F
:1041F000056800BF00BF30E02C6AFCB1607AE8B10E
:10420000608C78B1208C401C80B22084618C884204
:1042100008D100BF00BF284601F038FB284600F057
:10422000F9FA18E0E08B50B1E18B481EE0830129D8
:1042300005D100BF00BF284601F00DFE0BE0A08BAA
:1042400048B1A18B481EA083012904D100BF00BF43
:10425000284601F0DBFD2D6800BF002DCCD170BDDC
:10426000800000202DE9F04107460C46164600BFAD
:10427000002F0CD100BF6DA340F21D7279A181A067
:10428000FFF754FB00BF6FF00F00BDE8F08100BFE7
:1042900000BF002C0AD100BF64A340F21E7283A1AC
:1042A00078A0FFF743FB00BFA01FEEE700BF00BFF1
:1042B000E068002808D000BF5CA340F21F7283A111
:1042C00070A0FFF733FB00BF00BF00BF20690028CC
:1042D00008D000BF55A34FF4E46286A169A0FFF7A0
:1042E00025FB00BF00BF00224FF49A71104607F073
:1042F00021FFE060E06820B900BF00BF4FF0FF3051
:10430000C3E700BFE0684089B0F59A7F08D200BFDC
:1043100046A340F2277281A15AA0FFF707FB00BF16
:1043200000BF032E02D1607A032808D1A07A18B901
:10433000FBF778FF8949086088480068206000BF63
:1043400000BFE06840682061012021690870216990
:10435000487097F828002169887000202169C8708A
:10436000206807F093F821694860002021690881DE
:10437000216948812169C860082E0BD0042E09D01C
:10438000072E07D0032E08D1607A052802D0607A64
:10439000042802D178682169C86000202169086179
:1043A000216948612169886100250FE097F828009C
:1043B000A84205DD062D03D207F12900405D00E08B
:1043C000002021691C314855681C85B2102DEDD3A1
:1043D000002505E0002120692C304155681C85B27C
:1043E000402DF7D3002505E0002120696C304155B0
:1043F000681C85B2802DF7D359482169C1F8EC00BB
:104400000020A082002504E02069F0304555681C9A
:1044100085B2442DF8D301223521204600F094FBCB
:104420003146204600F0E4FB00202EE72E2E2F4DD3
:104430006964646C6577617265732F54686972642E
:104440005F50617274792F4C7749502F7372632FCC
:10445000636F72652F697076342F646863702E63A2
:1044600000000000646863705F6372656174655F7B
:104470006D73673A206E6574696620213D204E5544
:104480004C4C0000417373657274696F6E20222575
:104490007322206661696C6564206174206C696EAA
:1044A0006520256420696E2025730A0064686370A6
:1044B0005F6372656174655F6D73673A20646863FA
:1044C0007020213D204E554C4C0000006468637004
:1044D0005F6372656174655F6D73673A20646863DA
:1044E000702D3E705F6F7574203D3D204E554C4CD5
:1044F00000000000646863705F6372656174655FEB
:104500006D73673A20646863702D3E6D73675F6FEB
:104510007574203D3D204E554C4C0000646863701E
:104520005F6372656174655F6D73673A2063686588
:10453000636B2074686174206669727374207062A2
:1045400075662063616E20686F6C64207374727589
:10455000637420646863705F6D736700FC00002003
:104560006382536310B500BF0E480078002807DC53
:1045700000BF0DA3F3221AA122A0FFF7D7F900BFB5
:1045800000BF08480078401E0649087008460078B9
:1045900030B9264800680FF051F800202349086020
:1045A00010BD0000F80000202E2E2F4D6964646CB1
:1045B0006577617265732F54686972645F506172C8
:1045C00074792F4C7749502F7372632F636F726524
:1045D0002F697076342F646863702E6300000000CA
:1045E000646863705F7063625F726566636F756E47
:1045F0007428293A20726566636F756E742065723F
:10460000726F7200417373657274696F6E20222538
:104610007322206661696C6564206174206C696E28
:104620006520256420696E2025730A00F4000020AF
:104630002DE9FC4105462C6A002600BF00BF0C2175
:10464000204601F071FA042221462846FFF70AFEAF
:10465000064626BB04223221204600F075FAA06AE5
:1046600006F014FF80464146204600F027FB204616
:1046700000F0F6FBA28AF03291B2E06808F05AFC32
:104680001248CDE900504323114A1248E1680068FE
:104690000FF020F8204600F01FF800BF01E000BF37
:1046A00000BFA07AFF2802DAA07A401CA07242F272
:1046B000107707F2F3104FF4FA7190FBF1F0E082FB
:1046C00000BF00BF3046BDE8FC8100004450010837
:1046D00048500108F400002010B5044600BF002C2B
:1046E00009D100BF17A340F26D7224A12BA0FFF7E0
:1046F0001DF900BF10BD00BF00BFE068002808D151
:1047000000BF10A340F26E722EA124A0FFF70EF995
:1047100000BF00BF00BF2069002808D100BF09A367
:1047200040F26F7231A11DA0FFF700F900BF00BF7A
:10473000E06810B1E06808F02FFA0020E060206126
:1047400000BFD7E72E2E2F4D6964646C65776172C8
:1047500065732F54686972645F50617274792F4C6D
:104760007749502F7372632F636F72652F6970766C
:10477000342F646863702E63000000006468637007
:104780005F64656C6574655F6D73673A2064686328
:104790007020213D204E554C4C0000004173736544
:1047A0007274696F6E2022257322206661696C65C0
:1047B00064206174206C696E6520256420696E2018
:1047C00025730A00646863705F64656C6574655F77
:1047D0006D73673A20646863702D3E705F6F757407
:1047E00020213D204E554C4C000000006468637051
:1047F0005F64656C6574655F6D73673A20646863B8
:10480000702D3E6D73675F6F757420213D204E558E
:104810004C4C00002DE9FC4105462C6A002700BFE6
:1048200000BF0020A0620621204601F07DF9012290
:1048300021462846FFF716FD0746002F38D100BF56
:1048400000BF02223921204600F07EF9E98C204683
:1048500000F0B4FA03223721204600F075F9002653
:1048600006E02548815D204600F0C2F9701CC6B202
:10487000032EF6D3204600F0F3FA00BF00BFA28A51
:10488000F03291B2E06808F055FB00BF00BF1B4852
:10489000CDE9005043231A4A1A48E16800680EF037
:1048A00019FF00BF00BF2046FFF716FF00BF01E061
:1048B00000BF00BFA07AFF2802DAA07A401CA072D5
:1048C000A07A062803DAA17A0120884000E03C2083
:1048D00000EB4001C1EBC0104FF6FF7101EAC008C8
:1048E00008F2F3104FF4FA7190FBF1F0E08200BF90
:1048F00000BF3846BDE8FC81F000002044500108AC
:1049000048500108F400002070B50E48056815E015
:104910002C6A8CB1E08A012803DDE08A401EE08227
:104920000AE0E08A012807D1E08A401EE08200BF49
:1049300000BF284601F0B7FA2D6800BF002DE7D16F
:1049400070BD00008000002070B505462C6A002074
:10495000E06220631A48C07810B11A48C0686063EA
:104960001748007918B117480069A06302E0606B2E
:104970004008A0631248407918B112484069E063CA
:1049800004E0606BC0EBC000C008E06360680069D1
:10499000A0620B48807938B10A49886906F076FD33
:1049A000E0620120E07201E00020E0720448C0797A
:1049B00020B10449C86906F069FD206370BD00009C
:1049C000E8000020B468002070B50446256A00BFE6
:1049D00000BF0C21284601F0A7F8054B1A461146E6
:1049E000204607F014FB2046FFF714FF70BD0000BF
:1049F0004450010870B505462C6A00BF00BF0B4843
:104A0000807878B10A49886806F040FD606200BF8E
:104A100000BF60680069A06200BF00BF284600F0C8
:104A2000F9FF01E000BF00BF70BD0000E8000020FA
:104A3000B468002010B51E480078002831D100BFAE
:104A40001C480068002807D000BF1BA3D92228A15A
:104A500031A0FEF76BFF00BF00BF0EF0B1FD15499E
:104A600008600846006810B94FF0FF3010BD1148CB
:104A70000068007A40F020000E490968087244225C
:104A80002F490C4800680EF0CDFB43222C49094801
:104A900000680EF021FC00222A49064800680EF04A
:104AA000C9FD03480078401C014908700020DDE77B
:104AB000F8000020F40000202E2E2F4D6964646C55
:104AC0006577617265732F54686972645F506172B3
:104AD00074792F4C7749502F7372632F636F72650F
:104AE0002F697076342F646863702E6300000000B5
:104AF000646863705F696E635F7063625F7265664E
:104B0000636F756E7428293A206D656D6F72792018
:104B10006C65616B00000000417373657274696FAE
:104B20006E2022257322206661696C6564206174A1
:104B3000206C696E6520256420696E2025730A004B
:104B4000445001089956000870B504460E461546B3
:104B500000BFA08A801C2844442808D900BF0BA3AA
:104B60004FF4AE62174918A0FEF7E0FE00BF00BF89
:104B7000A18A481CA0822069F0304654A18A481CB2
:104B8000A0822069F030455470BD00002E2E2F4DBC
:104B90006964646C6577617265732F5468697264C7
:104BA0005F50617274792F4C7749502F7372632F65
:104BB000636F72652F697076342F646863702E633B
:104BC0000000000000530108417373657274696F3F
:104BD0006E2022257322206661696C6564206174F1
:104BE000206C696E6520256420696E2025730A009B
:104BF00070B504460D4600BFA08A442808D300BF04
:104C000007A340F27B5214A122A0FEF78FFE00BF43
:104C100000BFA18A481CA0822069F030455470BDB5
:104C20002E2E2F4D6964646C6577617265732F5405
:104C3000686972645F50617274792F4C7749502FA4
:104C40007372632F636F72652F697076342F646897
:104C500063702E6300000000646863705F6F70749F
:104C6000696F6E5F627974653A20646863702D3E87
:104C70006F7074696F6E735F6F75745F6C656E20B3
:104C80003C20444843505F4F5054494F4E535F4C73
:104C9000454E0000417373657274696F6E20222562
:104CA0007322206661696C6564206174206C696E92
:104CB0006520256420696E2025730A0070B50446BE
:104CC0000D4600BFA08A001D442808D900BF13A3C9
:104CD00040F28A521FA12FA0FEF728FE00BF00BF9E
:104CE000290EA28A501CA0822069F0308154C5F39D
:104CF0000741A28A501CA0822069F0308154C5F37C
:104D00000721A28A501CA0822069F0308154A28A17
:104D1000501CA0822069F030855470BD2E2E2F4D7E
:104D20006964646C6577617265732F546869726435
:104D30005F50617274792F4C7749502F7372632FD3
:104D4000636F72652F697076342F646863702E63A9
:104D500000000000646863705F6F7074696F6E5F5D
:104D60006C6F6E673A20646863702D3E6F70746973
:104D70006F6E735F6F75745F6C656E202B203420CF
:104D80003C3D20444843505F4F5054494F4E535F81
:104D90004C454E00417373657274696F6E20222515
:104DA0007322206661696C6564206174206C696E91
:104DB0006520256420696E2025730A0070B50446BD
:104DC0000D4600BFA08A801C442808D900BF0BA351
:104DD00040F28252174918A0FEF7A8FD00BF00BF9D
:104DE000290AA28A501CA0822069F0308154A28A2C
:104DF000501CA0822069F030855470BD2E2E2F4D9E
:104E00006964646C6577617265732F546869726454
:104E10005F50617274792F4C7749502F7372632FF2
:104E2000636F72652F697076342F646863702E63C8
:104E300000000000BC520108417373657274696F11
:104E40006E2022257322206661696C65642061747E
:104E5000206C696E6520256420696E2025730A0028
:104E600010B5044600BF002C09D100BF20A340F2BA
:104E700082722DA135A0FEF759FD00BF10BD00BF05
:104E800000BF2069002808D100BF19A340F2837237
:104E900038A12EA0FEF74AFD00BF00BF00BFA08AC8
:104EA000442808D300BF12A340F284723CA127A07B
:104EB000FEF73CFD00BF00BFFF21A28A501CA0826C
:104EC0002069F030815406E00021A28A501CA082A3
:104ED0002069F0308154A08A442803D3207D00F05B
:104EE000030010B1A08A4428EED300BFC6E700003B
:104EF0002E2E2F4D6964646C6577617265732F5433
:104F0000686972645F50617274792F4C7749502FD1
:104F10007372632F636F72652F697076342F6468C4
:104F200063702E6300000000646863705F6F7074CC
:104F3000696F6E5F747261696C65723A2064686350
:104F40007020213D204E554C4C000000417373658C
:104F50007274696F6E2022257322206661696C6508
:104F600064206174206C696E6520256420696E2060
:104F700025730A00646863705F6F7074696F6E5F99
:104F8000747261696C65723A20646863702D3E6D5D
:104F900073675F6F757420213D204E554C4C0A009D
:104FA000646863705F6F7074696F6E5F747261695B
:104FB0006C65723A20646863702D3E6F7074696F1F
:104FC0006E735F6F75745F6C656E203C2044484360
:104FD000505F4F5054494F4E535F4C454E0A0000AE
:104FE0002DE9F34F89B08946002006900590FA48D4
:104FF000002101604160B9F80A002C2803D2881E04
:105000000BB0BDE8F08FD9F80410099841604FF05B
:10501000F00AB9F80800079000BF4C460AE0608922
:10502000AAEB00001FFA80FA61890798401A80B243
:105030000790246814B160895045F0DD14B96FF011
:105040000100DDE75546DDF81CB06068089089E195
:105050000898405D049000274FF0FF38A81C80B2EC
:1050600003906189681C814203DD691C0898465CD5
:1050700007E0206818B120684068007800E0002050
:10508000064637460498342851D007DC78B1012809
:1050900013D0032824D033287CD135E035286AD0BA
:1050A00036287ED03A2877D03B28F5D19FE00020E3
:1050B00006460746681E85B2B0E000BF042E0BD03E
:1050C00000BFC6A340F2F652D2A1D5A0FEF72EFC37
:1050D00000BF6FF0050093E700BF4FF006089DE0AA
:1050E000042700BFBE420BDA00BFBCA340F2FB5254
:1050F000D5A1CBA0FEF71AFC00BF6FF005007FE73B
:1051000000BF4FF0070889E000BF042E0BD000BF9E
:10511000B2A340F20962BFA1C1A0FEF707FC00BF25
:105120006FF005006CE700BF4FF0030876E000BFAA
:10513000012E0BD000BFA9A340F21762C7A1B8A0EF
:10514000FEF7F4FB00BF6FF0050059E700BF00BF9A
:10515000BAF1F00F0BD000BFA0A340F21962C2A1B8
:10516000AFA0FEF7E3FB00BF6FF0050048E700BF0C
:105170004FF0000852E000BF012E0ED000BF97A3F1
:1051800040F21D62B5A1A6A0FEF7D0FB00BF6FF0F4
:10519000050035E73EE004E016E000BF4FF00108EF
:1051A0003CE000BF042E0BD000BF8CA340F2216274
:1051B00098A19BA0FEF7BAFB00BF6FF005001FE7A8
:1051C00000BF4FF0020829E000BF042E0BD000BF43
:1051D00082A340F225628FA191A0FEF7A7FB00BF3A
:1051E0006FF005000CE700BF4FF0040816E000BFA9
:1051F000042E0BD000BF79A340F2296285A188A0BC
:10520000FEF794FB00BF6FF00500F9E600BF4FF01A
:10521000050803E0002700BF00BF00BF00BFB01CAF
:10522000284485B2002F78DD0020029000BF00BF27
:10523000B8F1000F02DBB8F1080F08DB00BF67A36D
:1052400040F236628EA176A0FEF770FB00BF00BF71
:10525000614810F8080000285ED1042F01DA3846B2
:1052600000E00420019002A92046039B019A07F068
:10527000E9FB01460198814202D06FF00100BFE6D0
:10528000042F27DD00BFF91707EB91718910A7EBF9
:10529000810159B100BF51A340F23E627DA160A0DF
:1052A000FEF744FB00BF6FF00500A9E600BF012038
:1052B000494901F80800029806F0E8F87B4941F8EE
:1052C0002800381FC7B20398001D80B2039008F170
:1052D0000108ACE7042F04D1029806F0D7F8029039
:1052E00012E000BF012F0BD000BF3CA34FF4C962F6
:1052F0006FA14BA0FEF71AFB00BF6FF005007FE621
:1053000000BF9DF8080002900120334901F8080011
:105310006649029841F8280000BF6089A84220DC55
:105320006089281A85B26089ABEB00001FFA80FB08
:105330005D4515DABBF1000F12D0246800BF5CB9DF
:1053400000BF26A340F254625EA135A0FEF7EEFA3C
:1053500000BF6FF0050053E600BF6068089000E0F2
:1053600008E000BF34B15D4504DA0898405DFF28CD
:105370007FF46EAE00BF18480078D0B14B49086882
:105380000021154A1170012803D10121069100BFA7
:105390000EE0022803D10121059100BF08E0032897
:1053A00004D101210591069100BF01E000BF00BFBB
:1053B00000BF069830B1002006904FF06C0AEC2038
:1053C00007902AE6059830B1002005904FF02C0A8E
:1053D0006C20079021E67FE0E80000202E2E2F4D64
:1053E0006964646C6577617265732F54686972646F
:1053F0005F50617274792F4C7749502F7372632F0D
:10540000636F72652F697076342F646863702E63E2
:10541000000000006C656E203D3D2034000000005F
:10542000417373657274696F6E2022257322206642
:1054300061696C6564206174206C696E6520256407
:1054400020696E2025730A006C656E203E3D206445
:1054500065636F64655F6C656E0000006C656E204F
:105460003D3D2031000000006F7665726C6F616415
:1054700020696E2066696C652F736E616D65000032
:10548000636865636B206465636F64655F696478F6
:10549000000000006465636F64655F6C656E2025C5
:1054A000252034203D3D203000000000B46800205D
:1054B000696E76616C6964206465636F64655F6CB6
:1054C000656E00006E657874207062756620776185
:1054D00073206E756C6C0000002091E52DE9F84397
:1054E00005462C6A00BF00BF0421204600F01CFBCB
:1054F000032221462846FEF7B5FE0746002F2ED18F
:10550000022239212046FFF71FFBE98C2046FFF7D6
:1055100055FC032237212046FFF716FB002606E044
:105520001F48815D2046FFF763FB701CC6B2032E47
:10553000F6D32046FFF794FCA28AF03291B2E068DD
:1055400007F0F8FC00954323164A1748E168006805
:105550000EF096F82046FFF7BFF800BF01E000BF4D
:1055600000BFA07AFF2802DAA07A401CA072A07ABD
:105570000A2805DAA07A4FF47A7110FB01F001E0F5
:1055800042F210701FFA80F808F2F3104FF4FA712B
:1055900090FBF1F0E08200BF00BF3846BDE8F88321
:1055A000F000002048500108F40000202DE9F843E5
:1055B0000646346A00BF00BF0321204600F0B4FA5B
:1055C000032221463046FEF74DFE0746002F3CD110
:1055D000022239212046FFF7B7FA4FF41071204616
:1055E000FFF7ECFB042232212046FFF7ADFAA06A58
:1055F00005F04CFF814649462046FFF75FFB03223A
:1056000037212046FFF7A0FA002506E01F48415D3C
:105610002046FFF7EDFA681CC5B2032DF6D32046ED
:10562000FFF71EFCA28AF03291B2E06807F082FC1C
:1056300000964323164A1748E16800680EF020F8E8
:105640002046FFF749F800BF01E000BF00BFA07A85
:10565000FF2802DAA07A401CA072A07A0A2805DA94
:10566000A07A4FF47A7110FB01F001E042F2107061
:105670001FFA80F808F2F3104FF4FA7190FBF1F082
:10568000E08200BF00BF3846BDE8F883F00000208C
:1056900048500108F40000202DE9F05F83461646CB
:1056A000DDF828A0594847683C6AD6F804900CB148
:1056B000207A00B9A1E000BF00BF00BF00BF00BF5B
:1056C00000BF00BF00BF00BF6068002808D000BF57
:1056D0004FA34FF4D5625CA160A0FEF727F900BF8D
:1056E00000BF70892C2802DA00BF00BF85E099F85E
:1056F0000000022802D000BF00BF7EE000250CE0C1
:1057000007F12900415D09F11C00405D814202D092
:1057100000BF00BF71E0681CC5B297F82800A8421E
:1057200003DD062D01D2102DEAD3D9F8040005F0CF
:10573000ADFE2168884202D000BF00BF5DE0314667
:105740002046FFF74DFC10B100BF00BF55E000BF81
:1057500000BF4C48407810B900BF00BF4DE04A4838
:1057600090F80480B8F1050F24D100BF00BF607A23
:1057700001280FD13846FFF7E7F897F82F0000F01F
:10578000080018B13846FEF70BFD35E03846FEF745
:1057900017FC31E0607A032805D0607A042802D033
:1057A000607A052828D13846FFF7CEF83846FEF74C
:1057B00007FC21E0B8F1060F11D1607A032808D068
:1057C000607A012805D0607A042802D0607A052822
:1057D00005D100BF00BF3846FFF7F6F80CE0B8F17E
:1057E000020F09D1607A062806D100BF00BF002051
:1057F000E0823846FFF7FEF800BF0CB10020606081
:10580000304607F0C9F9BDE8F09F00004837002096
:105810002E2E2F4D6964646C6577617265732F5409
:10582000686972645F50617274792F4C7749502FA8
:105830007372632F636F72652F697076342F64689B
:1058400063702E63000000007265706C79207761D0
:10585000736E27742066726565640000417373651A
:105860007274696F6E2022257322206661696C65EF
:1058700064206174206C696E6520256420696E2047
:1058800025730A00E8000020B46800202DE9FC41DF
:1058900005462C6A00BF00BF1CB96FF00F00BDE8C1
:1058A000FC81606A0190284600F09CFA07460021BE
:1058B000204600F039F900206062A062E0622063B7
:1058C000E063A063606360842084E083A08307B901
:1058D000E5E7072221462846FEF7C4FC064616BB2C
:1058E000042236212046FFF72FF9019805F0CEFD5E
:1058F000804641462046FFF7E1F92046FFF7B0FA1F
:10590000A28AF03291B2E06807F014FB00954323BD
:1059100001AA0A48E16800680DF0B2FE2046FEF7D1
:10592000DBFE00BF01E000BF00BF054B1A46114679
:10593000284606F06CFB3046B1E70000F40000207A
:10594000445001082DE9F84305462C6A00BF00BF0A
:105950000521204600F0E8F8032221462846FEF7FC
:1059600081FC0746002F2FD1022239212046FFF764
:10597000EBF8E98C2046FFF721FA03223721204675
:10598000FFF7E2F8002606E02048815D2046FFF799
:105990002FF9701CC6B2032EF6D32046FFF760FA2B
:1059A000A28AF03291B2E06807F0C4FA009543236E
:1059B00004F124021648E16800680DF061FE2046FB
:1059C000FEF78AFE00BF01E000BF00BFA07AFF28FB
:1059D00002DAA07A401CA072A07A0A2805DAA07A1E
:1059E0004FF4FA6110FB01F001E044F620601FFA69
:1059F00080F808F2F3104FF4FA7190FBF1F0E082B6
:105A000000BF00BF3846BDE8F8830000F00000206A
:105A1000F40000202DE9FC4705462C6A00BF00BFBA
:105A20000121204600F080F8032221462846FEF797
:105A300019FC0746002F4AD1022239212046FFF7E0
:105A400083F8E98C2046FFF7B9F904223221204679
:105A5000FFF77AF8A06A05F019FD8146494620460D
:105A6000FFF72CF9042236212046FFF76DF8606A13
:105A700005F00CFD814649462046FFF71FF9032239
:105A800037212046FFF760F8002606E02248815DB6
:105A90002046FFF7ADF8701CC6B2032EF6D32046A1
:105AA000FFF7DEF9A28AF03291B2E06807F042FA1D
:105AB0001A48CDE900504323194A1A48E1680068A2
:105AC0000DF008FE2046FEF707FE00BF01E000BF14
:105AD00000BFA07AFF2802DAA07A401CA072A07A48
