:020000040800F2
:10000000F8B900209D010008D31F0008711E0008E8
:10001000D11F00080D060008952B00080000000005
:10002000000000000000000000000000952A000809
:10003000D506000800000000F51F0008972A0008F8
:10004000B7010008B7010008B7010008B7010008B0
:10005000B7010008B7010008B7010008B7010008A0
:10006000B7010008B7010008B7010008B701000890
:10007000B7010008B7010008B7010008B701000880
:10008000B7010008B7010008B7010008B701000870
:10009000B7010008B7010008B7010008B701000860
:1000A000B7010008B7010008B7010008B701000850
:1000B000B7010008B7010008B7010008B701000840
:1000C000B7010008B7010008B7010008B701000830
:1000D000B7010008B7010008B7010008B701000820
:1000E000B7010008B7010008B7010008B701000810
:1000F000B7010008B7010008B7010008B701000800
:10010000B7010008B7010008B7010008B7010008EF
:10011000B7010008B7010008B7010008B7010008DF
:10012000B7010008B7010008B7010008B7010008CF
:10013000B7010008B7010008B7010008B7010008BF
:10014000B7010008B7010008B7010008B7010008AF
:10015000B7010008B7010008B7010008B70100089F
:10016000B7010008B7010008B7010008B70100088F
:10017000B7010008B7010008B7010008000000003F
:10018000B7010008B7010008DFF80CD000F054F9FF
:1001900000480047C5820008F8B90020064880479B
:1001A00006480047FEE7FEE7FEE7FEE7FEE7FEE75C
:1001B000FEE7FEE7FEE7FEE7412B000889010008A5
:1001C0002DE9F05F0546002092469B46884606468C
:1001D000814640241BE0284641464746224600F01F
:1001E000E2F853465A46C01A914110D311461846B8
:1001F000224600F0C9F82D1A67EB01084F46224647
:100200000120002100F0C0F817EB00094E41201E2C
:10021000A4F10104DFDC484631462A464346BDE8E6
:10022000F09F00000649074A0868504343F239022C
:10023000104408604008704701490860704700009A
:10024000300100206D4EC64140EA01039B0703D0F8
:1002500009E008C9121F08C0042AFAD203E011F805
:10026000013B00F8013B521EF9D27047D2B201E0C7
:1002700000F8012B491EFBD270470022F6E710B5AB
:1002800013460A4604461946FFF7F0FF204610BD04
:1002900030B505462A460B4612F8010B13F8014B00
:1002A00008B1A042F8D01CB1002802D06D1CF1E7C3
:1002B000284630BD10B5044604E00B7800F8013B39
:1002C00003B1491C521EF8D2204610BDCAB2401ECE
:1002D00010F8011F8A4202D00029F9D1002070478E
:1002E000421C10F8011B0029FBD1801A704710B581
:1002F000002200E0521C835C8C5CA34201D1002BE5
:10030000F8D1D8B2E1B2401A10BD30B50446002091
:10031000034600E05B1C934203D2E05CCD5C401BD3
:10032000F8D030BD30B505460020034600E05B1C28
:10033000934205D2EC5CC85C201A01D1002CF6D1A6
:1003400030BD70B5064602F067FC046805460A2217
:100350000021304600F037F82C6070BD30B50B46F8
:10036000014600202022012409E021FA02F59D42E5
:1003700005D303FA02F5491B04FA02F52844151EB9
:10038000A2F10102F1DC30BD202A04DB203A00FAA0
:1003900002F1002070479140C2F1200320FA03F3DC
:1003A000194390407047202A04DB203A21FA02F0DA
:1003B0000021704721FA02F3D040C2F1200291409F
:1003C0000843194670472DE9F04791460F4680468D
:1003D0000446002614F8015B2DB100F03FF80068D8
:1003E000405DC007F6D12B2D02D02D2D18D0641EF4
:1003F0004A463946204600F035F827B13968A1420F
:1004000001D1C7F8008071054FF002040BD54042BE
:10041000002803DD02F000FC0460A007BDE8F087BF
:1004200046F48066E4E70028F8DA02F0F5FB0460A1
:100430006FF00040F2E70000064C074D06E0E06870
:1004400040F0010394E8070098471034AC42F6D31B
:10045000FFF79EFEC8FE0008E8FE0008004870474F
:100460009CFC00082DE9F05F8246007800271546C5
:100470008B460AF10104B946302801D09DB113E042
:1004800014F8010B0127782803D0582801D045B172
:100490000AE00DB1102D07D10027102514F8010B2B
:1004A00002E0082500E00A250026B0460EE005FB24
:1004B000080005FB06F1012701EB10461FFA80F842
:1004C000B6F5803F00D3B94614F8010B294600F079
:1004D00018F80028EBDABBF1000F05D00FB1641E4D
:1004E00000E05446CBF80040B9F1000F06D002F00E
:1004F00093FB02210160C81EBDE8F09F48EA064058
:10050000FAE73A2800D2303820F02002412A01D3FD
:10051000A2F13700884201D34FF0FF30704770B529
:100520008C1810F8015B15F0070301D110F8013B9E
:100530002A1106D110F8012B03E010F8016B01F825
:10054000016B5B1EF9D12B0705D40023521E0DD47D
:1005500001F8013BFAE710F8013BCB1A921C03E0CB
:1005600013F8015B01F8015B521EF9D5A142D8D303
:10057000002070BD0146014801F001BAA41100201D
:1005800010B5044801F00DFA042801D0012010BD77
:10059000002010BDA411002038B501208DF8000006
:1005A0009DF80000012801D0012038BD064801F067
:1005B0000EFA040006D14FF40061034801F0B6F8CA
:1005C00000B10124204638BDA411002038B5002414
:1005D000009313460A460146034801F07DFA00B134
:1005E0000124204638BD0000A411002038B50024A5
:1005F000009313460A460146034801F047FB00B149
:100600000124204638BD0000A4110020FEE70000B0
:10061000054A0448D2E90012C0E9031201210C3056
:1006200006F020BA1401002010FC000870B5054641
:1006300000F062FD074C2168401AB0F5FA7F07D33D
:1006400000F05AFD20602846BDE8704000F004B874
:1006500070BD000008000020FEB51B4D0446287840
:100660000026012808D002280FD0052803D12046F3
:1006700004F0D4F82E70FEBD6660A6600220E6602D
:100680002870204604F018F8FEBD204604F032F928
:1006900010B103202870FEBD206A807A0428FAD9A0
:1006A00004202870204604F0B9F8084800906FF044
:1006B0007F4001900648029002AB01AA694620469D
:1006C00008F0F4F9FEBD000000010020C0A8010BF5
:1006D000C0A8010170470000064908B509684FF439
:1006E000FA52B1FBF2F14143009100BF491E009163
:1006F000FBD208BD2400002038B50446006800F590
:100700008050816941F480118161206800F580503A
:10071000806900900120FFF7DFFF2068009900F555
:100720008050816138BD00002DE9F041044621B1BF
:100730004FF40060E060C000A060E0690025002880
:1007400061D028462368402619683A4A1140D4E906
:1007500002273A43024342F40070084318602068BD
:100760000768012000F096F820680760206846605E
:1007700020684668012000F08DF8206846602068F7
:1007800085602068C560216888694FF64172104015
:1007900040F08000886120688669012000F07AF8C6
:1007A000206886612068C5612068C569012000F065
:1007B00071F82068C561226802F5805290691E496F
:1007C00008401E4901439161206800F58050856909
:1007D000012000F05FF8206800F5805085612068F6
:1007E000174900F580500160206800F580500568C9
:1007F000012000F04FF8206800F580500560A069E6
:10080000012803D009E04FF480609BE7206800F5E1
:100810008050C1690B4A1143C16160690A498288ED
:100820000A640278D0F8010042EA00204864BDE87A
:10083000F08100000F8120FF233FDEF8040020023A
:100840008020C1024000010000800240002200F030
:1008500001B8000030B50E4B054601205C7A002C33
:1008600014D1587A1C54587A03EB800045605D7AA5
:1008700003F108002A54587A421C5A72303008702A
:100880003A2048702F208870CC70002030BD0000C6
:100890003043002070B5044600F02EFC0546601C75
:1008A00002D004480078044400F026FC401BA0421B
:1008B000FAD370BD180000202DE9F04390F84540B0
:1008C0000025012C0DD04FF0010C80F845C002240A
:1008D00080F8444044F2F4574FF000495E1E8162B4
:1008E00017E00220BDE8F08301EB4514C4F8009046
:1008F000C5EBC51808EB480802EB8808C4E9017885
:10090000B54204D204F12008C4F80C8000E0E16094
:100910006D1C9D42E8D3026802F58052D16080F8D8
:1009200044C0002180F845100846DBE72DE9F0437C
:10093000914690F845200024012A0AD0012680F82B
:100940004560022280F844204FF4801C5D1EC16285
:100950001BE00220BDE8F08301EB4412C2F800C0A6
:10096000C4EBC41707EB470809EB88079760C76912
:100970001FB9176847F440071760AC4203D202F171
:100980002007D76000E0D160641C9C42E4D3026879
:1009900002F58052116180F84460002180F8451012
:1009A0000846D7E710B590F84510012913D0012269
:1009B00080F84520022180F84410816A0C680023E9
:1009C000002C27DB0C68E40518D5846B641C846359
:1009D000012C02D002E0022010BD016341630C68CB
:1009E000C4F30D44241FC463046BA4680464C96881
:1009F00040F8281F02774377002010BD0C68A4053B
:100A000003D58263C0E90C1302E0846B641C846329
:100A1000C968816200F8442F4370012010BD0000B6
:100A20002DE9FC474FF000060400B146009603D0C4
:100A300094F8440018B107E00120BDE8FC8784F871
:100A40004560204600F0E2F86648016841F48041C4
:100A50000160006800F4804001906348016821F45F
:100A6000000101600168226A11430160206800F5FD
:100A70008050016841F00101016000F03DFB054636
:100A80004FF4FA7709E000BF00F036FB401BB84294
:100A900003D9032004F8440F67E0206800F5805074
:100AA0000068C007F0D12068006920F01C0500F044
:100AB00077FC4E494E4A0144914202D245F0080566
:100AC00016E04C494C4A0144914202D245F00C05D3
:100AD0000EE04A494A4A0144914209D3494908442F
:100AE0004949884202D245F0040501E045F010056D
:100AF000206805614FF400420021204600F0E8F92B
:100B00000125A8BBFF20FFF7C5FE606888B300F091
:100B1000F3FA804641F288376A460121204600F008
:100B2000CFF800F0E9FAA0EB0800B84217D8009817
:100B30004007F1D54FF480520021204600F0C8F95B
:100B4000B0B900F0D9FA80466A460121204600F08B
:100B5000B7F800F0D1FAA0EB0800B8420AD9012199
:100B60002046FFF7E1FD04F8445F0320667064E768
:100B700024E018E000988006E6D56A461021204659
:100B800000F09EF8D0B90098410703D54FF40061FA
:100B9000E16000E0E660800701D5A66019E04FF44F
:100BA0008040A06015E0E068A168C00840EA5100FC
:100BB00082B20021204600F08BF930B1012120469D
:100BC000FFF7B2FD84F8445036E740F6FF70FFF7B8
:100BD00061FE49462046FFF7A7FD84F844500020F7
:100BE0002BE70000443802400438014000D3CEFE19
:100BF000C0E1E40040F1E9FD40787D0100796CFC42
:100C0000005A6202001F0AFA80F0FA02F0B500688A
:100C1000254987B0884245D124480024016841F025
:100C200000710160016801F000710591016841F0F7
:100C300080610160016801F080610591016841F007
:100C4000006101600068022500F00060059004204A
:100C5000CDE9000502AA03260B2782E8D0006946E9
:100C6000134800F071F93E20CDE9000502AA69465B
:100C700082E8D0000F4800F067F98F20CDE9000529
:100C800002AA694682E8D0000B4800F05DF943F6FD
:100C90000340CDE9000502AA694682E8D000074872
:100CA00000F052F907B0F0BD008002403038024039
:100CB0000010024000080240000002400004024010
:100CC0002DE9F047044690F84400914682281DD053
:100CD000822084F84400226810694FF6FF7500F006
:100CE0001C03208A05EAC02018434FF4F86303EA86
:100CF0008111014321F0020040F00105156100F06F
:100D0000FBF9064601274FF4803810E00220BDE8C9
:100D1000F08700BF00F0F0F9801B404505D304F8D0
:100D2000447F002060700320F1E720680569E80730
:100D3000F0D12068406981B2C9F8001084F844708D
:100D40000020E4E7F8B5044690F84500012839D0C2
:100D5000012584F84550022084F8440020680026CC
:100D6000016841F008010160206800680090284691
:100D7000FFF7B2FC2168009808602068016841F024
:100D8000040101602068006800900120FFF7A4FCC6
:100D90002168009808602046FFF7AEFC206800F547
:100DA0008050816941F400518161206800F58050D4
:100DB000816941F00201816184F8445084F8456002
:100DC0000020F8BD0220F8BDF0B590F845200023C2
:100DD000012A11D0012780F84570022280F84420B2
:100DE000002459B1C66A3268002A0ADA122100F8D2
:100DF000441F44700120F0BD0220F0BD00F8447F84
:100E0000F7E740F2F455A9420BD9B1FBF5FCB1FB71
:100E1000F5F205FB1C1CBCF1000F00D0521C012A8E
:100E200043D1326842F040523260C26AC1F30C01D1
:100E30005160C16A0A6842F000420A60C16AC9682A
:100E4000C16234E0D6F800C02CF0405CC6F800C0A7
:100E500033B9C66AD6F800C04CF0805CC6F800C052
:100E6000C66A7560561EB34214D1C66AD6F800C071
:100E70004CF0005CC6F800C0C2F10106C6EBC61615
:100E800006EB4606D0F82CC001EB8606C6F30C062E
:100E9000CCF80460C66AD6F800C04CF0004CC6F826
:100EA00000C0C66A5B1CF668C6629342CAD301687A
:100EB00001F580514A69520705D504224A6101684B
:100EC00001F580514C6000F8447F44700020F0BD73
:100ED0002DE9F041044690F8440042281ED04220FB
:100EE00084F84400236818694FF6FF7600F01C056B
:100EF000208A06EAC02028434FF4F86505EA8111EC
:100F0000014390B241F0030558612068056100F08B
:100F1000F3F8064601274FF4803810E00220BDE8C0
:100F2000F08100BF00F0E8F8801B404505D304F8CD
:100F3000447F002060700320F1E720680569E8071E
:100F4000F0D184F84470EAE72DE9F84FDFF87CB17E
:100F500000224FF001084FF0030A4FF00F090BF188
:100F6000040E00BF0B6808FA02F42340A3426ED1BE
:100F70004D68022D01D0122D0ED1D50800EB850C45
:100F8000DCF820505607F70E09FA07F6B5430E694C
:100F9000BE402E43CCF82060066855000F790AFA4F
:100FA00005FC07F0030726EA0C06AF40374307604D
:100FB0004E68012E05D0022E03D0112E01D0122E24
:100FC0000ED18668CF6826EA0C06AF4037438760AB
:100FD0004668A6430C79C4F300149440344344603B
:100FE000C6688C6826EA0C06AC403443C4604C6882
:100FF000E40065D5364C256845F4804525602468B5
:1010000022F0030504F480440094324C2E19D6F8E3
:10101000084895072F0F09FA07F5AC432E4DA84253
:1010200001D1002524E02D4DA84201D101251FE06A
:101030002B4DA84201D102251AE02A4DA84201D128
:10104000032515E0284DA84202D1042510E037E021
:10105000264DA84201D105250AE0254DA84201D11F
:10106000062505E0234DA84201D1072500E008250B
:10107000BD402543C6F80858DBF800405D464E6881
:101080009C43F60300D51C432C60DEF800407546F7
:101090004E689C43B60300D51C432C600B4D0835AD
:1010A0002C684E689C43F60200D51C432C60074D0B
:1010B0000C352C684E689C43B60200D51C432C604E
:1010C000521C102AFFF44EAFBDE8F88F003C0140DF
:1010D0004438024000300140000002400004024059
:1010E00000080240000C02400010024000140240C0
:1010F00000180240001C0240014880687047000050
:10110000180000200248816802781144816070470D
:10111000180000200B4810B5016841F4007101600F
:10112000016841F480610160016841F480710160EF
:10113000032000F08BF8002000F006F800F024F8FF
:10114000002010BD003C024070B50D4D04464FF428
:101150007A712878B1FBF0F00A490968B1FBF0F028
:1011600000F06EFE48B9102C07D200222146501E16
:1011700000F04CF800206C6070BD012070BD0000D4
:1011800018000020240000201F4808B5016841F421
:1011900080410160006800F4804000901A48001F00
:1011A000016841F080510160006800F080500090BB
:1011B000032000F04BF8002211466FF00B0000F006
:1011C00025F8002211466FF00A0000F01FF80022F7
:1011D00011466FF0090000F019F800221146501F67
:1011E00000F014F800221146101F00F00FF8002242
:1011F0001146901E00F00AF80022BDE80840114692
:10120000501E00F003B8000044380240F0B40E4B0A
:101210001B680C46C3F30223C3F10705042D00D954
:101220000425191D072901D2002300E0DB1E012639
:1012300006FA05F1491E214099409E40761E16404F
:101240003143F0BC00F0C6BE0CED00E0064900F0F2
:10125000070208684FF6FF03184040EA0220034ADD
:1012600010430860704700000CED00E00000FA0534
:101270002DE9F0470E46050065D0DFF81481D8F857
:101280000000F7B200F00F00B04207D288F80070FB
:10129000D8F8000000F00F00B04254D128683D4C4F
:1012A000810712D5400703D5206840F4E050206044
:1012B0002878000703D5206840F46040206020684B
:1012C000A96820F0F000084320602878C0072DD0DE
:1012D000304968680839012812D0022813D0032841
:1012E00011D00968890700292DDA216821F003014E
:1012F00001432160FFF700FF814641F2883A0EE08A
:1013000009688903EFE709688901ECE7FFF7F4FE54
:10131000A0EB0901514502D90320BDE8F087206800
:10132000696800F00C00B0EB810FEFD1D8F8001025
:10133000404601F00F01B14207D90770006800F084
:101340000F00B04201D00120E7E72878400705D51B
:101350002068E96820F4E0500843206028780007FE
:1013600006D52068296920F4604040EAC100206069
:1013700000F01CF82168084AC1F30311515CC84011
:10138000064908600020FFF7DFFE0020C5E70000E7
:10139000003C024008380240F8E500082400002024
:1013A000014800687047000024000020154810B56F
:1013B000006810F00C02144813D01449042A0FD00E
:1013C000082A0ED10F4C241F2268236802F03F0226
:1013D0005B0207D52068C0F38810A0FB010106E07E
:1013E000084610BD2168C1F38811A1FB000100234C
:1013F000FEF7E6FE2168C1F30141491C4900B0FB3C
:10140000F1F010BD083802400024F40040787D015E
:101410002DE9F84F050076D02878DFF8F8B2BE4CF9
:10142000C00749D0DBF800105846C1F381010129FB
:1014300008D00068C0F3810002280AD1201D00688E
:10144000400206D52068800336D568680028E2D0BF
:1014500032E06868B0F5803F10D0B0F5A02F20686A
:1014600010D020F480302060206820F4802020609C
:101470006868A0B1FFF740FE06460CE0206840F423
:101480008030F4E740F480202060F7E7FFF734FE77
:10149000801B642873D820688003F7D50CE0FFF721
:1014A0002BFE064605E000BFFFF726FE801B6428E2
:1014B000F0D820688003F7D42878DFF860828007AE
:1014C0004FF000093ED5DBF80010584611F00C0F24
:1014D00009D00068C0F3810002280BD18D48001F9D
:1014E0000068400206D42068800715D5E868012806
:1014F00009D111E0E868B8B10120C8F80000FFF791
:10150000FBFD064605E002E1FFF7F6FD801B022821
:10151000C0D820688007F7D52068296920F0F80036
:1015200040EAC10020600DE0C8F80090FFF7E4FD3C
:10153000064604E0FFF7E0FD801B02281FD8206864
:101540008007F7D42878000722D5724E744869695D
:101550006C3671B101210160FFF7CEFD074604E052
:10156000FFF7CAFDC01B022809D830688007F7D5ED
:101570000EE0C0F80090FFF7BFFD074605E083E0EE
:10158000FFF7BAFDC01B02287ED830688007F7D469
:101590002878400768D5DFF87CA100270AF1380ACF
:1015A000DAF80000C0000BD4DAF8001041F08051E6
:1015B000CAF80010DAF80000012700F0805000900F
:1015C000584E3068C00510D4306840F480703060E8
:1015D000FFF792FD009005E0FFF78EFD0099401A9D
:1015E000022851D83068C005F6D54A4EA86868363A
:1015F00001280FD00528306810D020F0010030609D
:10160000306820F004003060A868B8B1FFF774FDBE
:1016100000900FE0306840F00100F4E740F0040073
:101620003060F7E7FFF768FD0099411A41F2883012
:10163000814264D830688007F4D50EE0FFF75CFD86
:10164000009007E0FFF758FD0099411A41F28830F9
:10165000814254D830688007F4D42FB1DAF80010F2
:1016600021F08051CAF80010A869C0B3DBF800105F
:10167000C1F3810102294AD00228484607D0C8F8A0
:101680006000FFF739FD00E039E005463AE04746E3
:10169000C8F86000FFF730FD064604E0FFF72CFDB8
:1016A000801B02282BD820688001F7D4D5E90701D8
:1016B0000843A96A1C4A490802EB01416A6A41EAE7
:1016C0008211084395F82C1040EA01611148001F6F
:1016D000016001203866FFF70FFD054605E014E0C4
:1016E000FFF70AFD401B022809D820688001F7D5C2
:1016F0000BE000BFFFF700FD401B022802D90320CA
:10170000BDE8F88F20688001F4D40020F8E70120BC
:10171000F6E7000008380240003802400000474267
:10172000800E4742007000400000FFFFFEB50446F7
:1017300003200D4684F83400606C032820D0B5F5F2
:10174000805F1DD0B5F5006F05D045B1A06B40F0AE
:101750000060A06309E0204601F0E1F802E02046C5
:1017600001F0B6F8A16B0143A163A06B012658B14B
:10177000216840F2FF50886384F834600120FEBD88
:10178000A06B40F08050E4E7211DD4E905700EC93C
:101790000095CDE90170206800F049FC84F83460C0
:1017A0000020FEBDF0B5426E120E93090B70C2F31D
:1017B00083034B7002F003028A70426E120CCA70EF
:1017C000B0F86420120A0A7190F864204A71826E9F
:1017D0004FF6FF73120E03EA0212CA80826ECB88A4
:1017E000C2F3074243EA1213CB8002F00F020A72DF
:1017F000B0F86820C2F30722D3094B72C2F38013FA
:101800008B72C2F34013CB72C2F300130B7300262A
:101810004E73446C4FF4007701236CB1012C43D01C
:10182000026840F2FF519163816B41F08051816306
:1018300080F834300120F0BD9207120D0A6190F853
:1018400068200C6944EA82020A61C26E0C69120EB9
:1018500044EA92140C61C2F3C2040C7502F0070250
:101860004A75C26EC2F3074254098C75C2F38204F2
:10187000CC759207520F0A76B0F86C20C2F3072499
:101880000A7E42EAD4120A760A69521C42650D7E2B
:10189000AD1CAA4042650D7A03FA05F585656D0A0F
:1018A0006A43C0E917271CE090F868209206920A64
:1018B0000A61C26E0C69120E44EA02220A61C26E0B
:1018C0000C69C2F3074214430C61B0F86C20C2F3F8
:1018D00007240A69521C4FEA82224265C0E9167247
:1018E0000766C4F3801201F8192F4FEA84624FEAA9
:1018F00052624A7010F86C2F4C7844EAD2144C7043
:1019000002F07F028A7042684FEA12624FEAD214F4
:10191000CC70C2F341140C71C2F382044C714FEAD3
:1019200082724FEA12728A7142688C79C2F307425E
:1019300044EA92148C71C2F34014CC710E7202F01E
:1019400001024A728288C2F307224FEAD2148C72D3
:10195000C2F38014CC72C2F340140C73C2F30014AF
:101960004C73C2F381048C7302F00302CA730079D2
:101970004FEA500008744B744FF00000F0BD426C09
:101980000A60826C4A60C26C8A60026DCA60426DF5
:101990000A61826D4A61C26D8A61006EC861002071
:1019A000704770B50446B0F8500000250104206867
:1019B00000F0BBFC18B1A16B0143A16304E000215E
:1019C000206800F02EFB0546C5F3432070BD70B5BE
:1019D000040004D094F83400002510B105E0012083
:1019E00070BD2577204600F037F8032084F83400D6
:1019F000204600F007F8A5632563012084F8340031
:101A0000002070BDFEB50025044676200095CDE986
:101A100001502B462A462946206800F008FB0D4E4F
:101A200046F8A05F206800F014FB01253560022015
:101A3000FEF730FF204600F0FAFE20B9204600F005
:101A400083FE002805D084F83450A16B0143A163C4
:101A50000120FEBD008025422DE9F04300681A49AF
:101A600087B088422CD119484FF00009016841F431
:101A7000006101600068022400F4006005904FF4EA
:101A8000706001278DE8910003250C26DFF8408067
:101A9000CDE9035669464046FFF756FAE0028DE865
:101AA0001102CDE9035669464046FFF74DFA04207E
:101AB0008DE89100CDE9035669460648FFF744FAE0
:101AC00007B0BDE8F0830000002C0140443802401C
:101AD00000080240000C02402DE9F04F87B09A4602
:101AE00017460E460446DDF840B0FFF705FB0090B0
:101AF0003EB194F83400012807D0A06B40F00050AC
:101B00000FE0A06B40F000600BE04FF00008C4F85D
:101B10003880E06D07EB0A01814204D9A06B40F0E8
:101B20000070A0637DE0032084F834002068C0F8D2
:101B30002C80606C012800D07F024FF40071206877
:101B400000F0D6FA40F2FF59012530B12268C2F800
:101B50003890A16B0143A16361E04FF0FF30019029
:101B60004FEA4A200290902003900220CDE9040819
:101B7000069501A9206800F03EFABAF1010F06D9D6
:101B8000022020633946206800F040FB04E0256312
:101B90003946206800F053FB0028D7D140F22A389C
:101BA0002068416B11EA080F22D1406B000409D56F
:101BB0000027206800F051FA46F827007F1C082F04
:101BC000F7D32036BBF1000F05D0FFF795FA009947
:101BD000411A5945E4D32168C1F83890A06B40F010
:101BE0000040A06384F83450032007B0BDE8F08FB4
:101BF000416BC90509D5BAF1010F06D9616C0329FA
:101C000003D000F0C3FB0028A0D12068416B090776
:101C100009D5C0F83890A06B40F0080028E084F89F
:101C200034500120E1E7416B890705D5C0F83890B1
:101C3000A06B40F002001BE0416B89061AD5C0F88A
:101C40003890A06B40F0200012E000BF00F005FAD1
:101C500001C6BBF1000F05D0FFF74EFA0099411AFB
:101C6000594507D32168C1F83890A06B40F0004077
:101C7000A063D4E72068416B8902E7D42168C1F8EA
:101C8000389084F834500020AFE700002DE9F04F81
:101C900087B09A4616460D460446FFF72DFA069081
:101CA0003DB194F83400012807D0A06B40F00050FB
:101CB0000DE0A06B40F0006009E00020A063E26D41
:101CC00006EB0A01914204D9A06B40F00070A063BA
:101CD00090E0032184F8341021688146C862606C6A
:101CE000012800D076024FF40071206800F000FA5D
:101CF00040F2FF58012730B12268C2F83880A16B4A
:101D00000143A16317E0BAF1010F06D92020206337
:101D10003146206800F054FB05E010202063314676
:101D2000206800F066FB060008D02168C1F8388002
:101D3000A06B3043A06384F834705BE04FF0FF3059
:101D400000904FEA4A200190902002904846CDE949
:101D50000407CDF80C90B9466946206800F04BF9AD
:101D600040F21A3B22E0406B40040AD55FF00007C6
:101D700005EB8701206800F083F97F1C082FF7D35B
:101D80002035109830B1FFF7B7F90699411A10982D
:101D900081420BD32168C1F83880A06B3043A06327
:101DA00084F83490032007B0BDE8F08F2068416BC1
:101DB00011EA0B0FD7D0416BC9050FD5BAF1010F4E
:101DC0000CD9616C032909D000F0E0FA30B1226827
:101DD000C2F83880A16B0143A16309E02068416B20
:101DE000090709D5C0F83880A06B40F0080014E05E
:101DF00084F834900120D6E7416B890705D5C0F8F7
:101E00003880A06B40F0020007E0416BC0F83880DA
:101E1000C90604D5A06B40F01000A063E8E784F881
:101E200034900020BFE74FF0E0210428086903D078
:101E300020F004000861704740F00400FAE77047A2
:101E400010B5401EB0F1807F01D3012010BD4FF0CE
:101E5000E02460610F21601700F0BCF80020A06151
:101E600007202061002010BD10B5FFF7E8FF10BD6E
:101E7000FEE700002DE9F041984616460D4688B968
:101E800000240A4F0CE000BF56F8240008A1FEF71A
:101E90002EFA20B958F82400FEF753FA3880641C53
:101EA000AC42F1D304A0BDE8F08100001401002091
:101EB00056617231000000002F73656E642E6874E5
:101EC0006D6C000010B504490448FEF7BFFC0249E0
:101ED000491E087010BD000002000020E4E5000863
:101EE000194808B5016841F010010160016801F06E
:101EF00010010091016841F080010160016801F06A
:101F000080010091016841F004010160016801F065
:101F100004010091016841F001010160016801F0D4
:101F200001010091016841F002010160016801F0C6
:101F300002010091016841F008010160006800F0B1
:101F40000800009008BD0000303802400EB506F0D1
:101F500071F913490020144A0860091D104B0860EC
:101F6000091D08330860CDE900020E4902911A1FCD
:101F7000111F0E4806F01CFD0C4806F0BBFD0B4877
:101F800090F82F004007094802D506F0EFFD01E068
:101F900006F0B6FDBDE80E40044802F08DBB00001F
:101FA0000C000020BD560008555800087011002094
:101FB000064805490160002141608160C1600161FE
:101FC0004161816170470000002C0140A411002094
:101FD000FEE770470907090E002806DA00F00F0037
:101FE00000F1E02080F8141D704700F1E02080F837
:101FF0000014704770470A6842624A688262D1E9F9
:1020000002231A43D1E904310B43C16A1A4321F078
:10201000F7011143C16200207047006800F003001F
:10202000704708B5084414300090006808BD70B5CA
:102030000DF1100C11439CE8700023431943294310
:102040004268314347F6FF639A430A4342600020E7
:1020500070BD0321016000207047D0F880007047F8
:102060000A688260D1E901231A43D1E903310B43A5
:10207000C1681A436FF30B011143C1600020704720
:102080000968C0F880100020704710B586B004467B
:102090003720CDE9001040200290002003904FF43B
:1020A0008060049069462046FFF7DAFF41F28832EB
:1020B0003721204600F0B6F906B010BD10B5044631
:1020C0000A4886B001432920CDE900104020029043
:1020D000002003904FF48060049069462046FFF78B
:1020E000BFFF204600F054FA06B010BD000010807B
:1020F00010B586B004461020CDE9001040200290B3
:10210000002003904FF48060049069462046FFF75A
:10211000A7FF41F288321021204600F083F906B073
:1021200010BD10B586B004460620CDE90010402051
:102130000290002003904FF480600490694620468E
:10214000FFF78EFF41F288320621204600F06AF93F
:1021500006B010BD30B585B000240546009401944A
:102160004FF480600294CDE9034069462846FFF7AA
:1021700077FF0B484FF4FA510068B0FBF1F041F2E1
:1021800088314843401E03D24FF0004005B030BDB7
:10219000696B0906F6D540F2FF50A8632046F5E7C3
:1021A0002400002070B585B004464FF4D57000902F
:1021B00008204026CDE901060025C001CDE90350E5
:1021C00069462046FFF74CFF0F484FF4FA5100686C
:1021D000B0FBF1F041F288314843401E02D24FF08B
:1021E00000450DE0616B11F0450FF6D0606B4007C4
:1021F00002D5A663042503E0606B400600D5A66304
:1022000005B0284670BD00002400002010B586B03F
:1022100004461220CDE900104020029000200390D7
:102220004FF48060049069462046FFF719FF41F2A1
:1022300088321221204600F0F5F806B010BD10B526
:1022400086B004461120CDE9001040200290002005
:1022500003904FF48060049069462046FFF700FF2A
:1022600041F288321121204600F0DCF806B010BDA2
:1022700010B586B004460720CDE90020402002902A
:10228000002003904FF48060049069462046FFF7D9
:10229000E7FE41F288320721204600F0C3F806B07D
:1022A00010BD10B586B0044600210220CDE9001013
:1022B000C020CDE902014FF48060049069462046B9
:1022C000FFF7CEFE204600F03BF906B010BD10B57A
:1022D00086B004460920CDE90010C02002900020FD
:1022E00003904FF48060049069462046FFF7B8FEE3
:1022F000204600F025F906B010BD10B586B00446A2
:1023000000213320CDE900104020CDE90201000179
:10231000049069462046FFF7A3FE41F2883233213C
:10232000204600F07FF806B010BD10B586B0044618
:102330000D20CDE9001040200290002003904FF4C2
:102340008060049069462046FFF78AFE41F2883299
:102350000D21204600F066F806B010BD30B585B0FE
:102360000C46054600210320CDE900104020CDE9B0
:1023700002010001049069462846FFF771FE2246DB
:102380000321284600F024F905B030BD10B586B011
:10239000044600210C20CDE900104020CDE90201C7
:1023A0000001049069462046FFF75AFE034A0C21BB
:1023B000204600F037F806B010BD000000E1F5053A
:1023C00010B586B004461920CDE9001040200290D7
:1023D000002003904FF48060049069462046FFF788
:1023E0003FFE41F288321921204600F01BF806B06A
:1023F00010BD10B586B004461820CDE9001040206D
:102400000290002003904FF48060049069462046BB
:10241000FFF726FE41F288321821204600F002F82C
:1024200006B010BD444B10B51B684FF4FA54B3FB13
:10243000F4F353435B1E02D24FF0004010BD426BD9
:1024400012F0450FF6D0426B520703D50421816389
:10245000084610BD426BD20702D00121816303E020
:102460000269D2B28A4201D0012010BD40F2FF5170
:1024700081630021FFF7D5FD3049084201D10020DA
:1024800010BD002802DA4FF0007010BD410001D5E8
:10249000402010BD810001D5802010BDC10002D5B3
:1024A0004FF4807010BD010102D54FF4007010BDD3
:1024B000410102D54FF4806010BDC10102D54FF437
:1024C000006010BD010202D54FF4805010BD4102E2
:1024D00002D54FF4005010BD810202D54FF4804068
:1024E00010BDC10202D54FF4004010BD410302D51A
:1024F0004FF4003010BD810302D54FF4802010BD91
:10250000C10302D54FF4002010BD010402D54FF4E1
:10251000801010BD410402D54FF4001010BD81049D
:1025200002D54FF4800010BD000702D54FF4000023
:1025300010BD4FF4803010BD2400002008E0FFFDE6
:1025400012494FF4FA520968B1FBF2F141F28832B4
:102550005143491E02D24FF000407047426B12F0C7
:10256000450FF6D0416B490703D504218163084626
:102570007047416BC90703D001218163084670474A
:1025800040F2FF51816300207047000024000020CA
:102590000E494FF4FA520968B1FBF2F141F2883268
:1025A0005143491E02D24FF000407047426B12F077
:1025B000450FF6D0416B490703D5042181630846D6
:1025C000704740F2FF5181630020704724000020D3
:1025D0001F4B10B51B684FF4FA54B3FBF4F341F2F0
:1025E000883463435B1E02D24FF0004010BD446B41
:1025F00014F0450FF6D0436B5B0703D504218163CC
:10260000084610BD436BDB0702D00121816303E064
:102610000369DBB28B4201D0012010BD40F2FF51B3
:1026200081630021FFF7FDFC10F4604F04D04104EA
:1026300006D54FF4005010BD000C1080002010BDD6
:10264000000402D54FF4805010BD4FF4803010BD0F
:102650002400002010B5064C01202070FDF790FFEB
:1026600018B9207820F001002070207810BD0000FB
:10267000000000202DE9F04F89B00E460446FEF719
:102680003BFD00258346009501952F4608212068D3
:10269000FFF72EFD002834D1B4F850000104206863
:1026A000FFF7F3FC00282CD1401E4FF00808CDE9BD
:1026B000020830204FF00209CDE904090120CDE9DC
:1026C000067002A92068FFF796FC2068FFF715FE48
:1026D000002816D1EA4640F22A472068416B394269
:1026E00012D1416B890204D5FFF7B7FC4AF82500E7
:1026F0006D1CFEF701FDA0EB0B00401CEDD14FF06F
:10270000004009B0BDE8F08F416B090703D5C0F860
:1027100038800820F5E7416B890703D5C0F8389069
:102720000220EEE7416B890603D52021816308462C
:10273000E7E740F2FF518163009800BA70600198AA
:1027400000BA30600020DCE710B590B004460120EC
:10275000ADF838002068FFF760FC002864D0606C9A
:10276000032842D02068FFF79CFD00285AD10021A1
:102770002068FFF756FC606704212068FFF751FCD2
:10278000A06708212068FFF74CFCE0670C21206857
:10279000FFF747FCC4F88000606C032825D00EA921
:1027A0002068FFF7DBFD00283CD1606C03281CD0BB
:1027B000BDF83800206501042068FFF788FD002877
:1027C00030D100212068FFF72CFC606604212068CE
:1027D000FFF727FCA06608212068FFF722FCE066CF
:1027E0000C212068FFF71DFC206704212068FFF7FB
:1027F00018FC000DE06403A92046FEF7D3FFB4F8EF
:102800005000002302042068FFF732FD002809D1A0
:1028100004F1100007C88DE8070094E80F00FFF7E7
:1028200006FC002010B010BD4FF08060FAE72DE9E3
:10283000F8430025044600950068FFF78BFC00284C
:102840001AD12068FFF7AEFC4FF080784FF6FF7684
:10285000D8B14FF08057A5640098411C0091B04258
:102860001AD000212068FFF710FC20B90021206851
:10287000FFF724FC10B13846BDE8F883002120683A
:10288000FFF7CFFBC00FE7D01FE00127A764009838
:10289000411C0091B04201D14046EDE70021206883
:1028A000FFF7F3FB0028E7D14FF080412068FFF7E6
:1028B00005FC0028E0D100212068FFF7B2FBC10F22
:1028C000E5D0400001D5676400E065640020D3E7EF
:1028D0001CB5044600200090019000212068FFF7FD
:1028E000A0FB800102D54FF400601CBD6946204664
:1028F000FFF7C0FE0028F8D10198C0030CD5B4F84A
:10290000500001042068FFF7C0FB0028EDD1002132
:102910002068FFF706FC1CBD4FF080601CBD1CB595
:10292000044600200090019000212068FFF779FB09
:10293000800102D54FF400601CBD69462046FFF7B8
:1029400099FE0028F8D1019840030CD5B4F8500046
:1029500001042068FFF799FB0028EDD102212068CF
:10296000FFF7DFFB1CBD4FF080601CBD70B5064C4F
:10297000054601202070FDF70FFE18B92846FFF725
:1029800069FE2070207870BD0000002010B512484C
:1029900088B014460078C00702D0032008B010BDEC
:1029A000C1B1012905D0022908D003290CD0042087
:1029B000F4E76846FDF7DEFD06980AE06846FDF795
:1029C000D9FD0798208005E06846FDF7D3FD0798FC
:1029D000400A20600020E1E70000002070B51D469D
:1029E000164608460124A31E2A463146FDF7EEFD91
:1029F00028B900BFFDF7C4FD0028FBD10024204604
:102A000070BDFFF727BE000070B51D46164608468C
:102A10000124A31E2A463146FDF7E8FD28B900BF70
:102A2000FDF7AEFD0028FBD10024204670BD00005C
:102A300010B5114B0C469A6838B101280AD002280B
:102A40000CD003280ED0002010BD521C0BA1204634
:102A50009A600AE009A12046521D06E007A120461F
:102A60000A3202E005A120460F3200F0C1F82046EC
:102A7000FDF736FC80B210BD140100202575000062
:102A8000024804224168024804F04CB814010020B6
:102A9000312A0008704710B5FEF734FBBDE810403E
:102AA000FFF7E2B970B5244892B00025016841F003
:102AB00080510160006800F0805011901F4801684B
:102AC00041F4804101600068012400F480401190CD
:102AD0002004CDE90040022006AA41050F2682E825
:102AE00043009021CDE9091005200B906846FEF7C0
:102AF0008FFC00B1FEE74FF4A050CDE90E504FF42B
:102B00008050CDE90C64109000210CA8FEF7B0FBBA
:102B100000B1FEE7FEF744FC4FF47A71B0FBF1F030
:102B2000FFF78EF90420FFF77EF900221146501EB0
:102B3000FEF76CFB12B070BD4038024000700040E0
:102B40001048016841F4700101600F48016841F0CC
:102B5000010101600C4A00210832116002680B4B30
:102B60001A400260031D0A4A1A60026822F4802299
:102B7000026005480C30016002495806803908603F
:102B80007047000088ED00E000380240FFFFF6FECD
:102B900010300024FEE7000090F82F00C1070B481A
:102BA00010D0017811B10178052901D101210170FE
:102BB0000178032902D00078042801D10120704750
:102BC0000020704705210170FAE700000001002095
:102BD0000FB4054B10B503A9044A029800F030F871
:102BE00010BC5DF814FB0000455C000834010020B7
:102BF0000FB4084B10B504A902AA039800F020F8FE
:102C0000044602A9002000F0F7F8204610BC5DF849
:102C100014FB0000F92D000800487047380100201F
:102C200002E008C8121F08C1002AFAD17047704795
:102C3000002001E001C1121F002AFBD170470000F3
:102C40002DE9FF4F8BB09A460F460546002606E059
:102C500025280BD052460D9990476D1C761C28787C
:102C60000028F5D10FB03046BDE8F08F0024A04613
:102C70000122604900E0044315F8013F203B02FABD
:102C800003F00842F7D128782E2817D115F8010F44
:102C900044F004042A280ED06FF02F022878A0F107
:102CA000300109290AD808EB880102EB410100EB49
:102CB00001086D1CF2E757F8048B6D1C2878692811
:102CC0003ED006DC0028CDD063280BD0642804D188
:102CD00036E0732810D075284BD052460D99904796
:102CE000761C85E017F8040B8DF8000000208DF8A5
:102CF0000100E946012003E057F8049B4FF0FF3044
:102D000061074FF0000401D40AE0641C44450DDA69
:102D10008442FADB19F804100029F6D106E0641C9D
:102D20008442FCDB19F804100029F8D1264404E0A1
:102D300019F8010B52460D999047641EF8D257E0DE
:102D400001CF4FF00A0B002802DA40422D2102E0A9
:102D5000210504D52B218DF82410012103E0E10782
:102D600005D02021F7E70DF1200908910CE00021A2
:102D7000F9E701CF4FF00A0BF9E75946FDF7EEFAF4
:102D800001F1300209F8012D0028F6D1ADEB090060
:102D900000F1200B600701D44FF00108D84502DD97
:102DA000A8EB0B0000E000208046002406E009A804
:102DB0005246005D0D999047641C761C0898844229
:102DC000F5DB04E0302052460D999047761CB8F1AF
:102DD0000001A8F10108F5DC05E019F8010B5246E5
:102DE0000D999047761CBBF10001ABF1010BF4DCAF
:102DF0006D1C34E7092801000A68531C0B60107031
:102E00007047000010B504460020E070401E2063AB
:102E1000204605F0B3FD08B1042010BD04F23220B5
:102E200005F0CFF8A0F52A41553901D0032010BD97
:102E300094F83400E92805D0EB2814D194F8360032
:102E4000902810D104F16A0005F0B0F80749B1EB01
:102E5000002F06D004F1860005F0A8F80449884246
:102E600001D1002010BD022010BD000000464154D9
:102E70004641543330B50021054B0C4603EB01129B
:102E80001568854200D11460491C0229F6D330BD73
:102E90001043002010B50446406880472246206851
:102EA000BDE81040014906F053BE0000952E000811
:102EB00058B1026A002A0FD0537A082B0CD1096846
:102EC000926A914208D100F035BB04A340F27B32F4
:102ED00010A114A0FFF77CBE704700002E2E2F4DCE
:102EE0006964646C6577617265732F546869726494
:102EF0005F50617274792F4C7749502F7372632F32
:102F0000636F72652F697076342F646863702E6307
:102F1000000000006E6574696620213D204E554C0E
:102F20004C000000417373657274696F6E20222536
:102F30007322206661696C6564206174206C696E1F
:102F40006520256420696E2025730A002DE9FC4167
:102F500005001AD02C6AECB100232384616B4FF07A
:102F60003C07B1F1FF3F4FF480364FF001024FF6BE
:102F7000FF7019D01E31B1FBF7F1B14200D3014609
:102F80000904090C61840ED00EE02DA340F2FE323C
:102F900039A103E02AA34FF480623EA143A0FFF7CA
:102FA00017FEBDE8FC816284A16BB1F1FF3F0CD03C
:102FB0001E31B1FBF7F1B14200D301460904090CFF
:102FC000218300D12283218BA183E16BB1F1FF3FEB
:102FD0000CD01E31B1FBF7F1B14200D30146090418
:102FE000090C618300D16283618BE183228B618B49
:102FF0008A4201D301B12383E17A09B1E06A09E091
:1030000094F828107F2901D8FF2003E0C02901D3BC
:103010006FF07F400090206B019028B9A06A009962
:10302000084040F0807001900A21204601F03CFBEE
:1030300001AB6A4604F12801284605F037FDB0E7E8
:103040002E2E2F4D6964646C6577617265732F5401
:10305000686972645F50617274792F4C7749502FA0
:103060007372632F636F72652F697076342F646893
:1030700063702E6300000000646863705F62696EB5
:10308000643A206E6574696620213D204E554C4C93
:1030900000000000646863705F62696E643A2064D7
:1030A00068637020213D204E554C4C004173736580
:1030B0007274696F6E2022257322206661696C65C7
:1030C00064206174206C696E6520256420696E201F
:1030D00025730A0070B5046A05460821204601F0F0
:1030E000E3FA002204F12801284602F06FF8A07AE2
:1030F000FF2801D2401CA0724FF4FA7140F2E73071
:10310000B0FBF1F0E08270BD70B5294804684CE076
:10311000206AA0B3417A91B3418C69B1018C491CFA
:1031200089B20184428C914206D1204601F090F987
:10313000204600F0D5FA37E0C18B19B14A1EC28390
:10314000012906D0818BD1B14A1E8283012917D073
:103150002AE0256A2046697A012905D00A2903D088
:10316000052901D004291FD100F0D2FF688C298CD9
:10317000401A022818DB00EBD0704008E88313E007
:10318000256A2046697A012903D00A2901D0052938
:103190000AD101F0B1F9688B298C401A022803DBAF
:1031A00000EBD0704008A8832468002CB0D170BD1B
:1031B0007C0000202DE9F04116460C4607002CD07B
:1031C000002C35D0E068002806D05EA340F21F72C4
:1031D0006AA174A0FFF7FCFC2069002806D059A35F
:1031E0004FF4E46279A16FA0FFF7F2FC00224FF4E4
:1031F0009A752946104605F0C7FCE060002821D0EA
:103200004089A84206D24FA340F2277279A165A057
:10321000FFF7DEFC032E1BD117E04AA340F21D721C
:1032200084A160A0FFF7D4FC6FF00F00BDE8F0812F
:1032300044A340F21E7287A15AA0FFF7C9FC6FF0A9
:103240000500F3E74FF0FF30F0E7607A032808D17C
:10325000A07A884D08B1686802E0FCF7E3FF686077
:103260002060E06800254168012021610870216923
:103270004870216997F8280088702069C570206817
:1032800004F0D4FF2169082E486020690581206977
:1032900045812069C5600AD0042E08D0072E06D0CB
:1032A000032E07D1607A052801D0042802D12169B4
:1032B0007868C86020690561206945612069856179
:1032C0005FF0000097F82810814205D9062803D244
:1032D000391891F8291000E0002100F11C0223693F
:1032E000401C80B299541028ECD3002000F12C012E
:1032F0002269401C80B255544028F7D35FF000008B
:1033000000F16C012269401C80B255548028F7D32B
:1033100021695948C1F8EC00A5820020226900F11A
:10332000F0015054401C80B24428F7D301223521CB
:10333000204600F0FDFA3146204600F04BFB00200D
:1033400074E700002E2E2F4D6964646C65776172FE
:1033500065732F54686972645F50617274792F4C81
:103360007749502F7372632F636F72652F69707680
:10337000342F646863702E6300000000646863701B
:103380005F6372656174655F6D73673A206468633B
:10339000702D3E705F6F7574203D3D204E554C4C36
:1033A00000000000417373657274696F6E202225FE
:1033B0007322206661696C6564206174206C696E9B
:1033C0006520256420696E2025730A006468637097
:1033D0005F6372656174655F6D73673A20646863EB
:1033E000702D3E6D73675F6F7574203D3D204E55A7
:1033F0004C4C0000646863705F6372656174655F64
:103400006D73673A20636865636B2074686174202C
:10341000666972737420706275662063616E2068DD
:103420006F6C642073747275637420646863705F7A
:103430006D736700646863705F6372656174655F74
:103440006D73673A206E6574696620213D204E5584
:103450004C4C0000646863705F6372656174655F03
:103460006D73673A206468637020213D204E554C8F
:103470004C000000E00000206382536310B50B4C49
:103480002078002805D10AA3F32217A11FA0FFF777
:103490009FFB2078401E10F0FF00207004D1A06830
:1034A0000AF0CAFF0020A06010BD0000E00000206C
:1034B0002E2E2F4D6964646C6577617265732F548D
:1034C000686972645F50617274792F4C7749502F2C
:1034D0007372632F636F72652F697076342F64681F
:1034E00063702E6300000000646863705F70636245
:1034F0005F726566636F756E7428293A207265661F
:10350000636F756E74206572726F720041737365BC
:103510007274696F6E2022257322206661696C6562
:1035200064206174206C696E6520256420696E20BA
:1035300025730A007CB5046A06460C21204601F07A
:10354000B3F8042221463046FFF734FE050021D1AE
:1035500004223221204600F0EBF9A06A04F066FE56
:103560000146204600F09AFA204600F065FBA08A4A
:10357000F03081B2E06806F0C3F80D484323CDE98E
:1035800000600D480B4AE16880680AF089FF204618
:1035900000F014F8A07AFF2801D2401CA07242F675
:1035A00003104FF4FA71B0FBF1F0E08228467CBDC5
:1035B00008FC00080CFC0008E000002010B5040026
:1035C00003D0E068002809D00FE0BDE8104010A348
:1035D00040F26D721CA124A0FFF7FABA0CA340F2CE
:1035E0006E722BA120A0FFF7F3FA2069002806D104
:1035F00007A340F26F7230A11BA0FFF7E9FAE06861
:1036000008B105F01DFF0020E060206110BD000042
:103610002E2E2F4D6964646C6577617265732F542B
:10362000686972645F50617274792F4C7749502FCA
:103630007372632F636F72652F697076342F6468BD
:1036400063702E6300000000646863705F64656CE3
:103650006574655F6D73673A206468637020213D0F
:10366000204E554C4C000000417373657274696FB5
:103670006E2022257322206661696C656420617466
:10368000206C696E6520256420696E2025730A0010
:10369000646863705F64656C6574655F6D73673AD9
:1036A00020646863702D3E705F6F757420213D202B
:1036B0004E554C4C00000000646863705F64656C9C
:1036C0006574655F6D73673A20646863702D3E6D45
:1036D00073675F6F757420213D204E554C4C000080
:1036E0002DE9FC41046A06460020A062062120461E
:1036F00000F0DAFF012221463046FFF75BFD0700AC
:1037000030D102223921204600F012F9F18C2046F6
:1037100000F042FA03223721204600F009F9DFF8D1
:1037200080800025204618F8051000F053F96D1C24
:10373000EDB2032DF6D3204600F07EFAA08AF030D9
:1037400081B2E06805F0DCFF16484323CDE9006054
:103750001348154A401EE16880680AF0A1FE204621
:10376000FFF72CFFA07AFF2801D2401CA072C0B244
:10377000062802D20121814000E03C2101EB4100FA
:10378000C0EBC1104FF6FF7101EAC0004FF4FA71AF
:1037900000F2F310B0FBF1F0E0823846BDE8FC81A6
:1037A000E100002008FC00080CFC000870B50B4884
:1037B000002504680EE0206A58B1C18A012903D9A6
:1037C000A1F10101C18204E003D1C582204601F0CC
:1037D0009FF82468002CEED170BD00007C00002012
:1037E00070B5046A0020154EE0622063F178144D34
:1037F00009B1E9686163317909B1296901E0616B57
:103800004908A163717909B1696903E0616BC1EB92
:10381000C101C908E16361680969A162B17921B197
:10382000A86904F003FDE0620120E072F07900284D
:1038300003D0E86904F0FAFC206370BDEC000020BE
:103840008478002010B5154C207800281ED1A0687F
:10385000002805D012A3D9221FA129A0FFF7B8F98B
:103860000AF0DAFDA060B0B1017A442241F02001F3
:1038700001722D490AF068FC43222B49A0680AF026
:10388000B9FC00222949A0680AF0D3FD2078401C29
:103890002070002010BD4FF0FF3010BDE000002070
:1038A0002E2E2F4D6964646C6577617265732F5499
:1038B000686972645F50617274792F4C7749502F38
:1038C0007372632F636F72652F697076342F64682B
:1038D00063702E6300000000646863705F696E634C
:1038E0005F7063625F726566636F756E7428293AF4
:1038F000206D656D6F7279206C65616B0000000052
:10390000417373657274696F6E202225732220667D
:1039100061696C6564206174206C696E6520256442
:1039200020696E2025730A0008FC00089D420008EB
:1039300070B50E460446818A901C084415464428FA
:1039400006D90BA34FF4AE62174918A0FFF740F950
:10395000A08A21690144401CA08281F8F060A08AFD
:1039600021690144401CA08281F8F05070BD000024
:103970002E2E2F4D6964646C6577617265732F54C8
:10398000686972645F50617274792F4C7749502F67
:103990007372632F636F72652F697076342F64685A
:1039A00063702E630000000020FE00084173736501
:1039B0007274696F6E2022257322206661696C65BE
:1039C00064206174206C696E6520256420696E2016
:1039D00025730A0070B50446808A0D46442806D334
:1039E00007A340F27B5214A122A0FFF7F1F8A08AAE
:1039F00021690144401CA08281F8F05070BD000094
:103A00002E2E2F4D6964646C6577617265732F5437
:103A1000686972645F50617274792F4C7749502FD6
:103A20007372632F636F72652F697076342F6468C9
:103A300063702E6300000000646863705F6F7074D1
:103A4000696F6E5F627974653A20646863702D3EB9
:103A50006F7074696F6E735F6F75745F6C656E20E5
:103A60003C20444843505F4F5054494F4E535F4CA5
:103A7000454E0000417373657274696F6E20222594
:103A80007322206661696C6564206174206C696EC4
:103A90006520256420696E2025730A0070B50446F0
:103AA000808A0D46001D442806D913A340F28A528D
:103AB0001FA12FA0FFF78CF8A08A2269290E0244CB
:103AC000401CA08282F8F010A08A2269290C0244CE
:103AD000401CA08282F8F010A08A2269290A0244C0
:103AE000401CA08282F8F010A08A21690144401C89
:103AF000A08281F8F05070BD2E2E2F4D6964646C49
:103B00006577617265732F54686972645F50617282
:103B100074792F4C7749502F7372632F636F7265DE
:103B20002F697076342F646863702E630000000084
:103B3000646863705F6F7074696F6E5F6C6F6E67DF
:103B40003A20646863702D3E6F7074696F6E735FA6
:103B50006F75745F6C656E202B2034203C3D2044D3
:103B60004843505F4F5054494F4E535F4C454E00B1
:103B7000417373657274696F6E202225732220660B
:103B800061696C6564206174206C696E65202564D0
:103B900020696E2025730A0070B50446808A0D46A0
:103BA000801C442806D90BA340F28252174918A062
:103BB000FFF70EF8A08A2269290A0244401CA0825D
:103BC00082F8F010A08A21690144401CA08281F88B
:103BD000F05070BD2E2E2F4D6964646C6577617254
:103BE00065732F54686972645F50617274792F4CE9
:103BF0007749502F7372632F636F72652F697076E8
:103C0000342F646863702E6300000000DCFD000840
:103C1000417373657274696F6E202225732220666A
:103C200061696C6564206174206C696E652025642F
:103C300020696E2025730A0010B5040003D02069A6
:103C4000002809D00FE0BDE8104016A340F28272B0
:103C500022A12BA0FEF7BCBF12A340F2837232A1B7
:103C600027A0FEF7B5FFA08A442806D30DA340F293
:103C7000847238A122A0FEF7ABFFA08A2269FF213F
:103C80000244401CA08282F8F010002105E0226965
:103C90000244401CA08282F8F010A08A4428F6D387
:103CA00010BD00002E2E2F4D6964646C6577617223
:103CB00065732F54686972645F50617274792F4C18
:103CC0007749502F7372632F636F72652F69707617
:103CD000342F646863702E630000000064686370B2
:103CE0005F6F7074696F6E5F747261696C65723A50
:103CF000206468637020213D204E554C4C0000002C
:103D0000417373657274696F6E2022257322206679
:103D100061696C6564206174206C696E652025643E
:103D200020696E2025730A00646863705F6F707489
:103D3000696F6E5F747261696C65723A2064686362
:103D4000702D3E6D73675F6F757420213D204E5559
:103D50004C4C0A00646863705F6F7074696F6E5FCB
:103D6000747261696C65723A20646863702D3E6F8D
:103D70007074696F6E735F6F75745F6C656E203CF5
:103D800020444843505F4F5054494F4E535F4C4579
:103D90004E0A00002DE9F04F85B08A469C4A00216A
:103DA0000491D1601161BAF80A102C2919D3DAF8FC
:103DB00004104160BAF808004FF0F00902F10C0855
:103DC000574606E0A9EB0102401A3F681FFA82F944
:103DD00080B237B179894A464945F3D915468346B9
:103DE000E3E06FF0010005B0BDE8F08FA81C80B2E1
:103DF00000907A89681C4FF0FF36824203D90398FD
:103E00002844407803E0386808B1406800783429D5
:103E1000044647D008DC002924D0012927D00329F3
:103E20002DD0332908D134E035294BD0362952D052
:103E30003A2958D03B295ED000242844801C85B202
:103E4000002C0ED000200290082E06D371A340F261
:103E500036627EA182A0FEF7BBFE18F8060000289D
:103E600051D092E000206D1E0446ADB2E5E7042873
:103E700003D068A340F2F65210E00626DDE70424E2
:103E8000042804D263A340F2FB527FA194E00726EA
:103E9000D3E7042804D05FA340F209627FA18BE03E
:103EA0000326CAE7012803D05AA340F217620EE0A6
:103EB000B9F1F00F04D057A340F219627AA17BE068
:103EC0000026BAE7012804D052A340F21D627CA16B
:103ED00072E00126B1E7042803D04EA340F221622C
:103EE000DCE70226A9E7042803D04AA340F22562B2
:103EF000D4E70426A1E7042803D046A340F22962B0
:103F0000CCE7052699E7042C01D2204600E00420E6
:103F10000190024602A93846009B05F003FA0146CB
:103F2000019881427FF45DAF042C17D9A00704D01B
:103F300038A340F23E6265A13EE0012008F8060089
:103F4000029804F073F96749241FE4B241F826008F
:103F50000098001D80B2761C009075E7042C06D0F6
:103F6000012C08D02BA34FF4C9625FA124E0029872
:103F700004F05CF901E09DF808000290012008F8C7
:103F800006005848029940F826107889A84219D8A6
:103F9000291AABEB00008DB21FFA80FB5D4519D2E8
:103FA000BBF1000F16D03F6817B1786803900AE0A4
:103FB00018A340F2546251A129A0FEF709FE6FF048
:103FC000050010E737B15D4504D20398415DFF2934
:103FD0007FF40CAF98F8000050B14248002200680E
:103FE00088F8002001280ED0022804D0032808D029
:103FF00004980028E5D0002004904FF02C096C2094
:10400000DEE6012004904FF06C09EC20D8E60000B9
:10401000E00000202E2E2F4D6964646C657761727C
:1040200065732F54686972645F50617274792F4CA4
:104030007749502F7372632F636F72652F697076A3
:10404000342F646863702E6300000000636865634A
:104050006B206465636F64655F69647800000000CD
:10406000417373657274696F6E2022257322206616
:1040700061696C6564206174206C696E65202564DB
:1040800020696E2025730A006C656E203E3D206419
:1040900065636F64655F6C656E0000006C656E2023
:1040A0003D3D2034000000006F7665726C6F6164E6
:1040B00020696E2066696C652F736E616D65000006
:1040C0006C656E203D3D2031000000006465636F2B
:1040D00064655F6C656E2025252034203D3D2030D1
:1040E0000000000084780020696E76616C696420AD
:1040F0006465636F64655F6C656E00006E657874FF
:10410000207062756620776173206E756C6C00009C
:104110002DE9F843046A06460421204600F0C4FA5B
:10412000032221463046FFF745F807002ED1022230
:1041300039212046FFF7FCFBF18C2046FFF72CFDD0
:10414000032237212046FFF7F3FBDFF874800025B8
:10415000204618F80510FFF73DFC6D1CEDB2032D4D
:10416000F6D32046FFF768FDA08AF03081B2E06800
:1041700005F0C6FA12480096401E4323114AE16832
:1041800080680AF071F92046FFF718FAA07AFF2834
:1041900001D2401CA072C0B20A2804D24FF47A7136
:1041A00010FB01F001E042F2107080B24FF4FA719E
:1041B00000F2F310B0FBF1F0E0823846BDE8F8837E
:1041C000E10000200CFC00082DE9F843046A0746D2
:1041D0000321204600F068FA032221463846FEF704
:1041E000E9FF06003CD1022239212046FFF7A0FB5F
:1041F0004FF410712046FFF7CFFC042232212046F5
:10420000FFF796FBA06A04F011F801462046FFF77D
:1042100045FC032237212046FFF78AFBDFF8748034
:10422000002500BF18F805102046FFF7D3FB6D1CD2
:10423000EDB2032DF6D32046FFF7FEFCA08AF03046
:1042400081B2E06805F05CFA12480097401E4323F3
:10425000114AE16880680AF007F92046FFF7AEF9D5
:10426000A07AFF2801D2401CA072C0B20A2804D252
:104270004FF47A7110FB01F001E042F2107080B24D
:104280004FF4FA7100F2F310B0FBF1F0E082304627
:10429000BDE8F883E10000200CFC00082DE9F041A6
:1042A0004A485768164645682C6A002C70D0207A18
:1042B0004FF0000800286CD0606830B144A34FF480
:1042C000D56251A155A0FEF783FC70892C2875D3C7
:1042D0003878022872D1002095F8281001E0401C9F
:1042E000C0B2814209D9062807D22A183B1892F891
:1042F00029201B7F9A4260D1F1E7786803F096FF8E
:104300002168884259D131462046FFF743FDF8B96C
:104310004C494878E0B14C4A1079052804D0062869
:104320001FD0022836D048E0607A012806D0032842
:1043300013D0042811D005280FD03EE02846FFF7FF
:104340004FFA95F82F00000703D52846FEF7C2FE66
:1043500033E02846FEF7FAFD2FE02846FFF740FA43
:10436000F7E7607A032805D0012803D0042801D09C
:10437000052822D10C21286A00F096F9334B2846F3
:104380001A46114604F092FB2846FFF7A9F914E0FB
:1043900016E013E0607A06280FD1A4F816802F46A5
:1043A0002D6A887848B1906803F040FF68626868B9
:1043B0000069A862384600F0FBF80CB1C4F804802C
:1043C0003046BDE8F04105F03BB800007C470020D6
:1043D0002E2E2F4D6964646C6577617265732F545E
:1043E000686972645F50617274792F4C7749502FFD
:1043F0007372632F636F72652F697076342F6468F0
:1044000063702E63000000007265706C7920776124
:10441000736E27742066726565640000417373656E
:104420007274696F6E2022257322206661696C6543
:1044300064206174206C696E6520256420696E209B
:1044400025730A00EC0000208478002008FC000896
:104450007CB5046A0546F4B1606A0190284600F014
:1044600049FA06460021204600F01EF9002060624D
:10447000A062E0622063E063A063606360842084E4
:10448000E083A08356B1072221462846FEF792FE1C
:10449000060005D024E06FF00F007CBD00207CBD3D
:1044A000042236212046FFF743FA019803F0BEFEAE
:1044B00001462046FFF7F2FA2046FFF7BDFBA08A2F
:1044C000F03081B2E06805F01BF9094800954323FC
:1044D00001AAE168806809F0C7FF2046FFF76EF87F
:1044E000044B28461A46114604F0E0FA30467CBDDB
:1044F000E000002008FC00082DE9F843046A0646A5
:104500000521204600F0D0F8032221463046FEF770
:1045100051FE07002FD1022239212046FFF708FA69
:10452000F18C2046FFF738FB032237212046FFF7A6
:10453000FFF9DFF878800025204618F80510FFF70E
:1045400049FA6D1CEDB2032DF6D32046FFF774FB3C
:10455000A08AF03081B2E06805F0D2F813480096E6
:10456000401E432304F12402E168806809F07CFFC7
:104570002046FFF723F8A07AFF2801D2401CA07242
:10458000C0B20A2804D24FF4FA6110FB01F001E036
:1045900044F6206080B24FF4FA7100F2F310B0FBE1
:1045A000F1F0E0823846BDE8F8830000E100002029
:1045B0002DE9FC41046A06460121204600F074F80A
:1045C000032221463046FEF7F5FD070048D10222BE
:1045D00039212046FFF7ACF9F18C2046FFF7DCFAD1
:1045E000042232212046FFF7A3F9A06A03F01EFE41
:1045F00001462046FFF752FA042236212046FFF7F3
:1046000097F9606A03F012FE01462046FFF746FA6A
:10461000032237212046FFF78BF9DFF88080002541
:10462000204618F80510FFF7D5F96D1CEDB2032DE3
:10463000F6D32046FFF700FBA08AF03081B2E06895
:1046400005F05EF816484323CDE900601348154A8B
:10465000401EE168806809F023FF2046FEF7AEFFA8
:10466000A07AFF2801D2401CA072C0B2062802D254
:104670000121814000E03C2101EB4100C0EBC11071
:104680004FF6FF7101EAC0004FF4FA7100F2F31027
:10469000B0FBF1F0E0823846BDE8FC81E10000208B
:1046A00008FC00080CFC0008427A8A4203D04172E0
:1046B00000218172C182704770B505006FF00F0450
:1046C0002CD095F82F00C0072DD0E88C2C6A4FF025
:1046D000FF36B0F5107F1FD3002C2DD0E06830B12D
:1046E0001EA34FF43C722BA130A0FEF771FA606854
:1046F00030B11AA340F2F12236A12CA0FEF768FADD
:10470000207A08B1FEF7BAFE40212046FBF7B5FD3E
:10471000FFF798F8002816D0304670BD0FA340F27E
:10472000D62231A103E00DA340F2D72232A11FA06F
:10473000FEF74EFA204670BD402003F099FE0400BB
:10474000EAD02C62E0E7012020722846FEF7C8FF7D
:104750000028F0D0284600F061F8DDE72E2E2F4D1E
:104760006964646C6577617265732F5468697264FB
:104770005F50617274792F4C7749502F7372632F99
:10478000636F72652F697076342F646863702E636F
:10479000000000007062756620705F6F757420778E
:1047A00061736E277420667265656400417373657A
:1047B0007274696F6E2022257322206661696C65B0
:1047C00064206174206C696E6520256420696E2008
:1047D00025730A007265706C79207761736E277497
:1047E00020667265656400006E6574696620213D0F
:1047F000204E554C4C0000006E657469662069734C
:10480000206E6F742075702C206F6C642073747927
:104810006C6520706F72743F0000000010B50028B6
:1048200017D0046A002C13D0606830B10DA340F299
:104830004F521AA11EA0FEF7CBF900212046FFF728
:1048400033FF207A002803D0FEF718FE00202072E4
:1048500010BDBDE8104003A340F242521EA114A0B7
:10486000FEF7B6B92E2E2F4D6964646C65776172C0
:1048700065732F54686972645F50617274792F4C4C
:104880007749502F7372632F636F72652F6970764B
:10489000342F646863702E63000000007265706CD2
:1048A00079207761736E27742066726565640000F5
:1048B000417373657274696F6E20222573222066BE
:1048C00061696C6564206174206C696E6520256483
:1048D00020696E2025730A00646863705F73746FCB
:1048E000703A206E6574696620213D204E554C4C0F
:1048F0000000000040B1006A30B1407A0A2805D0BB
:10490000052803D0042801D00020704701207047FB
:1049100010B5026A0446517A0C290FD006290DD031
:1049200001290FD0082919D0032923D1907A022810
:1049300012D22046BDE81040FFF746BCBDE810404B
:10494000FEF7CEBE907A0528204603D8BDE8104079
:10495000FFF72EBEFFF77CFD2046EFE7907A012897
:10496000204603D8BDE81040FEF7B4BBBDE81040B8
:10497000FEF7ECBA10BD0000084910B50B5C002230
:1049800053B901220A540A1801EB8000127A4068D8
:104990000168104688470246104610BD304300208B
:1049A00030B4054C231804EB80001B7A406804697E
:1049B0001846A44630BC60473043002030B4054D53
:1049C0002C1805EB8000247A406885682046AC46A8
:1049D00030BC604730430020044A111802EB8000CD
:1049E000097A4068426808461047000030430020BA
:1049F00030B4054D2C1805EB8000247A4068C5685A
:104A00002046AC4630BC60473043002070B50546B8
:104A10000C46880706D006A34FF4CE7210A118A04A
:104A2000FEF7D6F8A86800682060A868046070BD2A
:104A30002E2E2F4D6964646C6577617265732F54F7
:104A4000686972645F50617274792F4C7749502F96
:104A50007372632F636F72652F6D656D702E6300C7
:104A60006D656D705F667265653A206D656D20706D
:104A7000726F7065726C7920616C69676E65640035
:104A8000417373657274696F6E20222573222066EC
:104A900061696C6564206174206C696E65202564B1
:104AA00020696E2025730A0010B580680468002C08
:104AB0000CD021680160A00706D005A34FF4A472B2
:104AC0000FA118A0FEF784F8204610BD002010BDED
:104AD0002E2E2F4D6964646C6577617265732F5457
:104AE000686972645F50617274792F4C7749502FF6
:104AF0007372632F636F72652F6D656D702E630027
:104B00006D656D705F6D616C6C6F633A206D656D86
:104B1000702070726F7065726C7920616C69676E5D
:104B200065640000417373657274696F6E2022259D
:104B30007322206661696C6564206174206C696E03
:104B40006520256420696E2025730A0070B50A4D22
:104B50000646002404EB440005EBC000017D29B1AA
:104B60008068B04202D1204600F034F9641CE4B2FF
:104B70000A2CEFD370BD0000A47800202DE9F74F78
:104B800084B04FF00A0B00240646DA465F46D94649
:104B900002940194CDF800404F4904EB440001EB2E
:104BA000C008039098F814500A2F16D0002D24D076
:104BB000012D08D0022D06D248A340F2251255A19E
:104BC00064A0FEF705F866B13168D8F804008142A8
:104BD00007D160B207B0BDE8F08F002DE8D167B211
:104BE0000BE0012D17D0022D07D3B8F81200009961
:104BF000884202D34FFA84FA0090641CE4B20A2C73
:104C0000CAD3059881074FF0FF30E3D40A2F18D09C
:104C10001ADAFCB242E03048039950F8310000281B
:104C2000B8F8120006D002998842E6D34FFA84F908
:104C30000290E2E701998842DFD34FFA84FB0190AA
:104C4000DBE70599C907C5D0BAF10A0F0FDA0AF0F8
:104C5000FF04214804EB440150F8310090B11FA338
:104C600040F26F1245A13BA0FDF7B2FF0AE0BBF195
:104C70000A0F02DA0BF0FF0404E0B9F10A0FA9DA17
:104C800009F0FF040A2C06D314A340F2811241A1BB
:104C900030A0FDF79DFF204600F09CF80A2C06D3BB
:104CA0000EA340F285123BA12AA0FDF791FF0A480E
:104CB00004EB440100EBC105287D30B107A34FF49C
:104CC000C37239A123A0FDF783FF0EB1306868607D
:104CD000002068827DE70000A47800202E2E2F4D52
:104CE0006964646C6577617265732F546869726476
:104CF0005F50617274792F4C7749502F7372632F14
:104D0000636F72652F697076342F65746861727095
:104D10002E6300007374617465203D3D2045544846
:104D20004152505F53544154455F50454E44494EA3
:104D300047207C7C207374617465203E3D2045547F
:104D4000484152505F53544154455F535441424C83
:104D500045000000417373657274696F6E202225EF
:104D60007322206661696C6564206174206C696ED1
:104D70006520256420696E2025730A006172705FCA
:104D80007461626C655B695D2E71203D3D204E55FE
:104D90004C4C000069203C204152505F5441424C31
:104DA000455F53495A4500006172705F7461626CDF
:104DB000655B695D2E7374617465203D3D204554CB
:104DC000484152505F53544154455F454D505459EA
:104DD0000000000070B5074C00EB4005002654F8B9
:104DE000350018B104F02CFB44F8356004EBC50025
:104DF000067570BDA47800202DE9F04385B00D0044
:104E0000074609D07C684FF480782088404542D11D
:104E1000207906283FD109E021A34FF422722EA168
:104E200031A0FDF7D5FE05B0BDE8F0836079042818
:104E300031D1608808282ED1D4F80E000490A169E1
:104E4000686820B1814202D10126334601E0002684
:104E5000022304F10802914604A9284600F0A0FBB1
:104E6000E088404503D0B0F5007F14D10FE096B143
:104E7000022204ABCDE90232291DCDE9001905F16A
:104E8000290319464A46284600F08CFA03E004A993
:104E90002846FEF70DF8384604F0D2FAC3E70000C2
:104EA0002E2E2F4D6964646C6577617265732F5483
:104EB000686972645F50617274792F4C7749502F22
:104EC0007372632F636F72652F697076342F657408
:104ED000686172702E6300006E6574696620213D02
:104EE000204E554C4C000000417373657274696F1D
:104EF0006E2022257322206661696C6564206174CE
:104F0000206C696E6520256420696E2025730A0077
:104F1000FEB515460E46040006D142A340F21B32F0
:104F20004EA152A0FDF754FE36B93EA34FF447728E
:104F300058A14EA0FDF74CFE35B93AA340F21D3200
:104F400057A14AA0FDF744FE2146286802F0FEF86A
:104F500008B1574B39E02868C0F303110E291FD060
:104F6000A168636800EA01020B409A4208D080B24F
:104F7000A0F57E41A93903D0E06880B304F10C05A7
:104F80004C4A4D49137803EB430001EBC000077D09
:104F9000022F28D32F684068874224D11A4631E077
:104FA00001208DF8040000208DF805005E208DF8AA
:104FB0000600687801AB00F07F008DF80700A87844
:104FC0008DF80800E8788DF809004FF40060009033
:104FD00004F129023146204600F0C0FBFEBDFFE788
:104FE0006FF00300FAE7002000EB400301EBC3037E
:104FF0001F7D022F0BD32F685B689F4207D1C0B281
:10500000107002463146204600F058F8E6E7401C92
:1050100040B20A28E8DB32462946204600F0D6F89E
:10502000DCE700002E2E2F4D6964646C6577617299
:1050300065732F54686972645F50617274792F4C84
:105040007749502F7372632F636F72652F69707683
:10505000342F6574686172702E6300006E65746928
:105060006620213D204E554C4C0000004173736575
:105070007274696F6E2022257322206661696C65E7
:1050800064206174206C696E6520256420696E203F
:1050900025730A007120213D204E554C4C00000024
:1050A00069706164647220213D204E554C4C0000B3
:1050B00008E60008F4000020A47800202DE9F84359
:1050C0000646154688461C4802EB450100EBC10424
:1050D000207D022806D219A34FF43B7225A131A0EE
:1050E000FDF776FD144A05EB4501207D02EBC10575
:1050F0000C35022813D1608A0327B0F58E7F04D9BE
:10510000211D304600F006FA07E0B0F5877F06D390
:105110002A46211D304600F003FA00B927754FF4E6
:10512000006000902B4606F129024146304600F00F
:1051300015FBBDE8F8830000A47800202E2E2F4D2B
:105140006964646C6577617265732F546869726411
:105150005F50617274792F4C7749502F7372632FAF
:10516000636F72652F697076342F65746861727031
:105170002E6300006172705F7461626C655B6172C6
:10518000705F6964785D2E7374617465203E3D20A4
:105190004554484152505F53544154455F53544124
:1051A000424C4500417373657274696F6E2022250D
:1051B0007322206661696C6564206174206C696E7D
:1051C0006520256420696E2025730A002DE9FC5FA7
:1051D0008246293001908846086814464FF0FF3611
:1051E0004FF0000B514601F0B1FF002828D1D8F84C
:1051F0000000C0F303110E2922D0B8F1000F1FD018
:1052000000281DD0524601214046FFF7B7FC070099
:1052100018D4394907EB470901EBC905287D002857
:1052200012D0012808D0022806D234A340F2C73297
:1052300040A14AA0FDF7CCFCBBF1000F0AD108E069
:105240006FF00F00BDE8FC9F01202875C5F808A08D
:1052500000E034B94146504600F05CF90646002CA7
:10526000F0D0287DDFF8908002280DD3454805F165
:105270000C03214607704FF4006000905046019ADD
:1052800000F06CFA064635E0012833D125464FF48C
:105290007B7668892989884207D1286828B117A3B5
:1052A000324639A12DA0FDF793FC287B01280ED0B2
:1052B00029890022022003F067FC050018D021464E
:1052C00003F03AFF58B1284604F0BAF810E02D6810
:1052D000002DDED12546204604F0DEFA45B158F80F
:1052E000390008B104F0ACF848F83950002601E064
:1052F0004FF0FF363046A5E7A47800202E2E2F4D24
:105300006964646C6577617265732F54686972644F
:105310005F50617274792F4C7749502F7372632FED
:10532000636F72652F697076342F6574686172706F
:105330002E6300006172705F7461626C655B695D11
:105340002E7374617465203D3D2050454E44494E96
:1053500047206F7220535441424C4500417373659E
:105360007274696F6E2022257322206661696C65F4
:1053700064206174206C696E6520256420696E204C
:1053800025730A00F40000206E6F207061636B6566
:10539000742071756575657320616C6C6F776564D9
:1053A000210000002DE9FF4F81B09846DDE90FA9EB
:1053B000DDF838B006004FF0000706D12BA34FF4FC
:1053C0008B6238A13BA0FDF703FC00221C210220C8
:1053D00003F0DAFB050046D068891C2806D223A317
:1053E00040F263423DA133A0FDF7F2FB6C681198D7
:1053F00002F01EFFE08096F82800062806D01BA3C6
:1054000040F26A4242492BA0FDF7E2FBD8F80010B7
:10541000A160B8F80400A081DAF80010C4F81210F6
:10542000BAF80400E082DBF80000C4F80E00D9F8F6
:105430000000A0614FF4807020800820608006206A
:1054400020710420607140F60600DDE9022300901F
:105450002946304600F082F9284603F0F1FF38462D
:1054600005B0BDE8F08F4FF0FF30F9E72E2E2F4D3D
:105470006964646C6577617265732F5468697264DE
:105480005F50617274792F4C7749502F7372632F7C
:10549000636F72652F697076342F657468617270FE
:1054A0002E6300006E6574696620213D204E554CC8
:1054B0004C000000417373657274696F6E20222581
:1054C0007322206661696C6564206174206C696E6A
:1054D0006520256420696E2025730A006368656372
:1054E0006B207468617420666972737420706275D1
:1054F000662063616E20686F6C64207374727563DC
:1055000074206574686172705F68647200000000E6
:1055100068FE0008014A00F003B8000008E6000831
:105520007FB5064D031D0124CDE90035CDE90214F8
:1055300025331946FFF736FF04B070BD0EE60008AC
:1055400070B5164D002400BF04EB440005EBC0020B
:10555000107DF0B1518A491C89B25182B1F5967F14
:105560000AD2012806D003280AD004280AD001282C
:105570000BD00EE0052908D32046FFF72BFC08E0EE
:10558000042000E00220107503E0111D9068FFF771
:10559000C1FF641CE4B20A2CD6D370BDA4780020ED
:1055A000F8B5044690F828001F4616460D46062812
:1055B00006D020A340F2AB122CA135A0FDF708FBCA
:1055C0009DB3286888B3214601F0C0FD68BB2878E8
:1055D000C0F303100E2829D0224639462846FFF78B
:1055E000CDFA002820DB00EB40013348022300EB1A
:1055F000C102137594603368D360B38813820023AB
:10560000538250F8315075B140F831304FF400609A
:105610000090334604F129022946204600F09EF806
:10562000284603F00DFF0020F8BDFFE76FF00F00E4
:10563000FAE700002E2E2F4D6964646C6577617265
:1056400065732F54686972645F50617274792F4C6E
:105650007749502F7372632F636F72652F6970766D
:10566000342F6574686172702E6300006E65746912
:10567000662D3E6877616464725F6C656E203D3DA7
:10568000204554485F4857414444525F4C454E00C2
:10569000417373657274696F6E20222573222066D0
:1056A00061696C6564206174206C696E6520256495
:1056B00020696E2025730A00A478002070B5044686
:1056C00040890D460E283CD9606801788689CA0752
:1056D00014D0012905D006221F49FAF716FE48B159
:1056E0000CE0417851B980785E2807D1607B40F0AA
:1056F000100002E0607B40F0080060736FF00D0165
:10570000082E03D0B6F5C16F1BD10FE095F82F001E
:10571000000716D560890E2813DB204603F058FFDA
:1057200078B92946204601F053FE12E095F82F0083
:10573000000706D560890E2803DB204603F048FFEA
:1057400018B1204603F07CFE03E029462046FFF70F
:1057500053FB002070BD000008E600082DE9F04171
:1057600004461F4690460E46069802F061FD054627
:105770000E21304603F02CFF18B16FF00100BDE898
:10578000F0817068858139680160B9888180D8F8B6
:105790000020C0F80620B8F80410418194F82800D1
:1057A000062806D006A340F22B1213A11FA0FDF776
:1057B0000FFA31462046A269BDE8F04110470000CB
:1057C0002E2E2F4D6964646C6577617265732F545A
:1057D000686972645F50617274792F4C7749502FF9
:1057E0007372632F6E657469662F65746865726E77
:1057F00065742E63000000006E657469662D3E6856
:1058000077616464725F6C656E206D75737420627D
:1058100065203620666F722065746865726E6574E7
:105820005F6F7574707574210000000041737365BB
:105830007274696F6E2022257322206661696C651F
:1058400064206174206C696E6520256420696E2077
:1058500025730A0010B5040006D10BA340F24622BE
:105860000EA112A0FDF7B4F9732084F83000742063
:1058700084F83100174860611748A061204602F0A3
:10588000A5FB002010BD00002E2E2F5372632F6544
:10589000746865726E657469662E63006E657469FE
:1058A0006620213D204E554C4C000000417373652D
:1058B0007274696F6E2022257322206661696C659F
:1058C00064206174206C696E6520256420696E20F7
:1058D00025730A00114F00088581000870B5054640
:1058E00002F0F2FB040009D02A69294690470028FB
:1058F00004D02046BDE8704003F0A2BD70BD00009A
:105900002DE9F047814691B1087880B100250C4619
:105910004FEA050609EB8507A046262120463C6391
:10592000FAF7D4FC30B100F8016B044609E000201E
:10593000BDE8F08720214046FAF7C8FC00B10670A8
:1059400000243D214046FAF7C1FC18B100F8016B74
:10595000386700E03E676D1C102D01DA002CD9D1AC
:105960002846E5E72DE9F74181B09046029800907E
:10597000684600F097F9040003D50B2004B0BDE899
:10598000F0810D4E002756F824501DB12846FDF732
:1059900071FA2F700198002800D0077046F8240093
:1059A00002D0B8F1010F01D00020E7E7002201A9E1
:1059B00002A800F003F8E1E72C0000202DE9FF41E8
:1059C000002790460E460F6000F06CF9050003D5E5
:1059D0000B2004B0BDE8F081974850F825409CB1F9
:1059E0003460207808F0FE0620B16078FEF7F4FFFE
:1059F000C1070BD02770E8B2B8466070FEF7BCFF55
:105A0000C10708D00320E4E70C20E2E70EB140070D
:105A100004D40020DDE71EB1400701D50A20D8E7F5
:105A2000607804F10C020221FEF7BAFFF0BBA089F6
:105A3000A0F50071B1F5606F3FD8411E08423CD11E
:105A4000002631462046FDF7DDF9022822D1002547
:105A50004FEA0D0704EB051090F8F61100F5F97008
:105A600019B1083002F0A2FA00E0002047F8250042
:105A70006D1C042DEED3002557F8256036B1314654
:105A80002046FDF7BFF9022801D203E003206D1C78
:105A9000042DF1D3042810D0022878D204F13F005D
:105AA00002F08FFAA189884271D100E005E004F18B
:105AB0004A0002F086FA10B105E0012089E704F1FE
:105AC000580002F073FAE06194F84450A570012D7B
:105AD00001D0022D5BD1454394F841006081E8B3C9
